:020000040800F2
:1000000000500020794A0008892400088B24000849
:100010008D2400088F2400089124000800000000AF
:10002000000000000000000000000000C1460008C1
:10003000932400080000000051470008954700087D
:10004000C14A0008C14A0008C14A0008C14A000864
:10005000C14A0008C14A0008C14A0008C14A000854
:10006000C14A0008C14A0008C14A00089524000896
:10007000C14A0008C14A0008C14A0008C14A000834
:10008000C14A0008C14A0008C14A0008C14A000824
:10009000C14A0008C14A0008C14A0008C14A000814
:1000A000C14A0008A1240008C14A0008C14A00084A
:1000B000C14A0008C14A0008C14A0008C14A0008F4
:1000C000C14A0008C14A0008C14A0008C14A0008E4
:1000D000C14A0008C14A0008C14A0008AD2400080E
:1000E000B9240008C14A0008C14A00080000000005
:1000F0000000000000000000000000000000000000
:0C01000000000000000000005FF808F1A3
:1001100010B5054C237833B9044B13B10448AFF341
:1001200000800123237010BD7C000020000000002F
:100130001051000808B5034B1BB103490348AFF346
:10014000008008BD00000000800000201051000861
:1001500010F8012B11F8013B012A28BF9A42F7D071
:10016000D01A704780F0004002E000BF81F00041EB
:1001700042001FBF5FEA410392EA030F7FEA226C4D
:100180007FEA236C6AD04FEA1262D2EB1363C1BFDD
:10019000D218414048404140B8BF5B42192B88BF4C
:1001A000704710F0004F40F4000020F07F4018BF6F
:1001B000404211F0004F41F4000121F07F4118BF8F
:1001C000494292EA030F3FD0A2F1010241FA03FC37
:1001D00010EB0C00C3F1200301FA03F100F000431F
:1001E00002D5494260EB4000B0F5000F13D3B0F1E7
:1001F000807F06D340084FEA310102F10102FE2A56
:1002000051D2B1F1004F40EBC25008BF20F00100C5
:1002100040EA03007047490040EB000010F4000F73
:10022000A2F10102EDD1B0FA80FCACF1080CB2EB06
:100230000C0200FA0CF0AABF00EBC2505242184365
:10024000BCBFD0401843704792F0000F81F400010A
:1002500006BF80F400000132013BB5E74FEA4103DD
:100260007FEA226C18BF7FEA236C21D092EA030F49
:1002700004D092F0000F08BF0846704790EA010FC3
:100280001CBF0020704712F07F4F04D1400028BFF0
:1002900040F00040704712F100723CBF00F50000D2
:1002A000704700F0004343F0FE4040F40000704708
:1002B0007FEA226216BF08467FEA236301464202B4
:1002C00006BF5FEA412390EA010F40F480007047C7
:1002D0004FF0000304E000BF10F0004348BF40426D
:1002E0005FEA000C08BF704743F0964301464FF0A9
:1002F00000001CE050EA010208BF70474FF0000305
:100300000AE000BF50EA010208BF704711F0004345
:1003100002D5404261EB41015FEA010C02BF844615
:100320000146002043F0B64308BFA3F18053A3F574
:100330000003BCFA8CF2083AA3EBC25310DB01FABB
:1003400002FC634400FA02FCC2F12002BCF1004F3F
:1003500020FA02F243EB020008BF20F001007047D0
:1003600002F1200201FA02FCC2F1200250EA4C0024
:1003700021FA02F243EB020008BF20EADC7070476A
:100380004FF0FF0C1CEAD0521EBF1CEAD15392EA78
:100390000C0F93EA0C0F6FD01A4480EA010C400254
:1003A00018BF5FEA41211ED04FF0006343EA5010AE
:1003B00043EA5111A0FB01310CF00040B1F5000FF0
:1003C0003EBF490041EAD3715B0040EA010062F19F
:1003D0007F02FD2A1DD8B3F1004F40EBC25008BF89
:1003E00020F00100704790F0000F0CF0004C08BFA7
:1003F00049024CEA502040EA51207F3AC2BFD2F174
:10040000FF0340EAC250704740F400004FF0000381
:10041000013A5DDC12F1190FDCBF00F000407047BB
:10042000C2F10002410021FA02F1C2F1200200FAF9
:1004300002FC5FEA310040F1000053EA4C0308BFC0
:1004400020EADC70704792F0000F00F0004C02BF11
:10045000400010F4000F013AF9D040EA0C0093F08C
:10046000000F01F0004C02BF490011F4000F013BE6
:10047000F9D041EA0C018FE70CEAD15392EA0C0F54
:1004800018BF93EA0C0F0AD030F0004C18BF31F0BF
:10049000004CD8D180EA010000F00040704790F095
:1004A000000F17BF90F0004F084691F0000F91F039
:1004B000004F14D092EA0C0F01D142020FD193EAFF
:1004C0000C0F03D14B0218BF084608D180EA010087
:1004D00000F0004040F0FE4040F40000704740F063
:1004E000FE4040F4400070474FF0FF0C1CEAD05231
:1004F0001EBF1CEAD15392EA0C0F93EA0C0F69D08D
:10050000A2EB030280EA010C49024FEA402037D0F7
:100510004FF0805343EA111143EA10130CF00040EE
:100520008B4238BF5B0042F17D024FF4000C8B42DE
:1005300024BF5B1A40EA0C00B3EB510F24BFA3EBBE
:10054000510340EA5C00B3EB910F24BFA3EB91038E
:1005500040EA9C00B3EBD10F24BFA3EBD10340EAE8
:10056000DC001B0118BF5FEA1C1CE0D1FD2A3FF62E
:1005700050AF8B4240EBC25008BF20F001007047E3
:100580000CF0004C4CEA50207F32C2BFD2F1FF0386
:1005900040EAC250704740F400004FF00003013AB7
:1005A00037E792F0000F00F0004C02BF400010F45B
:1005B000000F013AF9D040EA0C0093F0000F01F06F
:1005C000004C02BF490011F4000F013BF9D041EA91
:1005D0000C0195E70CEAD15392EA0C0F08D14202C4
:1005E0007FF47DAF93EA0C0F7FF470AF084676E797
:1005F00093EA0C0F04D14B023FF44CAF08466EE770
:1006000030F0004C18BF31F0004CCAD130F000423D
:100610007FF45CAF31F000437FF43CAF5FE700BF95
:100620004FF0FF3C06E000BF4FF0010C02E000BFBE
:100630004FF0010C4DF804CD4FEA40024FEA410360
:100640007FEA226C18BF7FEA236C11D001B052EA16
:10065000530C18BF90EA010F58BFB2EB030088BFDC
:10066000C81738BF6FEAE17018BF40F0010070474B
:100670007FEA226C02D15FEA402C05D17FEA236C2D
:10068000E4D15FEA412CE1D05DF8040B704700BF74
:10069000844608466146FFE70FB5FFF7C9FF00280B
:1006A00048BF10F1000F0FBD4DF808EDFFF7F4FF44
:1006B0000CBF012000205DF808FB00BF4DF808EDDD
:1006C000FFF7EAFF34BF012000205DF808FB00BF00
:1006D0004DF808EDFFF7E0FF94BF012000205DF822
:1006E00008FB00BF4DF808EDFFF7D2FF94BF0120D3
:1006F00000205DF808FB00BF4DF808EDFFF7C8FFCC
:1007000034BF012000205DF808FB00BF03685A00D9
:100710004CBF43F0004323F000431844704700BF30
:1007200061B32DE9F84F01F1FF3A90460646D146F4
:10073000002707EB090404EBD4746410E500711979
:100740000846FFF7E3FFA245834605F10800304461
:1007500009D0FFF7DBFFC34500F1FF3005D8404566
:1007600009D2671CE5E7C34505D9A74202D004F1C9
:10077000FF39DEE700210846BDE8F88F08467047DC
:10078000012807D0022807D0044B00280CBF1846C8
:100790000020704702487047024870477D0E0008ED
:1007A000810E0008850E000830B5264B83B0044644
:1007B0008D1E4BB301A92846AFF30080F0B101991B
:1007C0002A46FFF7ADFF0146C0B1FFF79FFF4B6818
:1007D000A064012B2FD0002B01F1040027DBFFF7D1
:1007E00095FF0023C4E913030368002B13DBFFF715
:1007F0008DFF00232061184603B030BD092300227D
:100800001846226103B030BD0F4B10491846C91A73
:10081000C9100191D4E7C3F30360FFF7B1FF0028CB
:1008200014BF002309232061184603B030BD012303
:10083000C4E91303D8E7052300221846226103B058
:1008400030BD00BF00000000E0530008F054000875
:10085000036810B5DA07044606D49B0700F1480088
:1008600009D500F067FC2368590709D51A070ED58A
:10087000DB0613D510BD00F055FC23685907F5D4ED
:1008800004F1D00000F05EFC23681A07F0D404F5F0
:10089000A87000F05FFC2368DB06EBD404F5E87079
:1008A000BDE8104000F09ABC036803B10344184649
:1008B000704700BF09207047704700BF70B50446FD
:1008C0000D4608E02A6C2369626121462A46012010
:1008D0009847082808D1296C2046FFF765FF06468F
:1008E0000028EFD004F034FB0728FBD13046296CF8
:1008F000FFF7E2FF281D00F009FC00BF2DE9F047DB
:1009000005464FF0000CADF5727D03AC0E1D174689
:100910000FCE0FC40FCE0FC40FCE0FC496E80F003A
:10092000D5F80C80D5F8189084E80F0002ACC4F814
:1009300000C021E0236C4FF4F0726B6121467AA86D
:1009400004F040FB2B697AAA294630469847889BD9
:10095000CDE900498246636431462B462A46012090
:10096000C0470746F8B94FF4F0727AA9204604F060
:1009700029FBBAF1080F1CD1216C2846FFF714FFA0
:10098000002F08BF0926074618BF0A260028D1D025
:10099000A36B46F01001CDE900492A4663640120AB
:1009A0002B46C04700B1092738460DF5727DBDE8DA
:1009B000F087BAF1070FF6D13846216CFFF77CFFBC
:1009C00003A800F0A3FB00BF406C70474FF0FF3C52
:1009D000F0B5CB6BF9B00B640D1D01AC0F460646AC
:1009E0000FCD0FC40FCD0FC40FCD0FC495E80F006E
:1009F00084E80F00CDF800C006E033696A4631464E
:100A000098470828044608D110993046FFF7CCFED5
:100A10000028F2D0092079B0F0BD6846FFF718FF32
:100A2000062CF7D139463046FFF748FF30B4DD6B6E
:100A3000C160826119461D64002230BC5EE700BFC0
:100A400070B54369C6680B64BEB903690A460446BB
:100A50000D46014602209847072807D0082803D1F1
:100A600029462046FFF72AFF04F072FA3046296C27
:100A7000FFF722FF281D00F049FB0122FFF73EFF90
:100A800004F066FAC2682AB110B4CC6B00220C6480
:100A900010BC33E79AE700BF704700BF836813B10B
:100AA0000146012018477047042907D8DFE801F004
:100AB0000308060808000BB90F2A03D90220704763
:100AC0000120704700EB820042681846009B1A60C4
:100AD000704700BF002310B584B003AC0A460094F1
:100AE0001946FFF7E1FF039804B010BD042907D8A9
:100AF000DFE801F00308060808000BB90F2A03D944
:100B00000220704701207047009900EB82020968BB
:100B100018465160704700BF002310B584B004AC84
:100B200044F8042D00940A461946FFF7DFFF04B08D
:100B300010BD00BF4FF0FF3CF0B5D36BADF50F7D9E
:100B40001364151D17AC07460E460FCD0FC40FCD0D
:100B50000FC40FCD0FC495E80F0084E80F00CDF847
:100B600058C012E00C2116A86A46FFF7D5FF31469F
:100B700016A8B84778B9049B16AA69460820984772
:100B80000528044608D0092805D026996846FFF7AD
:100B90000BFE0028E6D0092416A8FFF759FE2046D0
:100BA0000DF50F7DF0BD00BF2DE9F04F0D46C96C6E
:100BB00089B00C1D164600F0030B0A681F46069408
:100BC000002B68D00221130C8DF81D301204DBB20B
:100BD00004EB830405928DF81C102B6DBBF1020F02
:100BE00008BFAC6B13F0010346D1019300F008037A
:100BF0000093D4F80090B9F1000F00F0F380022FB9
:100C000045D0B4F80090B4F802800434AB6C28F0FE
:100C1000010A0F2130469A44FFF75CFF824534D821
:100C200029F001035344834294BF002001204FEA7E
:100C3000480808F0020809F0010948EA0908B8F173
:100C4000010F3AD031D3B8F1020F1AD1236823F043
:100C5000004ABBF1000F66D130B1009A002A6CD077
:100C6000BAF1000F00F09080002B00DA04340AF192
:100C7000010304EB8304BCE7304605A900F048FB00
:100C800078B1092009B0BDE8F08F0020CFE7D4F893
:100C900004800834BAE7032312020592ADF81C3031
:100CA0009BE7082009B0BDE8F08FBBF1000F02D030
:100CB000002840F0B48004349BE7BBF1000F18D14A
:100CC000A8B1D4E90023991C4FEAD272D9D005F11A
:100CD00058010133049100F0B580201DFFF7E4FDB9
:100CE00004AB0146284603F009FF002867D1083409
:100CF0007FE70D213046D5F82080FFF7EBFE8045D9
:100D0000F5D1AB6A9C42F2D12046FFF7FFFC0F21E0
:100D100002463046FFF700FF30462A460021FFF723
:100D2000FBFE0720AEE70D213046D5F82080FFF707
:100D3000D1FE804532D0236896E7BAF1000F23D068
:100D400005F1580304F10408CDF808B0DDF800906F
:100D5000A34603971C4602E05745B94640D040469B
:100D60000494FFF7A1FD04AB01460022284603F0DE
:100D7000C5FE09F1010708F104080028ECD0D145AF
:100D80005C46DDE902B7D6D130460D21FFF7A2FE61
:100D9000049B2862C5E90934062073E7AB6A9C42CC
:100DA000C9D104224FF00008A318C5E90AA8C5E973
:100DB0000C23236843454DDB0123019357E780460D
:100DC0000D213046FFF786FEB8F1020F28623ED1B2
:100DD0002B46049A43F82C2F6B62AC62062051E735
:100DE0005C46D1E705A9304600F092FA00287FF46E
:100DF00048AF019B002B3FF454AF0F213046FFF763
:100E000069FE0E2102463046FFF786FE30461A4A3A
:100E10000F21FFF781FE072009B0BDE8F08F2046C3
:100E2000FFF774FC04340746AC63284603F0C4FEA5
:100E300000283FF426AF30463A460F21FFF76CFEFC
:100E400007201FE730460D21FFF744FE2862049B70
:100E50006B62C2E70AF1010004EB8000FFF756FC69
:100E60000F2102463046FFF757FE30462A464146DC
:100E7000FFF752FE072005E79B4E0008002393E68C
:100E8000012391E602238FE62DE9F0410546C4B027
:100E9000042906D8DFE801F04D2B05030900032BD8
:100EA0005FD0022044B0BDE8F081002BF9D1102AB8
:100EB000F7D82B68DC0600F1F68022AC20460192C0
:100EC000012600F095F90023A86B019A06FA03F1B8
:100ED000114203D00168043044F823100133042B7D
:100EE000F4D1A863204600F079F90020DAE7012B5D
:100EF0004FEA124697B254D0052BD2D106EB070821
:100F0000B8F1200FCDD80F2E40F29B80B846002FAD
:100F100040F0DD80AA6B0F2EAA6340F2C080B8F1CA
:100F2000000F02D002A800F00DF9002044B0BDE887
:100F3000F081002BB5D10127AC6B96B2281D07FAC2
:100F400003F1314203F1010302D02168043401604E
:100F5000102B00F10400F2D112F40050E5D1AC6383
:100F6000A0E7160C97B2F319102B9AD82B681A0722
:100F70005FD422AC204600F00FF904EBC601A86B49
:100F80004FB1034600EBC7001A680433834241F8AF
:100F9000042BF9D11846A863204600F0DBF80020A6
:100FA00080E7F219102A3FF67CAF0F2E3FF679AF9B
:100FB0002A68D10708D5284622F0030240F8482BBA
:100FC000019300F0B3F8019B22AC2046019300F09E
:100FD000ADF8A96B019B002F00F095804FF0000841
:100FE0007A0004EBC604043C01EB820251F8040BC6
:100FF000914244F8040FF9D1B8F1000F0FD002ACC0
:10100000102E314638BF102104EBC101843902EBA8
:10101000C80452F8040B944241F8040FF9D1012B93
:101020007FF479AF22AC0432AA63204600F07AF84C
:101030007BE723F008032B6005F5A87000F0ACF8FF
:1010400097E7B8F1100F2A6843D9D007A8F1100824
:101050000BD5284622F0010242F0020240F8482B4C
:10106000019300F06BF82A68019B510725D40F2EDD
:1010700004D822A8019300F061F8019B02AC20463D
:10108000019300F063F8C6F110000028AA6B019BE1
:10109000B6DD22AC114604EBC6044200A3E722A849
:1010A00000F048F83BE723F010032B6005F5E870EB
:1010B000019200F09DF8019AFFE6284622F0040212
:1010C00040F8D02B019300F041F8019BCFE72A684C
:1010D000CBE7D0070AD5284622F0010242F00202EF
:1010E00040F8482B019300F029F8019B22AC2046E0
:1010F0000193B84600F022F8A96B019B002F7FF402
:101100006DAF0A4607E70A468DE700BF00F13401DC
:1011100091E838009C46A6464CF8045D90E8FF0F25
:10112000E54600BD90EC210B704700BF80EC210B21
:10113000704700BF90EC200B704700BF80EC200B85
:10114000704700BFD0EC200B704700BFC0EC200BF5
:10115000704700BFF0EC0201F0EC0211F0EC02214C
:10116000F0EC0231F0EC0241F0EC0251F0EC0261E3
:10117000F0EC0271F0EC0281F0EC0291F0EC02A1D3
:10118000F0EC02B1F0EC02C1F0EC02D1F0EC02E1C3
:10119000F0EC02F1704700BFE0EC0201E0EC02115C
:1011A000E0EC0221E0EC0231E0EC0241E0EC025123
:1011B000E0EC0261E0EC0271E0EC0281E0EC029113
:1011C000E0EC02A1E0EC02B1E0EC02C1E0EC02D103
:1011D000E0EC02E1E0EC02F1704700BFB0FC0181FD
:1011E000B0FC0191B0FC01A1B0FC01B1704700BF9F
:1011F000A0FC0181A0FC0191A0FC01A1A0FC01B117
:10120000704700BFEC4600B52DE900502DE9FF1FE7
:101210004FF000032DE90C0001A9FFF7D7FBDDF823
:1012200040E012B0704700BFEC4600B52DE9005019
:101230002DE9FF1F4FF000032DE90C0001A9FFF776
:10124000FFFBDDF840E012B0704700BFEC4600B590
:101250002DE900502DE9FF1F4FF000032DE90C0090
:1012600001A9FFF70FFCDDF840E012B0704700BFA6
:10127000EC4600B52DE900502DE9FF1F4FF00003AB
:101280002DE90C0001ABFFF7D1FBDDF840E012B017
:10129000704700BFEC4600B52DE900502DE9FF1F57
:1012A0004FF000032DE90C0001AAFFF743FCDDF825
:1012B00040E012B0704700BF027A7AB9437AA3B116
:1012C00003214268013B10B443721368141D01727C
:1012D0001A024460026010BC180E70470368013A9D
:1012E00002721A020260180E7047B020704700BFE9
:1012F000002300B585B003AA009219460C22FFF71F
:10130000D3FB039805B05DF804FB00BFF0E700BF16
:101310002DE9F04305460E464FF0000885B03046F3
:10132000FFF7CAFFB028044600F0B080070620D5BA
:1013300000F0F003802B65D0902B36D0A02B78D016
:10134000B02B47D0C02B00F0898000F0F803D02BE1
:101350000BD100F00702013242F4002205230121E3
:101360002846FFF791FD0028D9D0092005B0BDE837
:10137000F08300230DF10C0919468700CDF8009089
:101380000D222846FFF790FBFFB2039B043760064F
:101390004CBFDF1BFF180023CDF8009019460D222B
:1013A00028460397FFF7A2FBB9E700F00D030D2BCA
:1013B000DBD0002303AF00F00F0219460097284648
:1013C000FFF772FB0023009719460D222846FFF70E
:1013D0008DFBA4E7B1285ED0B22800F0CB80B32803
:1013E0007DD000F0FC03B42BBFD0012300F0070236
:1013F0001A4442F4002219462846FFF745FD00280A
:101400008DD0B2E73046FFF757FF24020443B4F50E
:10141000004FAAD000232401A2B219462846FFF7A4
:1014200033FD0028A1D114F4004F18BF4FF001087C
:1014300075E7C3434FF47F6203F007031A410023AB
:10144000010702F47F6248BF42F4804219462846F1
:10145000FFF71AFD00283FF462AF86E7C62851D097
:10146000C7285AD000F0F803C02B69D0C82875D01F
:10147000C9287FF47AAF3046FFF71EFF020300F061
:101480000F0002F470220130024367E7B8F1000F49
:1014900014D000206AE73046FFF70EFF00283FF423
:1014A00064AF10F0F0037FF460AF0246194628469F
:1014B000FFF7EAFC00283FF432AF56E703AC43469F
:1014C0000E22414600942846FFF7EEFA0094284683
:1014D00043460F224146FFF709FB404646E73046A8
:1014E000FFF7EAFE0123010300F00F0001F4702171
:1014F000C2180A4328461946FFF7C6FC00283FF4E5
:101500000EAF32E73046FFF7D7FE010300F00F00C1
:10151000032301F47021421CEBE73046FFF7CCFEB9
:10152000024600283FF421AF10F0F0037FF41DAF16
:1015300004212846FFF7A8FC00283FF4F0AE14E78A
:10154000032300F00F02013242F4202219462846FC
:10155000FFF79AFC00283FF4E2AE06E73046FFF7BB
:10156000ABFE00F0F00200F00F031032013343EA4B
:101570000232F3E600230DF10C090D221946CDF8D5
:1015800000902846FFF790FA3046FFF795FE0206D6
:101590004FF002070CD5039B00F07F00B8400344D6
:1015A00030460393FFF788FE030607F10707F2D4DE
:1015B0000023039A00F07F04BC4002F5017214443A
:1015C000CDF8009019460D2228460394FFF78EFAB5
:1015D000A5E600BF30B503240D46C36C85B05A683C
:1015E0008DF80C40DC791202083301A928460192DB
:1015F0008DF80D400293FFF78BFE05B030BD00BFA4
:1016000008B5FFF783FE806C08BD00BF08B5FFF783
:101610007DFEC06CC37900EB8300083008BD00BFBD
:1016200008B503F095FC00BF08B5FFF7F9FF00BF50
:1016300080B483B000AF78607B685B6918460C3774
:10164000BD4680BC704780B483B000AF78607B68D3
:101650009B6918460C37BD4680BC704780B483B088
:1016600000AF78607B689B6918460C37BD4680BC2C
:101670007047000080B485B000AFF860B9607A6050
:101680003B60124AFB681A603B689AB2FB689A801A
:10169000FB68BA689A60FB687A68DA60FB684FF0AA
:1016A00000025A61FB684FF000029A61FB689B8858
:1016B000013B022202FA03F31A46FB681A61FB6837
:1016C00018461437BD4680BC704700BFEC51000877
:1016D00080B582B000AF786039603968786800F012
:1016E00010F802467B685A617B685B691946786826
:1016F00000F028F802467B689A6100BF0837BD46B3
:1017000080BD90B583B000AF786039603868FEF76F
:10171000DFFD02467B689B6819461046FEF730FEE7
:1017200003461C467B681B691846FEF7D1FD03463D
:1017300019462046FEF7D8FE034618460C37BD462C
:1017400090BD000090B583B000AF786039607B68D1
:10175000DB6819463868FEF709FD03461C467B68BE
:101760009A687B68DB6819461046FEF7FFFC034663
:1017700019462046FEF7B8FE034604491846FEF710
:10178000FFFD034618460C37BD4690BD0000C84219
:1017900080B483B000AF78607B685B6918460C3713
:1017A000BD4680BC70470000B0B58EB000AF164B90
:1017B00007F11C041D460FCD0FC495E8070084E80F
:1017C000070007F11C030021184602F054FB0246F3
:1017D0000E4B1A600E4B3C461D460FCD0FC495E8CC
:1017E000070084E807003B460021184602F043FB4F
:1017F0000246084B1A6001220749084802F02AFAFB
:1018000000BF3837BD46B0BD3C510008F002002093
:1018100064510008F402002016030020C4110020C7
:1018200080B596B000AF7860002387F8573007F195
:1018300008032C49184600F0DFFA2B4801F012F893
:1018400002222A49284801F06FF8284B1A6807F14C
:1018500008031146184600F0F1FA07F1080318468C
:10186000FFF7F1FE0246224B1A6007F10803184603
:10187000FFF78EFF02461F4B1A6007F10803184658
:1018800000F005FB02461C4B1A6007F108031846DE
:1018900000F0EEFA0246194B1A60184B1B68184903
:1018A0001846FEF71FFF0346002B17D097F8573056
:1018B000002B13D14FF47A724FF4FA71114800F0F3
:1018C000A9F9C8224FF47A710F4800F0A3F9192141
:1018D0000E4800F08FF9012387F85730642002F09A
:1018E000F2FAB2E733335340C0100020F802002070
:1018F0000003002004030020080300200C03002044
:10190000000020401803002030030020480300207E
:1019100080B582B000AF7860134800F003FB124836
:1019200000F0CAFA03461A46104B9A800F4B99886A
:101930000E4B5B881A460C4800F0CEFA03461A4656
:101940000A4B1A80094B9A88084B5A80084800F0C5
:101950007FF9084800F07CF9074800F079F90A207F
:1019600002F0B1FADBE700BF6003002010030020A3
:1019700018030020300300204803002080B582B007
:1019800000AF786001220449044802F063F900BF07
:101990000837BD4680BD00BF16030020C4110020DB
:1019A00080B582B000AF78607B681B68044A9342C0
:1019B00001D100F053FE00BF0837BD4680BD00BF17
:1019C000002C014080B582B000AF786039607B6840
:1019D000012B18D13B684FF6FF72934213D10023BD
:1019E00020221349134800F0B7F900234FF4806216
:1019F0001149124800F0B0F900234FF400620E497B
:101A00000F4800F0A9F97B68002B0DD13B684FF619
:101A1000FF72934208D10A4800F0CEF9074800F05F
:101A2000CBF9044800F0C8F900BF0837BD4680BDB7
:101A3000000801401803002000100140300300207E
:101A40004803002080B500AF4FF6FF710120FFF77B
:101A5000B9FF80BD80B500AF4FF6FF710020FFF7E2
:101A6000B1FF80BD80B582B000AF7860786800F0CB
:101A700026F87B6818460837BD4680BD80B582B021
:101A800000AF7860786800F03AF87B682C3318462D
:101A90000837BD4680BD80B582B000AF7860396040
:101AA0007B6893F8283019467B683A6843F8212010
:101AB000786800F054F800BF0837BD4680BD80B498
:101AC00085B000AF78607B68002283F828207B68AF
:101AD000002283F829200023FB73FB7B092B09DC00
:101AE000FA7B7B684FF0000143F82210FB7B013347
:101AF000FB73F2E700BF1437BD4680BC704780B56A
:101B000084B000AF78604FF00003FB600023FB72ED
:101B1000FB7A7A6892F8292093420DDAFA7A7B6888
:101B200053F822301946F868FEF722FB0346FB60A3
:101B3000FB7A0133FB72EBE77B6893F82930184698
:101B4000FEF7C6FB03461946F868FEF7CDFC0346D0
:101B50001A467B68DA6200BF1037BD4680BD80B48C
:101B600083B000AF78607B6893F829300A2B07D0E8
:101B70007B6893F829300133DAB27B6883F8292037
:101B80007B6893F82830092B04D17B68002283F806
:101B9000282007E07B6893F828300133DAB27B68AD
:101BA00083F8282000BF0C37BD4680BC704780B446
:101BB00083B000AF78607B68DB7C18460C37BD468D
:101BC00080BC7047B0B582B000AF78607B680122FE
:101BD0005A747B685C687B681D897868FFF7E7FF4B
:101BE00003461A462946204601F04CFA00BF083742
:101BF000BD46B0BD80B582B000AF78600B467B803B
:101C00007A887B881946786800F004F800BF0837A6
:101C1000BD4680BD80B582B000AF78600B467B804A
:101C200013463B807868FFF7CDFF7B6802225A7429
:101C30007B6801221A747B687A885A817B683A88AB
:101C40009A81786800F050F800BF0837BD4680BD23
:101C500090B583B000AF78607B685B7C022B18D1B5
:101C6000786800F01BF803461C46786800F062F8BC
:101C700003469C422CBF01230023DBB2002B08D07B
:101C8000786800F031F8786800F01EF8786800F0A5
:101C90003DF800BF0C37BD4690BD000080B582B056
:101CA00000AF7860074800F007F9034619467B68E3
:101CB000DB891A46034800F00FF903461846083737
:101CC000BD4680BD6003002080B582B000AF786063
:101CD0007B685A687B681B891946104601F0D7F962
:101CE00000BF0837BD4680BD80B582B000AF7860C8
:101CF000054800F0E1F803461A467B68DA8100BF28
:101D00000837BD4680BD00BF6003002080B483B0AB
:101D100000AF78607B681B7C002B03D17B680122BD
:101D20001A7402E07B6800221A7400BF0C37BD46AB
:101D300080BC704780B483B000AF78607B681B7C48
:101D4000002B02D17B689B8901E07B685B89184688
:101D50000C37BD4680BC704780B485B000AFF860DA
:101D6000B96011461A460B46FB8013467B71114A37
:101D7000FB681A60FB68BA685A60FB68FA881A81C7
:101D8000FB687A799A74FB689B7C002B06D0FB6811
:101D90000022DA74FB6801221A7505E0FB68012253
:101DA000DA74FB6800221A75FB6818461437BD46C2
:101DB00080BC70471452000880B483B000AF7860D4
:101DC000044A7B681A607B6818460C37BD4680BCA5
:101DD000704700BF1452000880B582B000AF786031
:101DE0007868FFF7E9FF1821786802F007FF7B6841
:101DF00018460837BD4680BD90B583B000AF786007
:101E000039607C680B493868FEF7B0F903461A461A
:101E10000C2339682046FFF72DFC074A7B681A60BF
:101E20007B681C331846FFF71DFE7B6818460C378D
:101E3000BD4690BD9A99993F8851000890B583B0EE
:101E400000AF786039607B6839681846FFF740FC5E
:101E50007B6803F11C047B681846FFF799FC034676
:101E600019462046FFF717FE00BF0C37BD4690BD50
:101E700080B582B000AF78607B681C331846FFF7EE
:101E8000FDFD03461B6818460837BD4680BD80B57A
:101E900084B000AF78607B681B681B6878689847DF
:101EA0000346FB607B68F9681846FFF74BFC034666
:101EB00018461037BD4680BD80B483B000AF78604F
:101EC000044B1B685B6A9BB218460C37BD4680BC4E
:101ED000704700BF7C11002080B485B000AF7860EF
:101EE0000B467B8013463B800023FB817A883B882E
:101EF0009A4204D97A883B88D31AFB8103E03A8856
:101F00007B88D31AFB817B68DB88FA899A4202D9E5
:101F1000FB89DB43FB81FB8918461437BD4680BC37
:101F20007047000080B582B000AF78607B681B7995
:101F3000002B05D1044801F0EBFB7B6801221A71EC
:101F400000BF0837BD4680BD7C11002080B483B03F
:101F500000AF7860074A7B681A607B6800221A71BC
:101F60007B6847F6FF72DA807B6818460C37BD46FF
:101F700080BC70472452000880B483B000AF786002
:101F8000044A7B681A607B6818460C37BD4680BCE3
:101F9000704700BF2452000880B582B000AF78605F
:101FA0007868FFF7E9FF0821786802F027FE7B6870
:101FB00018460837BD4680BD80B582B000AF786056
:101FC00039607B68012B07D13B684FF6FF72934263
:101FD00002D10948FFF7BAFF7B68002B07D13B68A5
:101FE0004FF6FF72934202D10348FFF7C5FF00BFCF
:101FF0000837BD4680BD00BF6003002080B500AF3C
:102000004FF6FF710120FFF7D7FF80BD80B500AF0D
:102010004FF6FF710020FFF7CFFF80BD19481A4B24
:1020200030B503604FF4807383604FF46023002465
:102030000125C361022385B00194029403940573C2
:1020400004754460036100F01FFD08B100F0B1F9B0
:10205000072301A90B4801940295039300F04CFB60
:1020600008B100F0A6F9012301930223029306238D
:1020700001A90448039300F03FFB08B100F099F96F
:1020800005B030BDC01000200024014030B5054629
:1020900087B01022002102A802F09FFF2A681C4B83
:1020A0009A4233D103F56C439A691A4842F400729C
:1020B0009A619A6902A902F400720092009A9A69E0
:1020C000154C42F004029A619B6903F004030193EA
:1020D000019B03230293039300F0F4FE8022E2604D
:1020E0004FF4807222614FF400620C4B62612360F6
:1020F0002022002320466360A360A261E36100F018
:1021000097FD08B100F055F92C62656207B030BD4B
:102110000024014000080140F010002008000240A7
:102120000A4B07B55A69052142F001025A615B6901
:10213000002203F0010301930B20019B00F036FD08
:102140000B2000F067FD03B05DF804FB00100240B7
:1021500080B485B000AFF860B9607A60FB68064A69
:102160001A60BB68054A1A607B6880221A6000BF4B
:102170001437BD4680BC70479C000020F000002052
:10218000B0B588B000AF0B4B3C1D1D460FCD0FC442
:1021900095E8070084E807003B1D0021184601F080
:1021A0006AFE0246044B1A60FFF7FEFA00BF2037B2
:1021B000BD46B0BDB85100089800002080B582B07F
:1021C00000AF7860012001F07EFEFBE710222DE9D0
:1021D000F04188B00DEB0200002102F0FEFE344B0E
:1021E000344F9A69344E42F010029A619A69384627
:1021F00002F010020092009A9A69202142F0200217
:102200009A619A69002402F020020192019A9A6967
:10221000022542F004029A619A694FF0010802F027
:1022200004020292029A9A6942F008029A619B693A
:10223000002203F008030393039B00F023FF002216
:1022400030464FF4406100F01DFF4FF400530493FB
:102250001A4B04A930460593069400F033FE0C2374
:1022600004A9384604930595079500F02BFE20231A
:1022700004A938460493CDF814800694079500F01D
:1022800021FE4FF4406304A930460493CDF8148036
:102290000694079500F016FE22460521282000F03E
:1022A00085FC282000F0B6FC08B0BDE8F08100BF36
:1022B0000010024000080140001001400000111011
:1022C00080B500AF00F0B8F900F00FF8FFF77EFF1F
:1022D000FFF726FFFFF7A2FE00F04EF900F002F92B
:1022E000FFF74EFF01F0C2FDFEE780B594B000AFEE
:1022F00007F1280328220021184602F06EFE07F19C
:10230000140300221A605A609A60DA601A613B1D59
:1023100000221A605A609A60DA600223BB620123CD
:10232000BB631023FB6302237B640023BB64002395
:10233000FB6407F12803184600F0C0FE0346002B9B
:1023400014BF01230023DBB2002B01D000F031F8D1
:102350000F237B610223BB610023FB614FF4806389
:102360003B6200237B6207F114030021184601F051
:102370007DF80346002B14BF01230023DBB2002BA2
:1023800001D000F016F802237B600023FB603B1DA8
:10239000184601F045F90346002B14BF0123002322
:1023A000DBB2002B01D000F004F800BF5037BD466F
:1023B00080BD80B400AF00BFBD4680BC7047000048
:1023C000114B07B59A690F2142F001029A619A698F
:1023D0006FF0010002F001020092009ADA6942F007
:1023E0008052DA61DB69002203F080530193019B84
:1023F00000F0DCFB054A536823F0E06343F0007310
:10240000536003B05DF804FB00100240000001407F
:1024100010B5014688B00022192000F0C7FB192032
:1024200000F0F8FB144B01A99A6903A842F400627A
:102430009A619B69114C03F400630293029B01F0C3
:10244000D1F801F0BFF80E4B236040F2E733E360B0
:102450000C4BB0FBF3F00023013860602046236191
:10246000A36001F083FA20B9204601F077F908B0A3
:1024700010BD0120FBE700BF001002403411002016
:10248000002C014040420F007047FEE7FEE7FEE7E8
:10249000FEE77047014800F081BC00BFF01000204B
:1024A000014801F089B900BF34110020014801F052
:1024B00035BC00BFC41100204FF4005000F0F2BD45
:1024C0000120704708B502F04BFD162303604FF062
:1024D000FF3008BD08B502F043FD16230360FEE798
:1024E000704700007FB51022002102A802F075FDA0
:1024F00041F63F7214481549002380E806004FF664
:10250000FF72009301938360C2600361836101F0F5
:102510002DFA08B1FFF74DFF4FF4805302A90A4886
:10252000029301F059FA08B1FFF743FF002369460F
:1025300005480093019301F0E3FA08B1FFF739FF72
:1025400007B05DF804FB00BF7C11002000080040CC
:102550000268084B82B09A420AD103F50233DA6965
:1025600042F00402DA61DB6903F004030193019B8A
:1025700002B070470008004008B54FF4E13E0A4839
:102580000A4B0C2280E80840002342618360C3604C
:1025900003618361C36101F02FFB18B1BDE80840FE
:1025A000FFF707BF08BD00BFC4110020004800406E
:1025B00010B5044686B01022002102A802F00DFDDD
:1025C00022681B4B9A4230D103F5E433DA6902A941
:1025D00042F48022DA61DA69164802F4802200921D
:1025E000009A9A69002442F008029A619B6903F0FC
:1025F00008030193019B4FF480630293022303932A
:102600000323059300F05EFC4FF4006302A9094820
:1026100002930394049400F055FC272022460521E0
:1026200000F0C4FA272000F0F5FA06B010BD00BF94
:1026300000480040000C0140074A08B51368032019
:1026400043F01003136000F09FFA0020FFF7E0FE54
:10265000FFF7B6FE002008BD00200240034A044BED
:1026600011681B780B441360704700BF04120020F0
:1026700004000020014B1868704700BF04120020BE
:102680007047436A10B59A6A12F0500F1BD19A6ACC
:1026900042F400729A621A68926802F46022B2F5FB
:1026A000602F0CD11A7B52B99A6A22F480729A6216
:1026B0009A6AD2045EBF9A6A42F001029A62184690
:1026C000FFF7DEFF10BD1B6ABDE810401B6B18470B
:1026D000704708B5406AFFF7FBFF08BD7047406AC6
:1026E00008B5836A43F040038362C36A43F004037E
:1026F000C362FFF7F3FF08BD002373B5019390F8A1
:102700002430012B6DD001234D6880F82430062D34
:10271000026805EB85030C6823D81F26556B053B23
:102720009E4025EA060504FA03F32B435363092C64
:102730008B6804EB44054FF007012AD9D6681E3D8B
:10274000A94026EA0101AB400B43D360A4F110037A
:10275000012B26D90023002280F82420184602B03D
:1027600070BD0C2D4FF01F0509D8166B233B9D4003
:1027700026EA050504FA03F32B431363D7E7D66A69
:10278000413B9D4026EA050504FA03F32B43D3623F
:10279000CDE71669A94026EA0101AB400B4313615E
:1027A000D4E7114B9A4216D193681B02D2D4936896
:1027B000102C43F400039360CCD10C4B0C4A1B68E3
:1027C000B3FBF2F20A2353430193019B002BC1D0C8
:1027D000019B013BF8E7836A43F0200383620123F6
:1027E000B9E70223BAE700BF00240140000000203F
:1027F00040420F00002373B50193036804469A68B2
:10280000D20702D5002002B070BD9A6842F00102E2
:102810009A60124B124A1B68B3FBF2F30193019BBF
:10282000C3B9FFF727FF064623689D6815F0010529
:10283000E8D1FFF71FFF801B0228F5D9A36A84F8AF
:10284000245043F01003A362E36A012043F0010324
:10285000E362D8E7019B013BE0E700BF00000020F6
:1028600040420F0090F8243010B5012B044654D09C
:10287000012380F82430FFF7BDFF002849D1A36A67
:10288000274A23F4407323F0010343F48073A362C7
:102890002368934204D123494A6812F4702F2ED141
:1028A000A26A22F48012A2625A68520541BFA26A4B
:1028B00022F4405242F48052A262A26A12F4805280
:1028C0001CBFE26A22F00602E262002284F82420A1
:1028D0006FF002021A609A6802F46022B2F5602F6B
:1028E00013D10F4A934205D1A2F58062526812F4C7
:1028F000702F0AD19A6842F4A0029A6010BDA26AB1
:1029000042F48012A2624A68CFE79A6842F48012C9
:10291000F3E7002384F82430F0E70220EEE700BF5D
:1029200000280140002401402DE9D8419046404B49
:10293000026804469A420F4602D03E498A4203D1B9
:102940005B6813F4702F6ED194F82430012B6CD097
:102950000123204684F82430FFF74CFF0646002868
:102960005DD1A06A216820F47060324B20F0010034
:1029700040F480709942A06204D12D4A536813F448
:10298000702F3ED1A36A23F48013A3624B685A05CB
:1029900005D5A36A23F4405343F48053A362A36A8A
:1029A000206A13F4805318BFE36A3A4618BF23F035
:1029B0000603E362002384F824301F4B4C3183620A
:1029C0001E4BC3621E4B03636FF0020341F84C3C85
:1029D00051F8443C43F4807341F8443C434600F0D2
:1029E00057F923689A6802F46022B2F5602F9A685A
:1029F0000CBF42F4A00242F480129A603046BDE857
:102A0000D881A36A43F48013A36253685B0541BF76
:102A1000A06A20F4405040F48050A062BFE7002339
:102A200084F82430EAE70126E8E70226E6E700BF5B
:102A3000002401400028014083260008D326000816
:102A4000DF26000838B5036804469A68D20701D427
:102A5000002038BD9A6822F001029A60FFF70AFE52
:102A6000054623689B68DB07F2D5FFF703FE401B92
:102A70000228F6D9A36A012043F01003A362E36A97
:102A800043F00103E362E4E770B50446002870D028
:102A9000836A23B9C36280F82430FFF7F7FA20462F
:102AA000FFF7D0FFA36A13F0100FA36A63D10028C9
:102AB00061D1E16923F48853626823F0020343F093
:102AC00002030A43A168A362237BB1F5807F42EA37
:102AD000430237D0012914BF06464FF48076257D86
:102AE000012D06D183BBA369013B46EA433545F47A
:102AF00000662368B1F5807F5D6825F4694545EA85
:102B000006055D609E681E4D05EA060545EA02055C
:102B10009D6001D0012920D1216901390905DD6AB3
:102B200025F470052943D9629968164B0B409A42E7
:102B300015D10023E362A36A23F0030343F00103EA
:102B4000A36270BD0E46CAE7A36A43F02003A362E6
:102B5000E36A43F00103E362CBE70021DFE7A36A06
:102B600023F0120343F01003A362E36A43F001036E
:102B7000E3620120E5E743F01003A362F9E700BF39
:102B8000FDF7E1FFFE0E1FFF074A0002D36800F4C5
:102B9000E06023F4E0631B041B0C43F0BF6343F4C9
:102BA00000330343D360704700ED00E0174B70B56E
:102BB000DC684FF0FF36C4F30224C4F10705042D8E
:102BC00004F1040328BF0425062B98BF002406FA4D
:102BD00005F388BF033C21EA0303A34006FA04F48B
:102BE00022EA0404002843EA0403A8BF00F160407D
:102BF0004FEA0313B8BF064ADBB2ABBF00F5614032
:102C000000F00F0080F80033135470BD00ED00E0B9
:102C100014ED00E0002808DB0123420900F01F004A
:102C200003FA00F0014B43F82200704700E100E096
:102C300010B530B314220168134B0B44B3FBF2F30D
:102C40009B000364114B0A68C363D0E9013423433A
:102C5000C46822F47F522343046922F030022343E4
:102C60004469234384692343C469234313430B60AA
:102C70000122002380F82120836380F82030184649
:102C800010BD0120FCE700BFF8FFFDBF00000240BF
:102C9000F0B590F82040012C35D0012490F8215057
:102CA00080F82040A5424FF000064FF0020428D1E2
:102CB00080F8214004688663266826F001062660B5
:102CC000D0E90F67BD407560636043680568102BED
:102CD000C36A0BBFA260A160E160E2604BB12368F0
:102CE00043F00E03002023602B6843F001032B60A8
:102CF000F0BD236823F004032360236843F00A0334
:102D0000F0E780F820600220F2E7000090F8213020
:102D100010B5022B03D004238363012010BD036888
:102D20001A6822F00E021A601A6822F001021A6074
:102D3000184A93421FD0143293421ED01432934249
:102D40001DD0143293421DD0143293421DD0143240
:102D500093420CBF4FF480134FF080730E4A00244F
:102D60005360012380F82130436B80F820407BB111
:102D700098472046D2E70123F0E71023EEE74FF40F
:102D80008073EBE74FF48053E8E74FF48033E5E7D7
:102D90001846C3E7080002400000024070B4042552
:102DA000C66B026C3468036895402542196832D0BE
:102DB0004D0730D51A6896065EBF1A6822F00402E5
:102DC0001A603E4A934219D01432934218D01432FA
:102DD000934217D01432934217D01432934217D033
:102DE000143293420CBF4FF480034FF08063344A97
:102DF0005360C36A002B5ED070BC18470423F6E70B
:102E00004023F4E74FF48063F1E74FF48043EEE7AB
:102E10004FF48023EBE702259540254235D08D07FE
:102E200033D51A68940606D41A6822F00A021A608A
:102E3000012280F82120214A934219D01432934272
:102E400018D01432934217D01432934217D0143250
:102E5000934217D0143293420CBF4FF400134FF03B
:102E60000073174A5360002380F82030836AC1E75B
:102E70000223F6E72023F4E74FF40073F1E74FF461
:102E80000053EEE74FF40033EBE708259540254269
:102E900011D009070FD5196821F00E01196001231F
:102EA00003FA02F27260836380F82130002380F815
:102EB0002030036B9EE770BC704700BF08000240E3
:102EC000000002402DE9F74F00242646654BDFF84D
:102ED000A4C1DFF8A4E10A6832FA06F502D103B012
:102EE000BDE8F08F4FF0010808FA06F802EA080280
:102EF00090457ED14D68122D00F0A98000F28280AD
:102F0000022D00F0A18076D8002D00F08880012DE0
:102F100000F098804FF00F09FF2A93BF824606F118
:102F20008045083DD0F800B092BFB500D0F804B09D
:102F3000AD0009FA05F82BEA080804FA05F588BF80
:102F400000F1040A48EA0505CAF80050D1F804A0C7
:102F50001AF0805F4DD0444F26F00308BD6908F198
:102F6000804845F00105BD61BD6908F5803805F070
:102F70000105019506F0030B019D4FEA8B0BD8F874
:102F8000085009FA0BF925EA0909384DA84263D01F
:102F900005F58065A84261D005F58065A8425FD03F
:102FA00005F58065A8420CBF0325042505FA0BF53D
:102FB00045EA0905C8F808501D681AF4803F14BF97
:102FC000154395431D605D681AF4003F14BF154317
:102FD00095435D609D681AF4801F14BF15439543A7
:102FE0009D60DD681AF4001F14BF2A4325EA02021F
:102FF000DA6001366FE7032D22D0112D8AD1CC681B
:10300000043487E71A4FBD4209D012D8DFF86C901C
:103010004D4504D009F580394D457FF47BAF8C6870
:10302000C4B1012C0CBFC0F81080C0F81480082473
:1030300070E76545F3D07545F1D0DFF84490EBE7D4
:10304000002467E7CC6865E7CC68083462E7CC68A1
:103050000C345FE704245DE70025A7E70125A5E719
:103060000225A3E7000401400010024000080140CF
:10307000000021100000311000003210000011107B
:10308000000022100AB1016170470904FBE7C36820
:1030900001EA030221EA030141EA024101617047AA
:1030A0007047000008B5044B5969014202D05861CD
:1030B000FFF7F6FF08BD00BF000401402DE9F34112
:1030C000054608B901203CE00368DB0710D42B68F3
:1030D0009F075DD42B68190700F194802B685A076D
:1030E00000F1BE80E869002840F02C81002028E033
:1030F0008F4C636803F00C03042B07D0636803F064
:103100000C03082B09D16368DE0306D523689C03F2
:10311000DDD56B68002BDAD1D4E76B68B3F5803F5F
:1031200012D1236843F480332360FFF7A3FA0646E5
:1031300023689803CBD4FFF79DFA801B6428F7D946
:10314000032002B0BDE8F0819BB9236823F48033EB
:103150002360236823F480232360FFF78BFA06465D
:1031600023689903B3D5FFF785FA801B6428F7D944
:10317000E6E7B3F5A02F236803D143F4802323604F
:10318000CFE723F480332360236823F48023CBE745
:10319000674C636813F00C0F07D0636803F00C03EF
:1031A000082B10D16368DA030DD423689B0702D57E
:1031B0002B69012B86D123686A6923F0F80343EA5F
:1031C000C203236086E72A695A4B6AB101221A605A
:1031D000FFF750FA064623689F07ECD4FFF74AFA38
:1031E000801B0228F7D9ABE71A60FFF743FA0646BF
:1031F000236898077FF56EAFFFF73CFA801B022823
:10320000F6D99DE7AA694A4C4B4BDAB101221A6004
:10321000FFF730FA0646636A9B070DD54FF4FA5262
:10322000464B1B68B3FBF2F3019300BF019B5A1E90
:103230000192002BF9D151E7FFF71CFA801B0228FD
:10324000E9D97DE71A60FFF715FA0646636A9F071A
:103250007FF544AFFFF70EFA801B0228F6D96FE71F
:10326000334CE369D80024D40127E36943F0805349
:10327000E361E36903F080530093009B304E3368B1
:10328000D90518D5EB68012B26D1236A43F0010339
:103290002362FFF7EFF941F288368046236A9B07E5
:1032A0003FD5002F3FF41EAFE36923F08053E36165
:1032B00018E70027E2E7336843F480733360FFF7D1
:1032C000D9F980463368DA05DCD4FFF7D3F9A0EBEF
:1032D00008006428F6D933E7ABB9236A41F288388D
:1032E00023F001032362236A23F004032362FFF720
:1032F000C1F90646236A9807D3D5FFF7BBF9801BAF
:103300004045F7D91CE7052B236A03D143F004039A
:103310002362BAE723F001032362236A23F0040344
:10332000B6E7FFF7A7F9A0EB0800B042B6D907E768
:10333000001002400000424280044242000000208F
:10334000007000402A4B5A681C4602F00C02082A02
:103350003DD00023274E022833602BD1FFF78AF996
:103360000746236899011FD42B6AB3F5803F05D126
:103370006268A96822F400320A436260696A62687E
:103380000B4322F474121343636001233360FFF78D
:1033900071F9054623689A013FF5A8AEFFF76AF96F
:1033A000401B0228F6D9CBE6FFF764F9C01B0228C0
:1033B000D7D9C5E6FFF75EF9054623689B017FF57F
:1033C00095AEFFF757F9401B0228F6D9B8E6012859
:1033D0003FF4B7AE58682B6A00F480329A427FF40B
:1033E00071AE6B6A00F47010C01A18BF0120A8E615
:1033F000001002406000424230B5184B87B002AC6A
:1034000003F11005224618685968083303C2AB421D
:103410001446F7D140F201231149ADF804304B684E
:1034200003F00C02082A17D1C3F3834206A8024412
:10343000DB0312F8102C0CD54B680A48C3F3404349
:10344000504306AA134413F8143CB0FBF3F007B042
:1034500030BD05485043FAE70248F8E7D451000868
:103460000010024000127A0000093D002DE9F041F1
:103470000D46044610B90120BDE8F081444A1368A6
:1034800003F007038B4228D321688E0730D4CA0784
:1034900043D43F4A136803F00703AB4265D8226860
:1034A0003C4D12F0040F6CD1130706D56B682269EE
:1034B00023F4605343EAC2036B60FFF79DFF6B6820
:1034C000354AC3F30313D35CD840344B1860344BF4
:1034D0001868FEF79DFF0020CEE7136823F007036E
:1034E0000B431360136803F007038B42C3D1CBE790
:1034F000284B11F0040F1EBF5A6842F4E0625A6074
:10350000080742BF5A6842F460525A605A68A0687D
:1035100022F0F00202435A60B9E762681D4E012AA8
:1035200033681AD113F4003FA5D0736841F288388C
:1035300023F0030313437360FFF79CF80746736897
:10354000626803F00C03B3EB820FA2D0FFF792F88E
:10355000C01B4045F3D903208EE7022A02D113F0A5
:10356000007FE1E713F0020FDEE7136823F00703A3
:103570002B431360136803F00703AB427FF47BAF68
:103580008DE76B68E16823F4E0630B436B608BE7C6
:1035900000200240001002402C52000800000020D1
:1035A00008000020044B054A5B68C3F30223D35C88
:1035B000034A1068D8407047001002403C5200088F
:1035C00000000020044B054A5B68C3F3C223D35CB0
:1035D000034A1068D8407047001002403C5200086F
:1035E000000000200F2303600B4B5A6802F0030217
:1035F00042605A6802F0F00282605A6802F4E062A7
:10360000C2605B68DB0803F4E0630361034B1B6883
:1036100003F007030B6070470010024000200240D7
:1036200003682DE9F341D907054620D5354CE369F8
:10363000DA0032D40127E36943F08053E361E369A0
:1036400003F080530193019B2F4E3368DB0526D591
:10365000236A13F4407336D1236A6A6823F44073F3
:10366000134323621FB1E36923F08053E3612868A9
:10367000830706D5234AA968536823F440430B43C4
:10368000536010F010001BD01E4AE96853680020F8
:1036900023F480030B43536012E00027D4E7336820
:1036A00043F480733360FEF7E5FF80463368D80546
:1036B000CED4FEF7DFFFA0EB08006428F6D9032084
:1036C00002B0BDE8F0816A6802F440729A42C3D049
:1036D00001200E4A236A1060002023F4407110601C
:1036E0002162D907B8D5FEF7C5FF41F288380646F2
:1036F000236A9A07B0D4FEF7BDFF801B4045F7D977
:10370000DDE700BF0010024000700040400442426C
:1037100090F83D30012B1CD102230F4A80F83D3038
:10372000036893420AD0B3F1804F07D0A2F59432D8
:10373000934203D002F58062934204D19A6802F06A
:103740000702062A03D01A6842F001021A6000201C
:1037500070470120704700BF002C014090F83D30B9
:10376000012B20D1022380F83D300368DA6842F053
:103770000102DA600D4A93420AD0B3F1804F07D0BC
:10378000A2F59432934203D002F58062934204D1B1
:103790009A6802F00702062A03D01A6842F0010272
:1037A0001A60002070470120704700BF002C0140C4
:1037B0007047704770477047036810B51A69044630
:1037C00091070ED5DA6892070BD56FF002021A61E5
:1037D00001229B6902779B0777D0FFF7EAFF00235E
:1037E000237723681A69500710D5DA6851070DD579
:1037F0006FF004021A6102229B69227713F4407F62
:10380000204668D0FFF7D5FF0023237723681A6985
:1038100012070FD5DA6810070CD56FF008021A618D
:103820000422DB692277990720465AD0FFF7C1FFAF
:103830000023237723681A69D20610D5DA68D006E8
:103840000DD56FF010021A610822DB69227713F49C
:10385000407F20464BD0FFF7ACFF0023237723683F
:103860001A69D10708D5DA68D20705D56FF00102C9
:1038700020461A61FEF794F823681A69100608D5E5
:10388000DA68110605D56FF0800220461A6100F053
:103890006AF923681A69520608D5DA68500605D510
:1038A0006FF0400220461A61FFF785FF23681A690E
:1038B000910622D5DA6892061FD56FF020022046C5
:1038C000BDE810401A6100F04DB9FFF771FF2046C6
:1038D000FFF770FF83E7FFF76BFF2046FFF76AFFF4
:1038E00092E7FFF765FF2046FFF764FFA0E7FFF7C9
:1038F0005FFF2046FFF75EFFAFE710BD1A4A03687F
:1039000090420AD0B0F1804F07D0A2F59432904295
:1039100003D002F58062904215D14A6823F070030B
:103920001343114A90420AD0B0F1804F07D0A2F55C
:103930009432904203D002F58062904203D1CA686B
:1039400023F4407313434A6923F080031343036055
:103950008B68C3620B688362034B984204BF0B6998
:103960000363012343617047002C014010B50446F6
:1039700030B390F83D3003F0FF021BB980F83C20D3
:10398000FEF7E6FD0223206884F83D30211DFFF795
:10399000B5FF0123002084F8463084F83E3084F8D7
:1039A0003F3084F8403084F8413084F8423084F865
:1039B000433084F8443084F8453084F83D3010BDFD
:1039C0000120FCE710B584680A4324F47F4442EAEE
:1039D00003232343836010BD90F83C3070B5012B66
:1039E00004464FF0020019D0012384F83D002068FE
:1039F00084F83C30836823F47F4323F077038360AB
:103A00000B68402B65D015D8102B0CD007D853B1BC
:103A10000123002084F83D3084F83C0070BD202B49
:103A200001D0302BF4D1826843F0070322F07002FA
:103A300013431AE0602B34D019D8502BE8D14A68D0
:103A4000CE68016A056A21F00A0125F001050562C8
:103A500083690A4323F0F00343EA06138361026299
:103A6000836823F0700343F057038360D0E7702B23
:103A70000CD0B3F5005FCBD1CB68D1E90121FFF7C2
:103A8000A1FF2268936843F4804308E0CB68D1E942
:103A90000121FFF797FF2268936843F07703936053
:103AA000B6E74D68CE68016A21F0100101628269B3
:103AB000036A22F4704223F0A00343EA051342EAAA
:103AC000063282610362836823F0700343F0670368
:103AD000CBE74A68CE68016A056A21F00A0125F041
:103AE0000105056283690A4323F0F00343EA0613E4
:103AF00083610262836823F0700343F04703B4E7F5
:103B000090F83C3030B5012B4FF0020325D0012254
:103B100080F83D3003680D685C6880F83C2024F034
:103B200070042C439A685C600D4CA3420AD0B3F138
:103B3000804F07D0A4F59434A34203D004F58064E9
:103B4000A34204D1496822F080020A439A6001230B
:103B500080F83D30002380F83C30184630BD00BF6F
:103B6000002C0140704770470368DA6822F49072B5
:103B7000DA605A6922F001025A61202380F83A3053
:103B80007047000010B504460368C1681A6922F442
:103B900040520A431A6182680069D9680243606929
:103BA00021F4B05121F00C0102430A43DA605A6952
:103BB000A16922F440720A435A610E4A934215D118
:103BC000FFF700FD19235843636864229B00B0FB94
:103BD000F3F0B0FBF2F102FB11031B013233B3FB34
:103BE000F2F3246803EB0113A36010BDFFF7DAFCC6
:103BF000E8E700BF0038014010B5044640B390F834
:103C0000393003F0FF021BB980F83820FEF7D0FCF2
:103C10002423226884F83930D368204623F40053E3
:103C2000D360FFF7AFFF236800201A6922F49042A7
:103C30001A615A6922F02A025A61DA6842F4005283
:103C4000DA602023E06384F8393084F83A3010BD1C
:103C50000120FCE790F83A30202B20D1E9B1E2B105
:103C600090F83830012B1AD0C28582850023222299
:103C7000C36380F83A2002688162D16880F83830E6
:103C800041F48071D1605169184641F001015161E0
:103C9000D16841F02001D1607047012070470220B7
:103CA0007047704790F83A3010B5222B32D18168B6
:103CB000836AB1F5805F026820D1016909BB52684F
:103CC000C2F3080223F8022BC48D8362013CA4B224
:103CD000C4858CB90368DA6822F02002DA60DA68F9
:103CE00022F48072DA605A6922F001025A612023BC
:103CF00080F83A30FDF742FE00200CE031B901694E
:103D000021B952681A70836A0133DDE7526802F004
:103D10007F02F7E7022010BD70470000036870B50E
:103D20001A6804461607D9685D6907D196065AD500
:103D30008D0658D5BDE87040FFF7B4BF15F00105FA
:103D400002D111F4907F4ED0D00705D5CB0542BFEC
:103D5000E36B43F00103E363560704D51DB1E36B46
:103D600043F00203E363900704D51DB1E36B43F016
:103D70000403E363130706D58E0600D41DB1E36B7D
:103D800043F00803E363E36B43B3950604D5880669
:103D900002D52046FFF786FF236820465D69E26B67
:103DA000110702D415F0400519D0FFF7DDFE236896
:103DB0005A6952060FD55A69606B22F040025A6167
:103DC00048B1254B4363FEF7A1FF38B1606BBDE8F6
:103DD0007040436B18472046FFF79EFF70BDFFF70A
:103DE0009BFFE563FAE7160626D50D0624D594F861
:103DF0003920212AF2D1A168226AB1F5805F16D15B
:103E00002169A1B932F8021BC1F30801596022628D
:103E1000E28C013A92B2E284002ADFD1DA6822F021
:103E20008002DA60DA6842F04002DA60D6E7511CBC
:103E3000216212785A60EBE75006CFD54A06CDD5FD
:103E4000DA68204622F04002DA60202384F8393014
:103E5000FFF727FFC2E700BF5D3E000808B500235B
:103E6000406AC385C384FFF757FF08BD08B500F05B
:103E70003DFA002008BD70B5054646690B46D0E9FD
:103E8000001086B02A69B5F9084076B1AD6965B110
:103E9000842C0CBF00240334CDE90165009400F0AC
:103EA000C1F90590059806B070BD842C0CBF0024A4
:103EB000033405AD92B2CDE9004500F0EAF90128DE
:103EC000F0D00020EFE708B5002808BF012000F07F
:103ED00053FB002008BD4FF0FF3200F108034360A0
:103EE000C0E90223036100230360704700230361DC
:103EF000704743689A684B608A609A68516099601D
:103F0000036808610133036070470A6830B5531CC9
:103F10000AD103695A684A6091608B6059600368EE
:103F200008610133036030BD00F108035C68256857
:103F30009542EFD82346F9E70369D0E901128A6078
:103F4000826851605968814208BF5A60002202614C
:103F50001A68013A1A601868704700002DE9F041AC
:103F6000064600F0BFFB2E4B2E4C1A682E4F013236
:103F70001A602568002D48D126601B68012B1FD1CF
:103F80004FF0140808FB05700135FFF7A4FF072D5B
:103F9000F8D1DFF8C080254D4046FFF79CFF28464A
:103FA000FFF799FF2248FFF796FF2248FFF793FF9C
:103FB0002148FFF790FF214BC3F80080204B1D6084
:103FC000204A214913680868013313600123F26A0B
:103FD0009340034314200B6000FB0270311DFFF778
:103FE00088FF00F0A1FB194B1B6863B12368DA6AF4
:103FF000F36A9A4207D24FF08052154B1A60BFF312
:104000004F8FBFF36F8FBDE8F081104B1B68002B03
:10401000D6D12368DA6AF36A9A4298BF2660CFE75E
:104020000004002068030020740300202C040020FA
:104030004804002074040020600400206C03002069
:104040007003002010040020140400205C040020F1
:1040500004ED00E01804002010B590F8513004463B
:104060003BB9006B00F0D0FC2046BDE8104000F0EA
:10407000CBBC012BF9D0022B08D04FF0500383F3B7
:104080001188BFF36F8FBFF34F8FFEE710BD0000A5
:1040900080B5DFF85C80124F124C134D236863B972
:1040A000124B1B68012BF8D94FF08053C8F8003031
:1040B000BFF34F8FBFF36F8FEEE700F013FBFB688A
:1040C000DE68301DFFF738FF2B68013B2B6023684B
:1040D000013B236000F028FB3046FFF7BDFFDDE722
:1040E0007404002004040020000400207403002055
:1040F00004ED00E0064A13681968064B19B94FF041
:10410000FF321A6070471268D268D2685268F8E7C6
:104110006C030020400400202DE9F0478146DDE9D2
:10412000098402F18042266B013A06EB82069A4628
:1041300026F007064B1E04F134020F3113F8010F6D
:1041400002F8010B187808B18B42F7D1089D0027BF
:10415000062D28BF0625201DE562C4E9115784F805
:104160004370FFF7C3FEC5F1070504F11800FFF720
:10417000BDFEE7642461A561646284F85070524614
:104180004946304600F086FA2060B8F1000F01D0B1
:10419000C8F80040BDE8F087F8B51B4B1B4E1C6803
:1041A000054630680F460430FFF7C6FE334640B977
:1041B00001203168164EC96A3268884022EA00023E
:1041C00032606A1C07D137B1196812480431BDE862
:1041D000F840FFF78EBE1A686419546007D30E4A80
:1041E00010681968BDE8F8400431FFF78EBE0B4A2D
:1041F000106819680431FFF788FE094B1A68A2425B
:1042000088BF1C60F8BD00BF880400206803002040
:104210001404002060040020700300206C030020C0
:104220004004002070B586B0DDE90B5445B94FF06D
:10423000500383F31188BFF36F8FBFF34F8FFEE7F7
:1042400044B94FF0500383F31188BFF36F8FBFF36E
:104250004F8FFEE754260496049E542E08D04FF04C
:10426000500383F31188BFF36F8FBFF34F8FFEE7C7
:104270002563022584F8515005AD01950A9D0294ED
:104280000095FFF749FF2046FFF768FE059806B046
:1042900070BD2DE9F043074685B09000884616466C
:1042A000994600F025FB0546E8B1542000F020FBBC
:1042B0000446A8B1002380F851300D9B056301939B
:1042C0000C9B0290009332464B4641463846FFF71E
:1042D00023FF2046FFF742FE012005B0BDE8F08332
:1042E000284600F091FB4FF0FF30F6E710B50024B0
:1042F00088B007AA06A905A8CDE90544FDF728FF5F
:10430000059B079A0293069B0E49CDE900430E4890
:104310002346FFF787FF90B14FF0500383F31188D6
:10432000BFF36F8FBFF34F8F4FF0FF32074B1A6011
:104330000122074B1A60074B1C6000F05BFA08B0C3
:1043400010BD00BF44520008914000084004002006
:104350005C04002088040020024A136801331360C3
:10436000704700BF0C0400202DE9F84F3C4B1B6840
:10437000002B6ED13B4B1C6801341C60BCB93A4B1E
:104380001A68126842B14FF0500383F31188BFF3EB
:104390006F8FBFF34F8FFEE7344A196810681860BB
:1043A0001160334A136801331360FFF7A3FE314DE8
:1043B0004FF0000B2B68304FA34211D93A682F4BB6
:1043C000D16A14224A439A58022A28BF4FF0010B9F
:1043D0002B4A1268002A0CBF58460120BDE8F88F0E
:1043E000DFF884A0DFF8A090DAF8002012681AB98C
:1043F0004FF0FF322A60E1E7DAF80020D268D66891
:1044000071688C4201D22960D8E706F10408404661
:10441000FFF792FDB16A19B106F11800FFF78CFDA4
:1044200001224FF0140CF06AD9F8003002FA00F1C2
:104430001943124BC9F800100CFB00304146FFF73E
:1044400058FD3868F16AC26A914228BF4FF0010BEB
:10445000CAE70C4A4FF0000B136801331360B7E74B
:104460000C040020880400206C030020700300204E
:10447000440400204004002068030020740300204E
:104480008C04002008040020140400202DE9F843C7
:10449000304C236843B94FF0500383F31188BFF3C6
:1044A0006F8FBFF34F8FFEE700F01CF92368013BCD
:1044B000236024682CB1002400F036F92046BDE8C2
:1044C000F883254B1B68002BF5D0244D244EDFF8D4
:1044D000A4801FE0EB680127DC6804F1040904F103
:1044E0001800FFF729FD4846FFF726FD1420E26A71
:1044F000316807FA02F30B4300FB02804946336040
:10450000FFF7F7FC174BE26A1B68DB6A9A4201D39C
:10451000154B1F602B68002BDCD10CB1FFF7EAFDB7
:10452000124D2C6844B101270F4EFFF71DFF00B15B
:104530003760013CF9D12C600B4B1B68002BBAD0C3
:104540004FF080520A4B1A60BFF34F8FBFF36F8F4B
:104550000124B1E70C0400200004002048040020DE
:1045600014040020680300208C04002008040020AC
:1045700004ED00E07403002008B540B94FF080520C
:104580000D4B1A60BFF34F8FBFF36F8F08BD0B4BFE
:10459000196841B14FF0500383F31188BFF36F8F57
:1045A000BFF34F8FFEE7FFF7D7FEFFF7F5FDFFF7ED
:1045B0006DFF0028E2D0E9E704ED00E00C040020E4
:1045C000174B10B51A68174B12B101221A6010BDB3
:1045D0001A60154B1B68B3FA83F31422DBB2C3F1E4
:1045E0001F035A4311498C58881844B94FF050039F
:1045F00083F31188BFF36F8FBFF34F8FFEE74468DB
:10460000083264680A44944208BF6268446008BF84
:104610004260142202FB03135B68DA68044BD5E79F
:104620000C0400208C0400201404002074030020DB
:1046300068030020002382B001930D4B1B680133F7
:1046400008D04FF0500383F31188BFF36F8FBFF38F
:104650004F8FFEE74FF0500383F31188BFF36F8F46
:10466000BFF34F8F019B002BFCD002B0704700BFFF
:104670000C00002006480068006880F3088862B6D5
:1046800061B6BFF34F8FBFF36F8F00DF00BF000035
:1046900008ED00E04FF0807340F8043C054B21F03A
:1046A000010140F8081C40F80C3C40F8202C403830
:1046B000704700BF35460008000000000000000001
:1046C000074B19680868B0E8F00F80F30988BFF35A
:1046D0006F8F4FF0000080F311884EF00D0E704781
:1046E000680300204FF0500383F31188BFF36F8FEE
:1046F000BFF34F8F0A4A13680133012B13600DD1AA
:10470000084B1B6813F0FF0F08D04FF0500383F3E2
:104710001188BFF36F8FBFF34F8FFEE7704700BF65
:104720000C00002004ED00E0084A136843B94FF084
:10473000500383F31188BFF36F8FBFF34F8FFEE7F2
:10474000013B13600BB983F3118870470C00002004
:10475000EFF30980BFF36F8F0D4B1A6820E9F00F5C
:1047600010602DE908404FF0500080F31188FFF7EA
:1047700027FF4FF0000080F31188BDE8084019685A
:104780000868B0E8F00F80F30988BFF36F8F7047B7
:104790006803002008B54FF0500383F31188BFF37E
:1047A0006F8FBFF34F8FFFF7DFFD18B14FF08052CF
:1047B000024B1A60002383F3118808BD04ED00E06A
:1047C0000023084A084913600B604FF47A71074BC5
:1047D0001B68B3FBF1F30649013B0B600723136031
:1047E000704700BF10E000E018E000E0000000208B
:1047F00014E000E013B5274B00211A78D2B20192E1
:10480000FF221A701B78244ADBB28DF803309DF822
:10481000033003F0500313700722204B1A609DF8F9
:104820000300541E00060DD401B11A601A68032A51
:1048300011D04FF0500383F31188BFF36F8FBFF394
:104840004F8FFEE79DF8032001215200D2B28DF870
:1048500003202246E3E70024120202F4E0621A6019
:10486000019B0C4ADBB213700D4B1A6842F47002C4
:104870001A601A6842F070421A60FFF7A1FF094BF4
:104880001C60FFF7F7FEFFF79BFEFFF7D3FE204605
:1048900002B010BD00E400E0900400209404002069
:1048A00020ED00E00C00002010B50F4B1A6882428A
:1048B00018D35C681919884201BF41681846091964
:1048C0005960446801198A4207D1084909688A4237
:1048D0001FBF51681268091941609842026018BFF1
:1048E000186010BD1346E1E7A810002098040020CE
:1048F0002DE9F0410446FFF72FFD3D493D4D0B6882
:10490000FBB93D4A0020560702F540630FBF4FF444
:104910004063073222F007029B1A1344374E083BCC
:1049200023F0070370603260C3E90000981A0B603F
:10493000C2E90030324B1860324B18604FF0004330
:104940002B602F6827424DD1002C3ED004F1080384
:1049500058071CBF23F007030833002B42D0294A15
:10496000166890469E423DD3244A1568686898426E
:1049700001D22C68A4B90968A94233D02968146807
:104980001160C21A102A12D9E81841070BD04FF053
:10499000500383F31188BFF36F8FBFF34F8FFEE790
:1049A0002A462546E2E742606B60FFF77DFF6B68B1
:1049B0001349F61A1F4300230868C8F800608642AE
:1049C00038BF0E6008346F602B60FFF75FFD630730
:1049D0000AD04FF0500383F31188BFF36F8FBFF3FA
:1049E0004F8FFEE70024F0E72046BDE8F08100BFCE
:1049F000980400209C1000209C040020A810002097
:104A0000A4100020A010002010B5044670B3184A6E
:104A100050F8043C1268134208D14FF0500383F35E
:104A20001188BFF36F8FBFF34F8FFEE750F8081C5C
:104A300041B14FF0500383F31188BFF36F8FBFF381
:104A40004F8FFEE723EA020340F8043CFFF784FCA3
:104A5000084A54F8043C1168A4F108000B441360A0
:104A6000FFF722FFBDE81040FFF710BD10BD00BFEB
:104A70009C100020A0100020002103E00B4B5B588D
:104A8000435004310A480B4B42189A42F6D30A4A63
:104A900002E0002342F8043B084B9A42F9D3FDF7A9
:104AA0001FFD00F063FAFDF70BFC70470855000886
:104AB000000000207C0000207C0000200C12002060
:104AC000FEE70378472B17D143784E2B14D1837818
:104AD000552B11D1C378432B0ED10379432B0BD126
:104AE00043792B2B08D183792B2B05D1C079012851
:104AF0008CBF002001207047002070472DE9F34152
:104B00001E4603780D46472B0246C17913D14378E0
:104B10004E2B10D18378552B0DD1C378432B0AD15E
:104B20000379462B07D143794F2B04D18379522B3C
:104B300001D1002930D01046FFF7C3FF002380F0D9
:104B40000100C0B2002401944BBB50BB01290ABF35
:104B500052F8203CA2F12003783B01290CBF52F807
:104B6000202C58321C680192236820469B68984785
:104B7000C8B10227019B1B6801932B6801AAD3F8D7
:104B80001080214601232846C04770B1019B336045
:104B9000384602B0BDE8F08101230846D2E7044C54
:104BA000E2E7044CE0E70127E7E70746F0E700BF4C
:104BB000085300081053000810B5044600F01AF816
:104BC00002462046A4F12001FFF77BFF60B154F8B4
:104BD000043C0133012B44F8043C03D1936844F8AE
:104BE000083C9160012010BD9368002BF9D000F0C3
:104BF00007F9000000487047B010002000F0F1B83D
:104C00007FB500241023CDE90234036815469E6960
:104C100000946B468DF804401268B0479DF804304C
:104C200003F00603062B09BF01202046009B2B60E2
:104C300004B070BD009890420CBF06200120704760
:104C400010B50446024B036000F0F1F8204610BD99
:104C50008452000810B50446FFF7F2FF20460821F1
:104C6000FFF7CCFF204610BD2DE9F041069E984687
:104C7000DDE908349E420746154607D1079900F042
:104C8000D9F818B165710020BDE8F0814146384679
:104C900000F0D0F80028F6D0012326602571A3711A
:104CA000F1E738B515461C4600F0C4F820B10823DA
:104CB000E36006232560237138BD2DE9F0410546E8
:104CC0000C4616461F4600F0B5F848B9032F07D822
:104CD0002368324629462046BDE8F0415B69184703
:104CE000BDE8F08110B50446024B0360FFF7A8FF52
:104CF000204610BDE452000810B50446FFF7F2FF4D
:104D000020460C21FFF77AFF204610BD2DE9F04127
:104D1000069E07469642884615461C460AD0B86845
:104D20002A46036806961E6A41462346B446BDE8F5
:104D3000F0416047194600F07DF80028EFD00620CA
:104D4000BDE8F0812DE9F14F0E46DDE90A4ADDE9C3
:104D50000C85194683461746994600F06BF890B1CA
:104D6000002E2C602F7109DB3444A0450CBF0624B3
:104D70000124AC71002001B0BDE8F08F0236F9D1FA
:104D80000123AB71F6E7444506D15146584600F081
:104D900051F808B16F71EDE7DBF808003A46036897
:104DA000CDE90C85CDE90A4ADC6931464B46A4467B
:104DB00001B0BDE8F04F60472DE9F04104460D46D3
:104DC00016461F46FFF76DFF48B9A06832460368D4
:104DD00029469C693B46A446BDE8F0416047BDE8D2
:104DE000F08100F0E7B808B5804700F0B1F80000A6
:104DF000024B1868BFF35B8F704700BF14000020A0
:104E000008B5FFF7F5FFFFF7EEFF08B58047FFF79E
:104E1000F7FF0000024B1868BFF35B8F704700BFBD
:104E20001000002008B5FFF7F5FFFFF7EEFF704711
:104E300000207047814208B50ED0406803782A2BC5
:104E40000CD049680B782A2B08BF0131FBF780F999
:104E5000B0FA80F0400908BD0120FCE70020FAE725
:104E60000378472B17D143784E2B14D18378552BD9
:104E700011D1C378432B0ED10379432B0BD1437946
:104E80002B2B08D183792B2B05D1C07901288CBF1E
:104E90000020012070470020704738B50246FFF718
:104EA000DFFF40B1002552F8184C104600F026F8FC
:104EB00025B1FFF7B7FF04460125F6E72046FFF7C7
:104EC000A4FF0378472B17D143784E2B14D1837856
:104ED000552B11D1C378432B0ED10379432B0BD122
:104EE00043792B2B08D183792B2B05D1C07901284D
:104EF0008CBF0020012070470020704738B5054660
:104F0000FFF778FE014602682846A5F12004FFF766
:104F1000D8FF30B90AB1FFF773FF0C601446204682
:104F200038BD55F80C3C2846002BB4BFC3F1010333
:104F3000013345F80C3C4B68A24203F1FF334B6050
:104F40001CBF45F8102C0C606C6AFBF7A5FDE6E76A
:104F500008B5062000F0BEF80120FDF7BBFA0000FE
:104F6000014B1868704700BF1800002070B500257D
:104F70000C4E0D4CA41BA410A54209D100F0C8F89A
:104F800000250A4E0A4CA41BA410A54205D170BDF1
:104F900056F8253098470135EEE756F82530984702
:104FA0000135F2E7F0540008F0540008F05400080E
:104FB000FC540008024B0146186800F017B800BF07
:104FC0001800002010B5431E0A44914200D110BDC4
:104FD00011F8014B03F8014FF7E7034602449342EF
:104FE00000D1704703F8011BF9E7000038B505460A
:104FF000002943D051F8043C0C1F002BB8BFE41823
:1050000000F084F81E4A1368104633B963601460D8
:105010002846BDE8384000F07AB8A3420BD9216891
:105020006218934201BF1A685B685218226063607D
:105030000460EDE713465A680AB1A242FAD919682A
:105040005818A0420BD120680144581882421960B8
:10505000DED110685268014419605A60D8E702D95D
:105060000C232B60D4E7206821188A4201BF116805
:1050700052680918216062605C60C9E738BD00BFF2
:10508000BC1000201F2938B504460D4604D916234C
:1050900003604FF0FF3038BD426C12B152F821303E
:1050A0004BB9204600F030F82A4601462046BDE8BC
:1050B000384000F017B8012B0AD0591C03D1162331
:1050C00003600120E7E70024284642F8254098477E
:1050D0000020E0E7024B01461868FFF7D3BF00BF8E
:1050E0001800002038B50023064C05460846114636
:1050F0002360FDF7E7F9431C02D1236803B12B605D
:1051000038BD00BF08120020FDF7DAB970477047BC
:10511000F8B500BFF8BC08BC9E467047F8B500BFA4
:08512000F8BC08BC9E46704774
:10512800426174746572794D616E6167657254612C
:10513800736B0000285100082118000800000000C7
:105148000000000000010000000000000000000056
:105158004C656455705461736B0000005851000829
:1051680011190008FFFF0000000000000001000006
:10517800000000000000000000000000945100083A
:10518800711E0008471600088F1E0008E452000828
:10519800A0510008F8510008384C69706F43656CDD
:1051A8006C00000064656661756C745461736B0013
:1051B800AC510008BD2100080000000000000000FC
:1051C8008000000000000000000000000203040549
:1051D800060708090A0B0C0D0E0F1010000000003E
:1051E800F851000831160008471600085D16000837
:1051F8008452000800520008394144435F546F6FDD
:105208006C7300000000000000000000B91D0008D9
:10521800D91D00080000000000000000791F0008E8
:10522800991F0008000000000000000001020304AC
:1052380006070809000000000102030449444C4520
:1052480000000000E4520008585200085C530008AF
:105258004E31305F5F637878616269763131375FEC
:105268005F636C6173735F747970655F696E666F95
:1052780045000000000000004C520008414C0008A6
:10528800554C0008314E0008314E0008BB4C000850
:10529800014C0008A34C0008694C0008354C000874
:1052A800E4520008B45200084C5200084E31305FF6
:1052B8005F637878616269763132305F5F73695F06
:1052C800636C6173735F747970655F696E666F454F
:1052D8000000000000000000A8520008E54C00088B
:1052E800F94C0008314E0008314E0008BB4C00084C
:1052F800014C0008B94D0008454D00080D4D000847
:1053080084520008185300088452000838530008D3
:105318004E31305F5F637878616269763131355F2D
:105328005F666F726365645F756E77696E6445006A
:105338004E31305F5F637878616269763131395F09
:105348005F666F726569676E5F65786365707469BB
:105358006F6E450084520008645300085374397412
:0C5368007970655F696E666F00000000E0
:1053740002970181B0B00984000000000297018106
:10538400B0B009840000000001970181B0B0088426
:105394000000000003970181B0B008840000000001
:1053A40007970181B0B00B840000000001970181D0
:1053B400B0B008840000000013970181B0B00884E5
:1053C4000000000008B10181B0B0008400000000BA
:0C53D40008B10181B0B0008400000000AE
:1053E0002CB3FF7F01000000C0B3FF7FB0A9028093
:1053F00060B4FF7FB0B0A880B0B4FF7F01000000B0
:10540000BCB4FF7FB0B0AA80F4B4FF7FAE71B280AD
:10541000B8B5FF7F01000000B4B5FF7FAB3F388017
:105420000CB6FF7F0100000018B6FF7FB0B0AA8065
:1054300054B6FF7F01000000FCB6FF7FAB0EB280C8
:1054400068B7FF7FB0AF088034BAFF7F010000006B
:1054500038BAFF7FAC3F0380B4BCFF7F010000007F
:1054600090BEFF7F00840480A4BEFF7F0100000087
:10547000A0BEFF7FB0AD04805CC1FF7FB0A90480F7
:1054800080C1FF7F44FFFF7F84C1FF7F48FFFF7F14
:1054900090C1FF7F0100000060C9FF7FD8FEFF7F41
:1054A0009CC9FF7FDCFEFF7FC8C9FF7FE0FEFF7F56
:1054B000DEC9FF7FE4FEFF7F00CAFF7F010000001E
:1054C000C0CCFF7FE0FEFF7FF4CCFF7FE4FEFF7FD8
:1054D000FCCCFF7F01000000E8CDFF7F08849780AF
:1054E0000ACEFF7FD8FEFF7FCACEFF7F01000000FB
:0C54F00035010008451A0008FD1F0008E7
:0C54FC0011010008551A00080D200008DE
:105508000024F4000100000010000000AAAAAAAAC2
:10551800014E0008514F00081C0000200000000048
:105528000000000000000000000000000000000073
:105538000000000000000000000000000000000063
:105548000000000000000000000000000000000053
:105558000000000000000000000000000000000043
:105568000000000000000000000000000000000033
:0C55780000000000000000000000000027
:0400000508004A792C
:00000001FF
