:020000040800F2
:1000000000500020DD4200081519000817190008EB
:10001000191900081B1900081D190008000000002C
:100020000000000000000000000000009135000802
:100030001F1900080000000021360008653600087E
:1000400025430008254300082543000825430008F0
:1000500025430008254300082543000825430008E0
:1000600025430008254300082543000821190008FE
:1000700025430008254300082543000825430008C0
:1000800025430008254300082543000825430008B0
:1000900025430008254300082543000825430008A0
:1000A000254300082D1900082543000825430008B2
:1000B0002543000825430008391900082543000896
:1000C0002543000825430008254300082543000870
:1000D000254300082543000825430008451900086A
:1000E00051190008254300082543000800000000BE
:1000F0000000000000000000000000000000000000
:0C01000000000000000000005FF808F1A3
:1001100010B5054C237833B9044B13B10448AFF341
:1001200000800123237010BD7C000020000000002F
:10013000FC4E000808B5034B1BB103490348AFF35D
:10014000008008BD0000000080000020FC4E000878
:1001500010F8012B11F8013B012A28BF9A42F7D071
:10016000D01A704703685A004CBF43F0004323F095
:1001700000431844704700BF61B32DE9F84F01F107
:10018000FF3A90460646D146002707EB090404EBE8
:10019000D4746410E50071190846FFF7E3FFA24527
:1001A000834605F10800304409D0FFF7DBFFC34563
:1001B00000F1FF3005D8404509D2671CE5E7C3458B
:1001C00005D9A74202D004F1FF39DEE70021084635
:1001D000BDE8F88F08467047012807D0022807D0ED
:1001E000044B00280CBF1846002070470248704797
:1001F00002487047E9080008ED080008F108000807
:1002000030B5254B83B004468D1E73B301A9284633
:10021000AFF3008018B301992A46FFF7ADFF0146FE
:10022000E8B1FFF79FFF4B68A064012B11D0002BB2
:1002300022DB081DFFF796FF0023E06423650368B7
:10024000002B1EDBFFF78EFF00232061184603B052
:1002500030BD052300221846226103B030BD0923BA
:1002600000221846226103B030BD0C4B0C491846E1
:10027000C91AC9100191CFE70123081DE064236565
:10028000DDE7C3F30360FFF7A7FF0028206114BF79
:1002900000230923DAE700BF00000000E85100084E
:1002A00040530008036810B5DA07044606D49B07DC
:1002B00000F1480009D500F057FC2368590709D51B
:1002C0001A070ED5DB0613D510BD00F045FC2368D8
:1002D0005907F5D404F1D00000F04EFC23681A074A
:1002E000F0D404F5A87000F04FFC2368DB06EBD4D3
:1002F00004F5E870BDE8104000F08ABC036803B163
:1003000003441846704700BF09207047704700BF7C
:1003100070B504460D4608E02A6C236962612146E7
:100320002A4601209847082808D1296C2046FFF763
:1003300067FF06460028EFD004F000FD0728FBD138
:100340003046296CFFF7E2FF281D00F0F9FB00BFE3
:100350002DE9F04705460027ADF5727D03AC0E1D73
:1003600092460FCE0FC40FCE0FC40FCE0FC496E827
:100370000F00D5F80C80D5F8189084E80F0002AC77
:100380002846216C2760FFF73BFFBAF1000F0746B4
:1003900014BF0A2609267FB1A36B46F010018DE831
:1003A00010022A46636401202B46C04778BB3846BA
:1003B0000DF5727DBDE8F087236C4FF4F0726B6130
:1003C00021467AA804F0F4FC2B697AAA2946304623
:1003D0009847889B82468DE81002314663642A461E
:1003E0002B460120C04790B94FF4F0727AA92046FD
:1003F00004F0DEFCBAF1080F06D1216C2846FFF7A5
:10040000FFFE09260746C6E7BAF1070F05D0092700
:1004100038460DF5727DBDE8F0873846216CFFF750
:1004200075FF03A800F08CFB406C7047F0B54FF0EF
:10043000FF3ECB6BF9B00B640E1D01AD0F460446B9
:100440000FCE0FC50FCE0FC50FCE0FC596E80F000C
:1004500085E80F00CDF800E006E023696A462146F2
:1004600098470828054608D110992046FFF7C8FE8E
:100470000028F2D0092079B0F0BD6846FFF712FFDE
:10048000062DF7D139462046FFF742FF30B4DD6B29
:10049000C160826119461D64002230BC58E700BF6C
:1004A00070B54369C6680B6426B10122FFF750FF9F
:1004B00004F044FC03690A4604460D460146022046
:1004C0009847072807D0082803D129462046FFF778
:1004D0001FFF04F033FC3046296CFFF717FF281D7F
:1004E00000F02EFBC2682AB110B4CC6B00220C6461
:1004F00010BC2DE79AE700BF704700BF836813B1B7
:10050000014601201847704700B5042907D8DFE8E5
:1005100001F00309060909000BB90F2A05D90220C9
:100520005DF804FB01205DF804FB00EB82025268D9
:100530001846019B1A605DF804FB00BF002310B54C
:1005400084B003AC0A4600941946FFF7DDFF039818
:1005500004B010BD00B5042907D8DFE801F0030995
:10056000060909000BB90F2A05D902205DF804FB22
:1005700001205DF804FB019900EB8202096818462E
:1005800051605DF804FB00BF002310B584B004ACDB
:1005900044F8042D00940A461946FFF7DBFF04B027
:1005A00010BD00BFF0B54FF0FF3ED36BADF50F7D32
:1005B0001364151D17AC07460E460FCD0FC40FCDA3
:1005C0000FC40FCD0FC495E80F0084E80F00CDF8DD
:1005D00058E012E00C2116A86A46FFF7D5FF314615
:1005E00016A8B84778B9049B16AA69460820984708
:1005F0000528044608D0092805D026996846FFF743
:10060000FFFD0028E6D0092416A8FFF74BFE204680
:100610000DF50F7DF0BD00BF2DE9F04FCC6C91467C
:1006200022688BB004340D460792089400F0030B47
:100630001E46002B60D10323120207928DF825601D
:100640008DF824302B6DBBF1020F08BFAC6B13F09B
:10065000010340D1019300F008030393D4F8008014
:10066000B8F1000F39D0022E43D0B4F8008067886B
:100670000434AB6C27F0010A0F2148469A44FFF777
:100680005DFF824533D828F001039A4450452CBFC2
:10069000002001207F0007F0020708F0010847EA68
:1006A0000807012F3ED035D3022F1CD1236823F039
:1006B00000420292BBF1000F76D128B103990029C4
:1006C0007ED0002A00F0A680002B77DB029B01334E
:1006D00004EB8304C2E700230193022E3EDDFFF703
:1006E00013FE002840D009200BB0BDE8F08F002099
:1006F000D0E767680834BCE7022BA3DC0221130CA7
:100700008DF825301204DBB204EB830407928DF8D8
:10071000241097E7BBF1000F02D0002840F0BD8005
:1007200004349BE7BBF1000F25D1A8B194E80C007D
:10073000991C4FEAD272D6D005F1580101330691C7
:1007400000F0A380201DFFF7D9FD06AB0146284627
:1007500003F092FE002877D108347FE707A94846C6
:1007600000F0F0FA0028BED1019B002B5CD10820DC
:100770000BB0BDE8F08F0D2148462F6AFFF7DEFE73
:100780008742E9D1AB6A9C42E6D12046FFF7EAFCFA
:100790000F2102464846FFF7F7FE48462A46002149
:1007A000FFF7F2FE07209FE70D2148462F6AFFF76B
:1007B000C5FE874258D02368002B87DA043485E7CA
:1007C000029B3BB305F15803271DCDF810B0DDF8AF
:1007D0000C80A346DDF808A01C46059602E0B24551
:1007E000B04616D038460694FFF788FD06AB0146A2
:1007F0000022284603F040FE08F1010604370028D5
:10080000EDD0029B5C464345DDF810B0059ED2D189
:1008100000E05C4648460D21FFF790FE069B2862EB
:10082000AC626B6206205FE70F214846FFF786FE49
:100830000E2102464846FFF7A7FE4846294A0F21E7
:10084000FFF7A2FE07204FE707460D214846FFF7B6
:1008500075FE022F28621DD12B46069A43F82C2FD5
:100860006B62AC6206203FE7AB6A9C42A3D10422D4
:1008700000270299A318A962EF622A636B632368B9
:10088000BB421DDB0123019320E748460D21FFF702
:1008900055FE2862069B6B62E3E72046FFF762FC89
:1008A00004340646AC63284603F044FE00283FF4B7
:1008B0001AAF484632460F21FFF766FE072013E7BE
:1008C0000846013004EB8000FFF74CFC0F21024684
:1008D0004846FFF759FE48462A463946FFF754FE78
:1008E000072001E7354C0008002395E6012393E635
:1008F000022391E6F0B50446C5B004290DD8DFE81F
:1009000001F055030C310F00012B4FEA124695B24E
:1009100064D17219102A40F29D80022045B0F0BDCA
:10092000002BFAD1102AF8D82368D80600F1C88025
:1009300022AE30460192012500F074F90023A06B2D
:10094000019A05FA03F1114203D00168043046F818
:1009500023100133042BF4D1A063304600F058F982
:100960000020DBE7032BD8D1150C97B2EB19102B25
:10097000D3D823681E0700F1B78022AE304600F0BE
:1009800025F9ED00A06B5FB1043D0346711900EB42
:10099000C70053F8042B834241F8042FF9D11846BD
:1009A000A063304600F0F0F80020B7E7002BB4D188
:1009B0000127A56B96B2201D07FA03F1314203F11E
:1009C000010302D0296804350160102B00F10400F6
:1009D000F2D112F400503BD1A5639FE7052B9CD1C7
:1009E0007719202F99D80F2E66D92F46002D3AD18E
:1009F0002A460027002AA06B72DD00EBC2020146E6
:100A000044A800EBC6008C3851F8045B914240F8D2
:100A1000045FF9D1084697B1102E324638BF102234
:100A200044A901EBC202A2F5C4727900043A00EBBA
:100A3000810150F8045B884242F8045FF9D1012B30
:100A400048D00F2EA16333D917B102A800F094F853
:100A5000002063E70F2E3FF660AF00272268D10722
:100A600017D4002F60D02268510745D4012B4DD0F8
:100A70000F2E06D822A8019300F07AF8019B002FD0
:100A8000B6D002A8019300F07BF8019BC6F11002DA
:100A9000B0E722F00101052B2160019320463BD0F5
:100AA00022F0030240F8482B00F05AF8019BD8E7E7
:100AB00022A800F059F8C7E7102FCED9103FCDE794
:100AC00023F01003236004F5E870019200F0AAF807
:100AD000019A2DE70431A16322A800F03DF8B7E7A1
:100AE000002F99D10146AAE723F00803236004F5FB
:100AF000A87000F06BF840E7204622F0040240F8AE
:100B0000D02B019300F03CF8019BAFE722A80193A2
:100B100000F026F8019BB9E741F0020140F8481BBC
:100B200000F026F8019B9CE7012B03D00F2E3FF627
:100B30005FAF9FE722A8019300F012F8019B57E7EF
:100B400000F1340191E838009C46A6464CF8045D5B
:100B500090E8FF0FE54600BD90EC210B704700BF09
:100B600080EC210B704700BF90EC200B704700BF5A
:100B700080EC200B704700BFD0EC200B704700BF0B
:100B8000C0EC200B704700BFF0EC0201F0EC02114A
:100B9000F0EC0221F0EC0231F0EC0241F0EC0251F9
:100BA000F0EC0261F0EC0271F0EC0281F0EC0291E9
:100BB000F0EC02A1F0EC02B1F0EC02C1F0EC02D1D9
:100BC000F0EC02E1F0EC02F1704700BFE0EC020152
:100BD000E0EC0211E0EC0221E0EC0231E0EC024139
:100BE000E0EC0251E0EC0261E0EC0271E0EC028129
:100BF000E0EC0291E0EC02A1E0EC02B1E0EC02C119
:100C0000E0EC02D1E0EC02E1E0EC02F1704700BF61
:100C1000B0FC0181B0FC0191B0FC01A1B0FC01B1BC
:100C2000704700BFA0FC0181A0FC0191A0FC01A1C4
:100C3000A0FC01B1704700BFEC4600B52DE90050A3
:100C40002DE9FF1F4FF000032DE90C0001A9FFF76C
:100C5000EDFBDDF840E012B0704700BFEC4600B598
:100C60002DE900502DE9FF1F4FF000032DE90C0086
:100C700001A9FFF715FCDDF840E012B0704700BF96
:100C8000EC4600B52DE900502DE9FF1F4FF00003A1
:100C90002DE90C0001A9FFF725FCDDF840E012B0BA
:100CA000704700BFEC4600B52DE900502DE9FF1F4D
:100CB0004FF000032DE90C0001ABFFF7E7FBDDF877
:100CC00040E012B0704700BFEC4600B52DE900507F
:100CD0002DE9FF1F4FF000032DE90C0001AAFFF7DB
:100CE00061FCDDF840E012B0704700BF027A1AB92B
:100CF000437A43B9B02070470368013A02721A027E
:100D00000260180E704703214268013B10B4437221
:100D10001368141D01721A024460026010BC180EA0
:100D2000704700BF002300B585B003AA00921946A2
:100D30000C22FFF7E9FB039805B05DF804FB00BF48
:100D4000F0E700BF2DE9F04306460F464FF00008DC
:100D500085B03846FFF7CAFFB028044623D0050601
:100D600027D400230DF10C09194685000D22CDF87A
:100D700000903046FFF7C8FBEDB2039B600605F11B
:100D800004054CBF5D1BED1800230D221946CDF85C
:100D9000009030460395FFF7DDFB3846FFF7A6FFCE
:100DA000B0280446DBD1B8F1000F00F09480002099
:100DB0001CE000F0F003802B5CD0902B19D0A02B0E
:100DC0002CD0B02B3ED0C02B6BD000F0F803D02B32
:100DD0000BD100F00702013242F400220523012169
:100DE0003046FFF787FD0028B3D0092005B0BDE8E5
:100DF000F08300F00D030D2BF7D0002303AD00F0BE
:100E00000F02194600953046FFF77EFB0023009540
:100E100019460D223046FFF79DFB9AE7C3434FF476
:100E20007F6203F007031A410023010702F47F6287
:100E300048BF42F4804219463046FFF75BFD002868
:100E4000D3D186E7B12857D0B22868D0B32800F0B4
:100E5000958000F0FC03B42BC7D0012300F00702FB
:100E60001A4442F4002219463046FFF743FD002899
:100E7000BBD16EE73846FFF739FF24020443B4F5CF
:100E8000004FB2D000232401A2B219463046FFF72A
:100E900031FD0028A9D114F4004F18BF4FF001080C
:100EA00057E7C6287DD0C72800F0868000F0F803F9
:100EB000C02B00F09480C82800F09F80C92894D1EE
:100EC0003846FFF713FF020300F00F0002F4702210
:100ED0000130024382E703AC43460E2241460094B0
:100EE0003046FFF711FB0094304643460F2241463F
:100EF000FFF730FB404679E73846FFF7F7FE00285A
:100F00003FF473AF10F0F0037FF46FAF0246194661
:100F10003046FFF7EFFC00287FF467AF19E70023A6
:100F20000DF10C090D221946CDF800903046FFF75F
:100F3000EBFA3846FFF7DAFE02064FF002040CD552
:100F4000039B00F07F00A040034438460393FFF763
:100F5000CDFE030604F10704F2D40023039900F048
:100F60007F02A24001F501718C18CDF8009019465E
:100F70000D2230460394FFF7EDFAEAE63846FFF714
:100F8000B5FE0123010300F00F0001F47021C21827
:100F90000A4330461946FFF7ADFC00287FF425AF21
:100FA000D7E63846FFF7A2FE010300F00F00032347
:100FB00001F47021421CEBE73846FFF797FE00284A
:100FC0003FF413AF10F0F0037FF40FAF024604219B
:100FD0003046FFF78FFC00287FF407AFB9E6032304
:100FE00000F00F02013242F4202219463046FFF78A
:100FF00081FC00287FF4F9AEABE63846FFF776FEB9
:1010000000F0F00200F00F031032013343EA023225
:10101000E4E600BF30B503240D46C36C85B05A68C2
:101020008DF80C40DC791202083301A928460192A0
:101030008DF80D400293FFF785FE05B030BD00BF6F
:1010400008B5FFF77DFE806C08BD00BF08B5FFF74F
:1010500077FEC06CC37900EB8300083008BD00BF89
:1010600008B503F06BFE00BF08B5FFF7F9FF00BF3E
:10107000B0B58EB000AF164B07F11C041D460FCD66
:101080000FC495E8070084E8070007F11C0300215E
:10109000184602F07AF902460E4B1A600E4B3C4697
:1010A0001D460FCD0FC495E8070084E807003B46B6
:1010B0000021184602F069F90246084B1A60012225
:1010C0000749084802F050F800BF3837BD46B0BDA8
:1010D000284F000898000020504F00089C00002076
:1010E000B80000207011002080B584B000AF786097
:1010F0000023FB60054800F017FE02220449034864
:1011000000F074FE642002F068F9FBE76C10002028
:10111000A000002080B590B002AF786007F1140005
:10112000002300931E4B20221E4900F07DF907F199
:1011300008034FF0FF320F21184602F081F9FB68D7
:10114000012B05D107F11403184600F099F81CE0B3
:10115000FB68022B05D107F11403184600F0AFF825
:1011600013E0FB68042B08D107F1140364224FF449
:101170007A71184600F0ECF807E0FB68082B04D100
:1011800007F11403184600F017F9322002F025F990
:10119000CDE707F11403184600F07CF903F049F994
:1011A000281100200008014080B582B000AF7860AF
:1011B000144B1B786E2B06D1134B1B68012118466C
:1011C00002F014F914E00F4B1B78662B06D10E4B7E
:1011D0001B680221184602F009F909E0094B1B7847
:1011E000622B05D1084B1B680421184602F0FEF85B
:1011F00001220449054801F0B7FF00BF0837BD468A
:1012000080BD00BFB80000209C00002070110020AD
:1012100080B582B000AF78607B681B68094A934252
:1012200001D100F077FC7B681B68074A934205D127
:10123000064B1B680821184602F0D8F800BF083793
:10124000BD4680BD002C0140000800409C000020ED
:1012500080B483B000AF78607B6893F82130184683
:101260000C37BD4680BC704780B483B000AF786057
:101270007B6893F8223018460C37BD4680BC704717
:10128000B0B582B000AF78607B681B7C022B02D1C6
:10129000786800F0B7F87B6801221A747B685C6894
:1012A0007B681D897868FFF7D3FF03461A462946F5
:1012B000204601F04BF900BF0837BD46B0BDB0B5C0
:1012C00082B000AF78607B681B7C022B02D178680B
:1012D00000F098F87B6800221A747B685C687B6871
:1012E0001D897868FFF7C0FF03461A462946204645
:1012F00001F02CF900BF0837BD46B0BD80B582B003
:1013000000AF78607B685A687B681B891946104675
:1013100001F021F900BF0837BD4680BD80B483B01D
:1013200000AF78607B68DA697B685B699A4204D1B8
:101330007B689A697B68DA6103E07B685A697B683D
:10134000DA617B68DB6918460C37BD4680BC7047A4
:10135000B0B584B000AFF860B9607A60F868FFF7A4
:10136000AEFFFB6802221A74FB68BA685A61FB6818
:101370007A689A61FB687A68DA61FB68DB681B68E7
:10138000BA68DA62FB68DB68BA68DA60FB68DB6857
:10139000184601F025FCFB685C68FB681D89F8684D
:1013A000FFF756FF03461A462946204601F0CEF8BD
:1013B00000BF1037BD46B0BD90B583B000AF7860B8
:1013C0007B681B7C022B19D1786800F01BF87868C9
:1013D000FFF794FF7B68DB681C687868FFF79EFF67
:1013E0000346E3627B68DC687868FFF797FF034693
:1013F000E3607B68DB68184601F0F2FB00BF0C3746
:10140000BD4690BD80B582B000AF78607B68DB6878
:10141000184601F00FFC7B68DB681B6800225A62EB
:1014200000BF0837BD4680BD80B485B000AFF8600E
:10143000B9603B601346FB80154AFB681A60FB6885
:10144000BA685A60FB68FA881A81FB683A68DA6001
:10145000FB683A7E83F82020FB6893F82030002B4D
:1014600008D0FB68002283F82120FB68012283F862
:10147000222007E0FB68012283F82120FB6800227C
:1014800083F82220FB6818461437BD4680BC70479D
:10149000744F000880B483B000AF7860044A7B6862
:1014A0001A607B6818460C37BD4680BC704700BF89
:1014B000744F000880B582B000AF78607868FFF79D
:1014C000E9FF786802F0B3FF7B6818460837BD462D
:1014D00080BD000019481A4B30B503604FF480738B
:1014E00083604FF4602300240125C361022385B08B
:1014F000019402940394057304754460036100F041
:1015000025FD08B100F09BF9072301A90B480194C0
:101510000295039300F04CFB08B100F090F9012311
:10152000019302230293062301A90448039300F0C8
:101530003FFB08B100F083F905B030BD6C1000200E
:101540000024014030B5054687B01022002102A8D2
:1015500003F039FC2A681C4B9A4233D103F56C43E3
:101560009A691A4842F400729A619A6902A902F4CF
:1015700000720092009A9A69154C42F004029A6136
:101580009B6903F004030193019B032302930393DC
:1015900000F0FAFE8022E2604FF4807222614FF484
:1015A00000620C4B626123602022002320466360AE
:1015B000A360A261E36100F09DFD08B100F03FF976
:1015C0002C62656207B030BD002401400008014074
:1015D0009C100020080002400A4B07B55A690521FB
:1015E00042F001025A615B69002203F0010301939A
:1015F0000B20019B00F03CFD0B2000F06DFD03B0C3
:101600005DF804FB0010024080B485B000AFF860C4
:10161000B9607A60FB68064A1A60BB68054A1A60BE
:101620007B6880221A6000BF1437BD4680BC7047BB
:10163000C000002014010020B0B588B000AF0B4BF3
:101640003C1D1D460FCD0FC495E8070084E8070038
:101650003B1D0021184601F098FE0246044B1A601B
:10166000FFF706FD00BF2037BD46B0BDA04F000804
:10167000BC00002080B582B000AF7860012001F08E
:10168000ACFEFBE7102270B588B00DEB0200002124
:1016900003F099FB294B2A4D9A69284642F0100223
:1016A0009A619A69202102F010020092009A9A69C8
:1016B000002442F020029A619A69022602F0200278
:1016C0000192019A9A6942F004029A619A6902F0C1
:1016D00004020292029A9A6942F008029A619B6996
:1016E000002203F008030393039B00F02FFF4FF445
:1016F00000530493134B04A913480593069400F078
:1017000043FE0C2304A9284604930596079600F08F
:101710003BFE20230493012304A928460593069445
:10172000079600F031FE22460521282000F0A0FC9B
:10173000282000F0D1FC08B070BD00BF00100240AE
:1017400000080140000011100010014080B500AFFA
:1017500000F0CEF900F00FF8FFF794FFFFF73CFF21
:10176000FFF7B8FE00F064F900F008F9FFF764FF36
:1017700001F006FEFEE780B594B000AF07F1280344
:1017800028220021184603F01EFB07F11403002253
:101790001A605A609A60DA601A613B1D00221A6072
:1017A0005A609A60DA600223BB620123BB63102394
:1017B000FB6302237B640023BB640023FB6407F10B
:1017C0002803184600F0DEFE0346002B14BF012359
:1017D0000023DBB2002B01D000F031F80F237B6136
:1017E0000223BB610023FB614FF480633B62002353
:1017F0007B6207F114030021184601F09DF80346AF
:10180000002B14BF01230023DBB2002B01D000F01A
:1018100016F802237B600023FB603B1D184601F095
:1018200067F90346002B14BF01230023DBB2002B12
:1018300001D000F004F800BF5037BD4680BD80B431
:1018400000AF00BFBD4680BC70470000114B07B51C
:101850009A690F2142F001029A619A696FF00100C2
:1018600002F001020092009ADA6942F08052DA61D5
:10187000DB69002203F080530193019B00F0F8FB29
:10188000054A536823F0E06343F00073536003B0EC
:101890005DF804FB001002400000014010B5014655
:1018A00088B00022192000F0E3FB192000F014FC9E
:1018B000144B01A99A6903A842F400629A619B69DA
:1018C000114C03F400630293029B01F0F3F801F062
:1018D000E1F80E4B236040F2E733E3600C4BB0FBC2
:1018E000F3F000230138606020462361A36001F01B
:1018F00099FA20B9204601F073F908B010BD012013
:10190000FBE700BF00100240E0100020002C014067
:1019100040420F007047FEE7FEE7FEE7FEE7704734
:10192000014800F09DBC00BF9C100020014801F060
:101930009EB900BFE0100020014801F098B900BF37
:1019400028110020014801F073BC00BF7011002075
:101950004FF4005000F00ABE0120704708B503F0B4
:10196000F5F9162303604FF0FF3008BD08B503F00A
:10197000EDF916230360FEE7704700007FB51022E3
:10198000002102A803F01FFA41F63F7217481849D8
:10199000002380E8060040F2E73200930193836061
:1019A000C2600361836101F03DFA08B1FFF747FFB0
:1019B0004FF4805302A90D48029301F096FA08B142
:1019C000FFF73DFF0821094801F058FA08B1FFF779
:1019D00036FF0023694605480093019301F01AFB86
:1019E00008B1FFF72CFF07B05DF804FB28110020B9
:1019F0000008004007B50D4B02689A4212D103F56A
:101A00000233DA691E2042F00402DA61DB69002247
:101A100003F0040301930521019B00F029FB1E2024
:101A200000F05AFB03B05DF804FB00BF0008004063
:101A300008B54FF4E13E0A480A4B0C2280E8084002
:101A4000002342618360C36003618361C36101F06D
:101A50005DFB18B1BDE80840FFF7F1BE08BD00BF4F
:101A6000701100200048004010B5044686B01022D6
:101A7000002102A803F0A7F922681B4B9A4230D13B
:101A800003F5E433DA6902A942F48022DA61DA6903
:101A9000164802F480220092009A9A69002442F0CB
:101AA00008029A619B6903F008030193019B4FF4BC
:101AB00080630293022303930323059300F064FCE5
:101AC0004FF4006302A9094802930394049400F0C0
:101AD0005BFC27202246052100F0CAFA272000F0EF
:101AE000FBFA06B010BD00BF00480040000C0140EA
:101AF000074A08B51368032043F01003136000F091
:101B0000A5FA0020FFF7CAFEFFF7A0FE002008BDDF
:101B100000200240034A044B11681B780B441360F9
:101B2000704700BFB011002004000020014B18686E
:101B3000704700BFB01100207047436A10B59A6A21
:101B400012F0500F1BD19A6A42F400729A621A681E
:101B5000926802F46022B2F5602F0CD11A7B52B960
:101B60009A6A22F480729A629A6AD2045EBF9A6A72
:101B700042F001029A621846FFF7DEFF10BD1B6AB1
:101B8000BDE810401B6B1847704708B5406AFFF767
:101B9000FBFF08BD7047406A08B5836A43F0400305
:101BA0008362C36A43F00403C362FFF7F3FF08BD17
:101BB000002373B5019390F82430012B74D00123D6
:101BC0004D6880F82430062D02684FEA85030C68C2
:101BD00025D82B441F25566B053B9D4026EA05055D
:101BE00004FA03F32B435363092C4FEA44038D6833
:101BF0002FD907262344D1681E3B9E4021EA0601C7
:101C000005FA03F30B43D360A4F11003012B2BD986
:101C10000023002280F82420184602B070BD0C2D4D
:101C20000BD82B441F25166B233B9D4026EA050548
:101C300004FA03F32B431363D6E72B441F25D66A1C
:101C4000413B9D4026EA050504FA03F32B43D3628A
:101C5000CAE70726116923449E4021EA060105FAD6
:101C600003F30B431361CFE7104B9A4216D19368ED
:101C70001B02CDD49368102C43F400039360C7D1AA
:101C80000B4B0C4A1B68B3FBF2F20A23534301933C
:101C9000019B002BBCD0019B013BF8E7836A43F01A
:101CA000200383620123B4E70223B5E70024014047
:101CB0000000002040420F00002373B50193036829
:101CC00004469A68D20702D5002002B070BD9A6817
:101CD00042F001029A60124B124A1B68B3FBF2F306
:101CE0000193019BC3B9FFF721FF064623689D6856
:101CF00015F00105E8D1FFF719FF801B0228F5D97F
:101D0000A36A84F8245043F01003A362E36A01201D
:101D100043F00103E362D8E7019B013BE0E700BF2A
:101D20000000002040420F0090F8243010B5012B35
:101D3000044654D0012380F82430FFF7BDFF00286B
:101D400049D1A36A274A23F4407323F0010343F4E3
:101D50008073A3622368934204D123494A6812F432
:101D6000702F2ED1A26A22F48012A2625A68520504
:101D700041BFA26A22F4405242F48052A262A26A97
:101D800012F480521CBFE26A22F00602E2620022D4
:101D900084F824206FF002021A609A6802F460222C
:101DA000B2F5602F13D10F4A934205D1A2F580629C
:101DB000526812F4702F0AD19A6842F4A0029A6015
:101DC00010BDA26A42F48012A2624A68CFE79A6804
:101DD00042F48012F3E7002384F8243010BD02207F
:101DE00010BD00BF00280140002401402DE9D8416A
:101DF0009046404B026804469A420F4602D03E4944
:101E00008A4203D15B6813F4702F6ED194F82430AA
:101E1000012B6CD00123204684F82430FFF74CFFBF
:101E2000064600285DD1A06A216820F47060324B1C
:101E300020F0010040F480709942A06204D12D4A44
:101E4000536813F4702F3ED1A36A23F48013A36266
:101E50004B685A0505D5A36A23F4405343F48053D5
:101E6000A362A36A206A13F4805318BFE36A3A4658
:101E700018BF23F00603E362002384F824301F4BCD
:101E80004C3183621E4BC3621E4B03636FF002032F
:101E900041F84C3C51F8443C43F4807341F8443CD5
:101EA000434600F057F923689A6802F46022B2F5BD
:101EB000602F9A680CBF42F4A00242F480129A602C
:101EC0003046BDE8D881A36A43F48013A362536807
:101ED0005B0541BFA06A20F4405040F48050A062EE
:101EE000BFE7002384F82430EAE70126E8E702266A
:101EF000E6E700BF00240140002801403B1B00082A
:101F00008B1B0008971B000838B5036804469A68C5
:101F1000D20701D4002038BD9A6822F001029A60ED
:101F2000FFF704FE054623689B68DB07F2D5FFF741
:101F3000FDFD401B0228F6D9A36A012043F01003DF
:101F4000A362E36A43F00103E36238BD70B504465F
:101F5000002871D0836A23B9C36280F82430FFF768
:101F6000F1FA2046FFF7D0FFA36A13F0100FA36A1F
:101F700064D1002862D1E16923F48853626823F0B8
:101F8000020343F002030A43A168A362237BB1F575
:101F9000807F42EA430238D0012914BF06464FF43D
:101FA0008076257D012D07D1002B30D1A369013B1F
:101FB00046EA433545F400662368B1F5807F5D68E5
:101FC00025F4694545EA06055D609E681D4D05EAF4
:101FD000060545EA02059D6001D0012920D121694D
:101FE00001390905DD6A25F470052943D96299682C
:101FF000154B0B409A4215D10023E362A36A23F0EC
:10200000030343F00103A36270BD0E46C9E7A36A50
:1020100043F02003A362E36A43F00103E362CBE7EA
:102020000021DFE7A36A23F0120343F01003A36249
:10203000E36A43F00103E362012070BD43F0100343
:10204000A362F9E7FDF7E1FFFE0E1FFF074A00025A
:10205000D36800F4E06023F4E0631B041B0C43F03E
:10206000BF6343F400330343D360704700ED00E0E7
:10207000174B30B5DC68C4F30224C4F10703251DF7
:10208000042B28BF0423062D4FF0010598BF002420
:1020900005FA03F303F1FF3388BF033C1940A14065
:1020A00005FA04F4013C2240002842EA01024FEA0A
:1020B0000212A9BF00F16040064BD2B200F56140A8
:1020C000BBBF00F00F00D2B280F800231A5430BD1D
:1020D00000ED00E014ED00E0002808DB01234209D8
:1020E00000F01F0003FA00F0014B43F82200704794
:1020F00000E100E010B530B314220168134B84688E
:102100000B44B3FBF2F39B000364114B0A68C363F7
:10211000436822F47F522343C46822F030022343F1
:10212000046923434469234384692343C4692343E3
:1021300013430B600122002380F82120836380F881
:102140002030184610BD012010BD00BFF8FFFDBFB4
:1021500000000240F0B590F82040012C35D0012459
:1021600090F8215080F82040A5424FF000064FF033
:10217000020428D180F82140046886632668076C31
:1021800026F001062660C66BBD407560636043683B
:102190000568102BC36A0BBFA260A160E160E2601A
:1021A0004BB1236843F00E0323602B68002043F0FB
:1021B00001032B60F0BD236823F004032360236830
:1021C00043F00A03F0E780F820600220F0BD000031
:1021D00090F8213010B5022B03D004238363012033
:1021E00010BD03681A6822F00E021A601A6822F005
:1021F00001021A60184A93421FD0143293421ED033
:10220000143293421DD0143293421DD014329342A3
:102210001DD0143293420CBF4FF480134FF08073E3
:102220000E4A00245360012380F82130436B80F86C
:1022300020407BB19847204610BD0123F0E71023D2
:10224000EEE74FF48073EBE74FF48053E8E74FF489
:102250008033E5E7184610BD080002400000024048
:1022600070B40425C66B026C34680368954025423F
:10227000196832D04D0730D51A6896065EBF1A68C5
:1022800022F004021A603E4A934219D0143293425B
:1022900018D01432934217D01432934217D014320C
:1022A000934217D0143293420CBF4FF480034FF087
:1022B0008063344A5360C36A002B5ED070BC1847F9
:1022C0000423F6E74023F4E74FF48063F1E74FF48B
:1022D0008043EEE74FF48023EBE70225954025424B
:1022E00035D08D0733D51A68940606D41A6822F0C3
:1022F0000A021A60012280F82120214A934219D053
:102300001432934218D01432934217D014329342AD
:1023100017D01432934217D0143293420CBF4FF4AB
:1023200000134FF00073174A5360002380F82030E9
:10233000836AC1E70223F6E72023F4E74FF4007332
:10234000F1E74FF40053EEE74FF40033EBE70825D5
:102350009540254211D009070FD5196821F00E01CB
:102360001960012303FA02F27260836380F821305E
:10237000002380F82030036B9EE770BC704700BFDD
:1023800008000240000002402DE9F74F00242646D5
:10239000664BDFF8A8E1DFF8A8C10A6832FA06F553
:1023A00002D103B0BDE8F08F4FF0010808FA06F83B
:1023B00002EA080290457FD14D68122D00F0AA80F4
:1023C00000F28380022D00F0A28077D8002D00F06B
:1023D0008980012D00F099804FF00F09FF2A93BFEB
:1023E000824606F18045083DD0F800B092BFB500A6
:1023F000D0F804B0AD0009FA05F82BEA080804FA91
:1024000005F588BF00F1040A48EA0505CAF800503E
:10241000D1F804A01AF0805F4ED0454D444FAD690D
:1024200026F0030845F00105BD61BD6908F180484B
:1024300005F00105019508F5803806F0030B019DB4
:102440004FEA8B0BD8F8085009FA0BF925EA09096D
:10245000384DA84263D005F58065A84261D005F5E6
:102460008065A8425FD005F58065A8420CBF0325B2
:10247000042505FA0BF545EA0905C8F808501D685A
:102480001AF4803F14BF154395431D605D681AF42C
:10249000003F14BF154395435D609D681AF4801F8B
:1024A00014BF154395439D60DD681AF4001F14BFE7
:1024B0002A4325EA0202DA6001366EE7032D22D0B4
:1024C000112D89D1CC68043486E71B4FBD4209D059
:1024D00012D8DFF870904D4504D009F580394D458C
:1024E0007FF47AAF8C68C4B1012C0CBFC0F81080A7
:1024F000C0F8148008246FE77545F3D06545F1D026
:10250000DFF84490EBE7002466E7CC6864E7CC682A
:10251000083461E7CC680C345EE704245CE70025EE
:10252000A7E70125A5E70225A3E700BF00040140B6
:10253000001002400008014000002110000031108E
:102540000000321000001110000022100AB10161D9
:1025500070470904FBE7C36803EA010221EA0301AB
:1025600041EA0241016170477047000008B5044B21
:102570005969014202D05861FFF7F6FF08BD00BF5C
:10258000000401402DE9F341054608B901203CE073
:102590000368DB0710D42B689F075DD42B681907ED
:1025A00000F194802B685A0700F1BE80E86900288A
:1025B00040F02C81002028E08F4C636803F00C036E
:1025C000042B07D0636803F00C03082B09D1636860
:1025D000DE0306D523689C03DDD56B68002BDAD1BA
:1025E000D4E76B68B3F5803F12D1236843F480339E
:1025F0002360FFF79BFA064623689803CBD4FFF7C6
:1026000095FA801B6428F7D9032002B0BDE8F08159
:102610009BB9236823F480332360236823F4802349
:102620002360FFF783FA064623689903B3D5FFF7C3
:102630007DFA801B6428F7D9E6E7B3F5A02F23685D
:1026400003D143F480232360CFE723F48033236056
:10265000236823F48023CBE7674C636813F00C0FE7
:1026600007D0636803F00C03082B10D16368DA030A
:102670000DD423689B0702D52B69012B86D12368D3
:102680006A6923F0F80343EAC203236086E72A69F4
:102690005A4B6AB101221A60FFF748FA06462368CE
:1026A0009F07ECD4FFF742FA801B0228F7D9ABE76B
:1026B0001A60FFF73BFA0646236898077FF56EAF6E
:1026C000FFF734FA801B0228F6D99DE7AA694A4C25
:1026D0004B4BDAB101221A60FFF728FA0646636A0B
:1026E0009B070DD54FF4FA52464B1B68B3FBF2F330
:1026F000019300BF019B5A1E0192002BF9D151E7B3
:10270000FFF714FA801B0228E9D97DE71A60FFF76A
:102710000DFA0646636A9F077FF544AFFFF706FA96
:10272000801B0228F6D96FE7334CE369D80024D424
:102730000127E36943F08053E361E36903F08053C9
:102740000093009B304E3368D90518D5EB68012BF8
:1027500026D1236A43F001032362FFF7E7F941F230
:1027600088368046236A9B073FD5002F3FF41EAF73
:10277000E36923F08053E36118E70027E2E7336859
:1027800043F480733360FFF7D1F980463368DA058C
:10279000DCD4FFF7CBF9A0EB08006428F6D933E7C7
:1027A000ABB9236A41F2883823F001032362236A1C
:1027B00023F004032362FFF7B9F90646236A98075A
:1027C000D3D5FFF7B3F9801B4045F7D91CE7052B9C
:1027D000236A03D143F004032362BAE723F0010321
:1027E0002362236A23F00403B6E7FFF79FF9A0EB07
:1027F0000800B042B6D907E700100240000042428C
:102800008004424200000020007000402A4B5A68B9
:102810001C4602F00C02082A3DD00023274E022855
:1028200033602BD1FFF782F90746236899011FD443
:102830002B6AB3F5803F05D16268A96822F40032A3
:102840000A436260696A62680B4322F4741213439C
:10285000636001233360FFF769F9054623689A0135
:102860003FF5A8AEFFF762F9401B0228F6D9CBE688
:10287000FFF75CF9C01B0228D7D9C5E6FFF756F968
:10288000054623689B017FF595AEFFF74FF9401B86
:102890000228F6D9B8E601283FF4B7AE58682B6A8B
:1028A00000F480329A427FF471AE6B6A00F47010CB
:1028B000C01A18BF0120A8E6001002406000424282
:1028C00030B5194B87B002AC03F1100522461868E9
:1028D0005968083303C2AB421446F7D101238DF87F
:1028E0000430022311498DF805304B6803F00C02C7
:1028F000082A17D1C3F3834206A80244DB0312F867
:10290000102C0CD54B680A48C3F34043504306AA29
:10291000134413F8143CB0FBF3F007B030BD054886
:102920005043FAE70248F8E7BC4F000800100240A5
:1029300000127A0000093D002DE9F0410D460446E1
:1029400010B90120BDE8F081454A136803F0070380
:102950008B4229D321688E0731D4CA0744D4404A18
:10296000136803F007039D4267D322683D4D12F0C0
:10297000040F6ED1130706D56B68226923F46053E8
:1029800043EAC2036B60FFF79BFF6B68364AC3F3F1
:102990000313D35CD840354B1860354B1868FEF7ED
:1029A0007DFF0020BDE8F081136823F007030B438F
:1029B0001360136803F007039942C2D1CAE7294B99
:1029C00011F0040F1EBF5A6842F4E0625A60080713
:1029D00042BF5A6842F460525A605A68A06822F0B6
:1029E000F00202435A60B8E762681E4E012A33685B
:1029F0001BD113F4003FA4D0736841F2883823F050
:102A0000030313437360FFF791F807467368626826
:102A100003F00C03B3EB820FA1D0FFF787F8C01BC4
:102A20004045F3D90320BDE8F081022A02D113F01A
:102A3000007FE0E713F0020FDDE7136823F00703E0
:102A40002B431360136803F007039D427FF479AFB3
:102A50008BE76B68E16823F4E0630B436B6089E705
:102A60000020024000100240CC4F0008000000206F
:102A700008000020044B054A5B68C3F30223D35CC3
:102A8000034A1068D840704700100240DC4F00082D
:102A900000000020044B054A5B68C3F3C223D35CEB
:102AA000034A1068D840704700100240DC4F00080D
:102AB000000000200F2303600B4B5A6802F0030252
:102AC00042605A6802F0F00282605A6802F4E062E2
:102AD000C2605B68DB0803F4E0630361034B1B68BF
:102AE00003F007030B607047001002400020024013
:102AF00003682DE9F341D907054620D5354CE36934
:102B0000DA0032D40127E36943F08053E361E369DB
:102B100003F080530193019B2F4E3368DB0526D5CC
:102B2000236A13F4407336D1236A6A6823F440732E
:102B3000134323621FB1E36923F08053E3612868E4
:102B4000830706D5234AA968536823F440430B43FF
:102B5000536010F010001BD01E4AE9685368002033
:102B600023F480030B43536012E00027D4E733685B
:102B700043F480733360FEF7D9FF80463368D8058D
:102B8000CED4FEF7D3FFA0EB08006428F6D90320CB
:102B900002B0BDE8F0816A6802F440729342C3D08B
:102BA00001200E4A236A1060002023F44071106057
:102BB0002162D907B8D5FEF7B9FF41F28838064639
:102BC000236A9A07B0D4FEF7B1FF801B4045F7D9BE
:102BD000DDE700BF001002400070004040044242A8
:102BE00090F83D30012B20D1022380F83D3003685E
:102BF000DA6842F00102DA600D4A93420AD0B3F17A
:102C0000804F07D0A2F59432934203D002F5806240
:102C1000934204D19A6802F00702062A03D01A6888
:102C200042F001021A60002070470120704700BF87
:102C3000002C01400368DA6822F00102DA6041F2F8
:102C40001112196A114208D140F24442196A114224
:102C500002BF1A6822F001021A60012380F83D3099
:102C6000002070477047704770477047704703688F
:102C700010B51A69044691070ED5DA6892070BD58C
:102C80006FF002021A6101229B6902779B0777D0DD
:102C9000FFF7EAFF0023237723681A69500710D54E
:102CA000DA6851070DD56FF004021A6102229B69A0
:102CB000227713F4407F204668D0FFF7D5FF00232A
:102CC000237723681A6912070FD5DA6810070CD525
:102CD0006FF008021A610422DB6922779907204607
:102CE0005AD0FFF7C1FF0023237723681A69D20661
:102CF00010D5DA68D0060DD56FF010021A610822DF
:102D0000DB69227713F4407F20464BD0FFF7ACFFFE
:102D10000023237723681A69D10708D5DA68D20718
:102D200005D56FF0010220461A61FEF771FA23689B
:102D30001A69100608D5DA68110605D56FF0800209
:102D400020461A6100F099F923681A69520608D5DD
:102D5000DA68500605D56FF0400220461A61FFF789
:102D600085FF23681A69910622D5DA6892061FD575
:102D70006FF020022046BDE810401A6100F07CB9D7
:102D8000FFF771FF2046FFF770FF83E7FFF76BFF48
:102D90002046FFF76AFF92E7FFF765FF2046FFF73F
:102DA00064FFA0E7FFF75FFF2046FFF75EFFAFE796
:102DB00010BD00001A4A036890420AD0B0F1804F5B
:102DC00007D0A2F59432904203D002F5806290427F
:102DD00015D14A6823F070031343114A90420AD078
:102DE000B0F1804F07D0A2F59432904203D002F5A3
:102DF0008062904203D1CA6823F4407313434A6946
:102E000023F08003134303608B68C3620B68836203
:102E1000034B984204BF0B6903630123436170476E
:102E2000002C014010B5044630B390F83D3003F05B
:102E3000FF021BB980F83C20FEF7DCFD022320686E
:102E400084F83D30211DFFF7B5FF0123002084F8F1
:102E5000463084F83E3084F83F3084F8403084F8BF
:102E6000413084F8423084F8433084F8443084F8A8
:102E7000453084F83D3010BD012010BD38B50D46F9
:102E8000044630B390F83D3003F0FF021BB980F8E0
:102E90003C20FFF7E7FE0223211D84F83D30206827
:102EA000FFF788FF236800201A6822F008021A60E2
:102EB000196829431960012384F8463084F83E30AC
:102EC00084F83F3084F8423084F8433084F83D3051
:102ED00038BD012038BD10B584680A4324F47F440E
:102EE00042EA03232343836010BD90F83C3070B561
:102EF000012B04464FF0020019D0012384F83D0055
:102F0000206884F83C30836823F47F4323F0770300
:102F100083600B68402B65D015D8102B0CD007D8D8
:102F200053B10123002084F83D3084F83C0070BD8B
:102F3000202B01D0302BF4D1826843F0070322F01C
:102F4000700213431AE0602B34D019D8502BE8D10B
:102F50004A68CE68016A056A21F00A0125F0010578
:102F6000056283690A4323F0F00343EA0613836191
:102F70000262836823F0700343F057038360D0E755
:102F8000702B0CD0B3F5005FCBD1CB684A68896851
:102F9000FFF7A1FF2268936843F4804308E0CB6801
:102FA0004A688968FFF797FF2268936843F07703C0
:102FB0009360B6E74D68CE68016A21F010010162A6
:102FC0008269036A22F4704223F0A00343EA0513E6
:102FD00042EA063282610362836823F0700343F0A1
:102FE0006703CBE74A68CE68016A056A21F00A01E7
:102FF00025F00105056283690A4323F0F00343EAE3
:10300000061383610262836823F0700343F0470371
:10301000B4E7000090F83C3030B5012B4FF00203CC
:1030200025D0012280F83D3003680D685C6880F887
:103030003C2024F070042C439A685C600D4CA34241
:103040000AD0B3F1804F07D0A4F59434A34203D043
:1030500004F58064A34204D1496822F080020A4347
:103060009A60012380F83D30002380F83C301846F8
:1030700030BD00BF002C0140704770470368DA681C
:1030800022F49072DA605A6922F001025A61202318
:1030900080F83A307047000038B504460368C168CC
:1030A0001A6922F440520A431A6182680069D96899
:1030B0000243606921F4B05121F00C0102430A433C
:1030C000DA605A69A16922F440720A435A610E4AD1
:1030D000934215D1FFF7DEFC19235843636864223D
:1030E0009B00B0FBF3F0B0FBF2F102FB11031B01FC
:1030F0003233B3FBF2F3256803EB0113AB6038BD49
:10310000FFF7B8FCE8E700BF0038014010B50446FF
:1031100040B390F8393003F0FF021BB980F8382033
:10312000FEF7A2FC2423226884F83930D3682046B5
:1031300023F40053D360FFF7AFFF236800201A6920
:1031400022F490421A615A6922F02A025A61DA681E
:1031500042F40052DA602023E06384F8393084F8C6
:103160003A3010BD012010BD90F83A30202B20D10C
:10317000E9B1E2B190F83830012B1AD0C2858285CE
:1031800000232222C36380F83A2002688162D1685A
:1031900080F8383041F48071D1605169184641F0AF
:1031A00001015161D16841F02001D16070470120D7
:1031B000704702207047704790F83A3010B5222BC4
:1031C00032D18168836AB1F5805F026820D10169DC
:1031D00009BB5268C2F3080223F8022BC48D836234
:1031E000013CA4B2C4858CB90368DA6822F02002DD
:1031F000DA60DA6822F48072DA605A6922F0010239
:103200005A61202380F83A30FDF7CEFF002010BD30
:1032100031B9016921B952681A70836A0133DDE757
:10322000526802F07F02F7E7022010BD70470000ED
:10323000036870B51A6804461607D9685D6907D136
:1032400096065CD58D065AD5BDE87040FFF7B4BF31
:1032500015F0010502D111F4907F50D0D00705D5AB
:10326000CB0542BFE36B43F00103E363560704D58C
:103270001DB1E36B43F00203E363900704D51DB176
:10328000E36B43F00403E363130706D58E0600D413
:103290001DB1E36B43F00803E363E36B002B64D0E1
:1032A000950604D5880602D52046FFF785FF2368DA
:1032B00020465D69E26B110702D415F040051AD073
:1032C000FFF7DCFE23685A69520610D55A69606B15
:1032D00022F040025A6150B1244B4363FEF778FF5D
:1032E000002842D0606BBDE87040436B1847204611
:1032F000FFF79CFF70BDFFF799FFE56370BD1606F1
:1033000025D50D0623D594F83920212A2DD1A26880
:10331000B2F5805F226A15D1216999B932F8021B92
:10332000C1F3080159602262E28C013A92B2E28450
:10333000DAB9DA6822F08002DA60DA6842F0400234
:10334000DA6070BD511C216212785A60ECE75006B9
:103350000BD54A0609D5DA68204622F04002DA6029
:10336000202384F83930FFF726FF70BD7133000841
:1033700008B50023406AC385C384FFF757FF08BD23
:1033800008B500F0D7FC002008BD70B505464669B9
:103390000B4686B0406829682A69B5F9084076B1BD
:1033A000AD6965B1842C0CBF0024033402958DE80F
:1033B000500000F05BFC0590059806B070BD842CB1
:1033C0000CBF0024033405AD92B28DE8300000F04C
:1033D00084FC0128F0D00020EFE708B5002808BFE2
:1033E000012000F0EFFD002008BD00001FB5002205
:1033F00004AB029243F8042DEFF30582BAB102AA9E
:103400000092012200F0E8FE012804D04FF00040B5
:1034100005B05DF804FB029B3BB14FF08052074BB7
:103420001A60BFF34F8FBFF36F8F0398F0E701224D
:1034300000F06AFE0128F8D0E8E700BF04ED00E0E4
:10344000002330B585B0044615460293EFF305809E
:1034500010B18223019307E0134602AA00F010FE88
:1034600001280BD045B9019504AB13E9070084E8A6
:103470000700204605B030BD4023EBE7029B002B40
:10348000B4BF86230823E5E700F1080343604FF04B
:10349000FF32C36003610023826003607047002332
:1034A0000361704743689A684B608A609A6851600C
:1034B0009960036808610133036070470A6830B59A
:1034C000531C0AD103695A684A6091608B60596045
:1034D000036808610133036030BD00F108035C68D4
:1034E0002568AA42EFD32346F9E741688268036959
:1034F0008A60826851605968884208BF5A60002219
:1035000002611A68013A1A6018687047002382B095
:1035100001930D4B1B68013308D04FF0500383F328
:103520001188BFF36F8FBFF34F8FFEE74FF050034B
:1035300083F31188BFF36F8FBFF34F8F019B002B75
:10354000FCD002B0704700BF0C00002006480068A5
:10355000006880F3088862B661B6BFF34F8FBFF38F
:103560006F8F00DF00BF000008ED00E04FF08073B8
:1035700040F8043C054B21F0010140F8081C40F8DC
:103580000C3C40F8202C4038704700BF0D35000837
:10359000074B19680868B0E8F00F80F30988BFF39B
:1035A0006F8F4FF0000080F311884EF00D0E7047C2
:1035B000340F00204FF0500383F31188BFF36F8F57
:1035C000BFF34F8F0A4A13680133012B13600DD1EB
:1035D000084B1B6813F0FF0F08D04FF0500383F324
:1035E0001188BFF36F8FBFF34F8FFEE7704700BFA7
:1035F0000C00002004ED00E0084A136843B94FF0C6
:10360000500383F31188BFF36F8FBFF34F8FFEE733
:10361000013B13600BB983F3118870470C00002045
:10362000EFF30980BFF36F8F0D4B1A6820E9F00F9D
:1036300010602DE908404FF0500080F3118800F031
:10364000E5FC4FF0000080F31188BDE808401968E0
:103650000868B0E8F00F80F30988BFF36F8F7047F8
:10366000340F002008B54FF0500383F31188BFF3E7
:103670006F8FBFF34F8F00F09BFB18B14FF080525C
:10368000024B1A60002383F3118808BD04ED00E0AB
:103690000023084A084913600B604FF47A71074B06
:1036A0001B68B3FBF1F30649013B0B600723136072
:1036B000704700BF10E000E018E000E000000020CC
:1036C00014E000E013B5274B00211A78D2B2019222
:1036D000FF221A701B78244ADBB28DF803309DF864
:1036E000033003F0500313700722204B1A609DF83B
:1036F0000300541E00060DD401B11A601A68032A93
:1037000011D04FF0500383F31188BFF36F8FBFF3D5
:103710004F8FFEE79DF8032001215200D2B28DF8B1
:1037200003202246E3E70024120202F4E0621A605A
:10373000019B0C4ADBB213700D4B1A6842F4700205
:103740001A601A6842F070421A60FFF7A1FF094B35
:103750001C60FFF7FBFE00F059FCFFF7D7FE204688
:1037600002B010BD00E400E01403002018030020A4
:1037700020ED00E00C000020EFF305830F2B0ED9A5
:10378000104A9B5C104A12789A4208D94FF05003B5
:1037900083F31188BFF36F8FBFF34F8FFEE70B4B9F
:1037A0000B4A1B68126803F4E063934208D94FF098
:1037B000500383F31188BFF36F8FBFF34F8FFEE782
:1037C000704700BFF0E300E0140300200CED00E0C0
:1037D0001803002010B50F4B1A68824218D35C689A
:1037E0001919884201BF416818460919596044688F
:1037F00001198A4207D1084909688A421FBF5168E6
:103800001268091941609842026018BF186010BD23
:103810001346E1E72C0F00201C0300202DE9F041A6
:10382000044600F0BDFA3E493E4D0B680BBB3E4AD4
:1038300056071DBFD01D20F0070002F540634FF46E
:1038400040631CBF02461B1A00201344374E083B3E
:1038500023F0070370603260586018600B60981A9C
:103860001360334B50601860324B18604FF00043C8
:103870002B602F68274216D1002C40D004F108039A
:1038800058071CBF23F00703083363B1294A1668A1
:103890009046B34207D8254A15686868834204D821
:1038A00009688D4207D1002429E02C68002CF7D04C
:1038B0002A462546F1E7296814681160C21A102AC1
:1038C0000FD9E818410708D04FF0500383F311884F
:1038D000BFF36F8FBFF34F8FFEE742606B60FFF760
:1038E00079FF6B681249F61A1F4300230868C8F86D
:1038F0000060864238BF0E6008346F602B6000F0B5
:10390000E9FA630708D04FF0500383F31188BFF33F
:103910006F8FBFF34F8FFEE72046BDE8F08100BFF9
:103920001C030020200F0020200300202C0F00206B
:10393000280F0020240F002010B5044670B3184A49
:1039400050F8043C1268134208D14FF0500383F33F
:103950001188BFF36F8FBFF34F8FFEE750F8081C3D
:1039600041B14FF0500383F31188BFF36F8FBFF362
:103970004F8FFEE723EA020340F8043C00F010FA00
:10398000084A54F8043C1168A4F108000B44136081
:10399000FFF720FFBDE8104000F09CBA10BD00BF4B
:1039A000200F0020240F00202DE9F0410646FFF7EC
:1039B00001FE2D4B2D4C1A682D4F01321A602568DF
:1039C000002D45D126601B68012B1CD178191435B8
:1039D000FFF75AFD8C2DF9D1DFF8C080254D404608
:1039E000FFF752FD2846FFF74FFD2348FFF74CFD38
:1039F0002248FFF749FD2248FFF746FD214BC3F857
:103A00000080214B1D60214A214913680868013359
:103A100013600123F26A9340034314200B6000FB00
:103A20000270311DFFF73EFDFFF7E6FD194B1B68E5
:103A300063B12368DA6AF36A9A4207D24FF0805280
:103A4000154B1A60BFF34F8FBFF36F8FBDE8F08146
:103A5000104B1B68002BD6D12368DA6AF36A9A42AE
:103A600098BF2660CFE700BFCC0F0020340F0020A6
:103A7000400F0020F80F00201410002040100020FC
:103A80002C100020380F00203C0F0020DC0F0020FD
:103A9000E00F00202810002004ED00E0E40F0020DB
:103AA000064A13681968064B19B94FF0FF321A60BD
:103AB00070471268D268D2685268F8E7380F002061
:103AC0000C1000202DE9F04781460A9C02F180424B
:103AD000266B013A06EB8206DDF824809A4626F032
:103AE00007064B1E04F134020F31587802F8010B1F
:103AF00013F8010F08B18B42F7D1089D0027062D5E
:103B000028BF0625201DE562656484F84370A7641C
:103B1000FFF7C5FCC5F1070504F11800FFF7BFFC6E
:103B2000E7642461A561646284F850705246494696
:103B30003046FFF71BFD2060B8F1000F01D0C8F838
:103B40000040BDE8F08710B590F8513004463BB90D
:103B5000006BFFF7F1FE2046BDE81040FFF7ECBE1A
:103B6000012BF9D0022B08D04FF0500383F31188BA
:103B7000BFF36F8FBFF34F8FFEE710BD80B5DFF847
:103B80005C80124F124C134D236863B9124B1B68B3
:103B9000012BF8D94FF08053C8F80030BFF34F8F96
:103BA000BFF36F8FEEE7FFF705FDFB68DE68301DA2
:103BB000FFF79BFC2B68013B2B602368013B2360D4
:103BC000FFF71AFD3046FFF7BEFFDDE7401000208B
:103BD000D00F0020CC0F0020400F002004ED00E0AB
:103BE000F8B51B4B1B4E1D68044630680F46043069
:103BF000FFF77BFC334640B901203168164EC96A95
:103C00003268884022EA00023260621C07D137B174
:103C1000196812480431BDE8F840FFF743BC2C4452
:103C20001A68A542546007D90D4A10681968BDE8A2
:103C3000F8400431FFF742BC0A4A106819680431A1
:103C4000FFF73CFC084B1A68944238BF1C60F8BD73
:103C500054100020340F0020E00F00202C10002012
:103C60003C0F0020380F00200C10002070B586B0EB
:103C70000B9D0C9C45B94FF0500383F31188BFF3A3
:103C80006F8FBFF34F8FFEE744B94FF0500383F3BC
:103C90001188BFF36F8FBFF34F8FFEE75426049652
:103CA000049E542E08D04FF0500383F31188BFF3C5
:103CB0006F8FBFF34F8FFEE72563022584F85150C5
:103CC00005AD01950A9D02940095FFF7FBFE204685
:103CD000FFF76AFE059806B070BD2DE9F043074670
:103CE00085B09000884616469946FFF797FD054631
:103CF000E8B15420FFF792FD0446A8B1002380F8F4
:103D000051300D9B056301930C9B0290009332464A
:103D10004B4641463846FFF7D5FE2046FFF744FEA6
:103D2000012005B0BDE8F0832846FFF705FE4FF0FF
:103D3000FF30F6E710B5002488B007AA06A905A849
:103D400005940694FDF760FC059B00940293069B86
:103D5000079A01930D4923460D48FFF787FF90B15D
:103D60004FF0500383F31188BFF36F8FBFF34F8F72
:103D70004FF0FF32074B1A600122074B1A60074BC6
:103D80001C60FFF79FFC08B010BD00BFE44F0008A7
:103D90007D3B00080C10002028100020541000204B
:103DA000024A136801331360704700BFD80F002028
:103DB0002DE9F84F3C4B1B68002B53D13B4B1C6843
:103DC00001341C60BCB93A4B1A68126842B14FF01A
:103DD000500383F31188BFF36F8FBFF34F8FFEE75C
:103DE000344A1968106818601160334A1368013347
:103DF0001360FFF755FE314D4FF0000B2B68304F2D
:103E00009C423ED3DFF8A880DFF8C490D8F80020A9
:103E1000126872BB4FF0FF322A6032E006F1040AEA
:103E20005046FFF762FBB16A19B106F11800FFF7BF
:103E30005CFB01224FF0140EF06AD9F8003002FA50
:103E400000F119431F4BC9F800100EFB003051461A
:103E5000FFF728FB3868F16AC26A914228BF4FF029
:103E6000010BD3E7184A4FF0000B136801331360BE
:103E700011E0D8F80020D268D66871688C42CDD2A3
:103E800029603A680F4BD16A14224A439A58022A91
:103E900028BF4FF0010B0D4A1268002A18BF4FF0DF
:103EA000010B5846BDE8F88FD80F002054100020B1
:103EB000380F00203C0F0020101000200C100020B4
:103EC000340F0020400F0020D40F00205810002095
:103ED000E00F00202DE9F843314C236843B94FF03F
:103EE000500383F31188BFF36F8FBFF34F8FFEE74B
:103EF000FFF760FB2368013B236024682CB100249A
:103F0000FFF77AFB2046BDE8F883264B1B68002BA1
:103F1000F5D0DFF8A890244FDFF8A480D9F800305E
:103F2000E3B90CB1FFF7BCFD204D2C6844B101276B
:103F30001F4EFFF73DFF00B13760013CF9D12C6007
:103F40001B4B1B68002BDAD04FF08052194B1A60C4
:103F5000BFF34F8FBFF36F8F0124D1E7D9F80C3037
:103F60000125DC68261D04F11800FFF7BEFA304673
:103F7000FFF7BBFA1420E26A396805FA02F30B4333
:103F800000FB028031463B60FFF78CFA0A4BE26A85
:103F90001B68DB6A9A4224BF054B1D60BEE700BF69
:103FA000D80F0020CC0F0020E00F0020D40F0020FD
:103FB0005810002004ED00E0340F00201410002001
:103FC000400F002008B540B94FF080520D4B1A60E9
:103FD000BFF34F8FBFF36F8F08BD0B4B196841B113
:103FE0004FF0500383F31188BFF36F8FBFF34F8FF0
:103FF000FEE7FFF7D5FEFFF7F3FDFFF76BFF0028A5
:10400000E2D008BD04ED00E0D80F0020174B10B53A
:104010001A68174B12B101221A6010BD1A60154BB5
:104020001B68B3FA83F31422DBB2C3F11F035A43B4
:1040300011498C58881844B94FF0500383F3118804
:10404000BFF36F8FBFF34F8FFEE744680832646899
:104050000A44944208BF6268446008BF4260142268
:1040600002FB03135B68DA68044BD5E7D80F002026
:1040700058100020E00F0020400F0020340F0020D7
:104080002DE9F0411E4C1E4680460F461546FFF7AF
:1040900091FA236893F85030022B14D00121236841
:1040A000DA6C22EA0802DA64236883F8501056B109
:1040B0003046FFF795FD4FF08052124B1A60BFF368
:1040C0004F8FBFF36F8FFFF797FAFFF773FA15B1B2
:1040D0002368DB6C2B602368002293F85030022B9E
:1040E00009BF012500252368D96C04BFB943D964F1
:1040F000236883F85020FFF77FFA2846BDE8F08157
:10410000340F002004ED00E0F8B50F4616461D46BA
:10411000044640B94FF0500383F31188BFF36F8F0B
:10412000BFF34F8FFEE7FFF745FA0DB1E36C2B604D
:10413000022394F85050721EEDB284F85030032AD6
:104140000AD8DFE802F002060410E16C0F43E764CE
:1041500002E0E36C0133E364012D08D00125FFF791
:104160004BFA2846F8BD022DF1D10025F7E7261DB0
:104170003046FFF7BAF91449E26A086805FA02F313
:10418000034314200B60114B314600FB0230FFF754
:1041900089F9A36A43B14FF0500383F31188BFF349
:1041A0006F8FBFF34F8FFEE7094BE26A1B68DB6A34
:1041B0009A42D3D94FF08052064B1A60BFF34F8F0B
:1041C000BFF36F8FCBE700BFE00F0020400F002050
:1041D000340F002004ED00E02DE9F843089F8946E4
:1041E00090461D46044640B94FF0500383F31188B2
:1041F000BFF36F8FBFF34F8FFEE7FFF7BDFAEFF30B
:1042000011864FF0500383F31188BFF36F8FBFF314
:104210004F8F0DB1E36C2B60022394F8505008F1DE
:10422000FF32EDB284F85030032A07D8DFE802F0FD
:10423000020D1311E16C41EA0901E164012D0DD079
:10424000012086F31188BDE8F883E36C0133E36451
:10425000F4E7022D33D0C4F84C90EFE7A36A43B1E2
:104260004FF0500383F31188BFF36F8FBFF34F8F6D
:10427000FEE7144B1B68DBB904F104084046FFF766
:1042800034F9114A1420E36A11689D400D434146F8
:1042900015600E4A00FB0320FFF704F90C4BE26A9D
:1042A0001B68DB6A9A42CBD901202FB13860C8E77E
:1042B00004F118010748EFE7074B1860C1E7002039
:1042C000BFE700BFD80F0020E00F0020400F002004
:1042D000340F00201410002058100020002103E0AB
:1042E0000B4B5B58435004310A480B4B42189A421F
:1042F000F6D30A4A02E0002342F8043B084B9A42F4
:10430000F9D3FDF739FB00F027FDFDF71FFA7047E1
:1043100048530008000000207C0000207C000020A2
:10432000B8110020FEE7000010B50446024B036000
:1043300000F0EAFB204610BD2850000810B50446E6
:10434000FFF7F2FF20460C2100F0BCFB204610BD19
:104350002DE9F041069E804696420F4614461D46C2
:1043600003D1194600F024FC58B9D8F808002246B9
:10437000036806961E6A39462B46B446BDE8F041EE
:1043800060470620BDE8F0812DE9F14F0E46194641
:104390008346174699460A9CDDF82CA0DDF830804C
:1043A0000D9D00F005FC90B1002E2C602F7109DBF3
:1043B0003444A0450CBF06240124AC71002001B098
:1043C000BDE8F08F0236F9D10123AB71F6E7444521
:1043D00004D15146584600F0EBFB88B9DBF80800E1
:1043E0003A4603680D95CDF83080CDF82CA00A949C
:1043F000DC6931464B46A44601B0BDE8F04F60474A
:104400006F71DBE72DE9F04104460D4616461F4665
:1044100000F08EFB48B9A0683246036829469C69C3
:104420003B46A446BDE8F0416047BDE8F08100F09E
:10443000B7BC1EB400F09BF81EBCFCF70FFC037861
:10444000472B17D143784E2B14D18378552B11D19C
:10445000C378432B0ED10379432B0BD143792B2BFC
:1044600008D183792B2B05D1C07901288CBF00207E
:1044700001207047002070472DE9F3411E46037864
:104480000D46472B0246C17947D143784E2B44D184
:104490008378552B41D1C378432B3ED10379462BEA
:1044A0003BD143794F2B38D18379522B35D1002919
:1044B00033D1012308460024019433BB38BB0129C2
:1044C0000ABF52F8203CA2F12003783B01290CBF1F
:1044D00052F8202C58321C680192236820469B68B1
:1044E0009847B0B10227019B1B6801932B6801AA72
:1044F000D3F81080214601232846C04758B1019BBC
:104500003360384602B0BDE8F081084CE5E7084C5E
:10451000E3E70127EAE70746F3E71046FFF78FFFD7
:1045200080F00100C0B20023C5E700BFC050000802
:10453000C850000810B5044600F0FCFB02462046B7
:10454000A4F12001FFF77BFF60B154F8043C013374
:10455000012B44F8043C03D1936844F8083C916073
:10456000012010BD9368002BF9D000F0CBFB10B5F3
:1045700000F0E0FB826801460AB900F0C3FB02F1DB
:1045800020042046FFF75BFF40B1D369013BD361B4
:1045900013B9906988609361204610BD8860FBE77D
:1045A000002370B5A0EBC006C0EBC00210F8015BA1
:1045B000941905F07F02A24013432A06F4D40B603D
:1045C00070BD00231A4630B510F8014B04F07F058A
:1045D00095402B43250602F10702F5D41F2A06D881
:1045E000640642BF4FF0FF3404FA02F213430B603B
:1045F00030BD5028F7B505460E4614461F4607D174
:10460000D01C20F0030050F8043B3B6003B0F0BD29
:1046100000F00F030C2B2ED8DFE803F025071D2533
:10462000292D2D2D2D182125290001A92046FFF720
:10463000B7FF019B002BE8D005F07002102A08BFDD
:1046400026462A06334448BF1B68DEE701A92046F8
:10465000FFF7B7FFEDE7204630F8023BEAE72046D8
:1046600030F9023BE6E7204650F8043BE2E72046FB
:1046700050F8083BDEE700F061FB08B50346FF2B6E
:10468000084607D003F07003202B0DD004D80BB1DF
:10469000102B07D1002008BD402B0DD0502BF9D096
:1046A000302B05D000F04AFBBDE80840FCF7D8BC31
:1046B000BDE80840FCF7D8BCBDE80840FCF7C0BC2A
:1046C00070B50C460146204615461E46FFF7D5FF3D
:1046D00033462A4601462046BDE87040FFF789BFB1
:1046E00073B50E461446054618B3FCF7A9FC2060C6
:1046F0003178721CFF291DD0231D2846FFF7E0FFEB
:1047000002461378501CFF2B237515D0102301A9E6
:104710002375FFF745FF019B0344E360037801A97C
:1047200063750130FFF73CFF019B0344236102B036
:1047300070BDDCE76060E4E70023EEE71FB503AB84
:10474000009300230A461946FBF7DEFE039805B0E6
:104750005DF804FB00232DE9F04F91B0049300F0C5
:104760000303012B07460C46164611D003D3022B38
:1047700003D000F0E3FA02071AD531462046FCF7D1
:1047800049FC18B1092011B0BDE8F08F0820FAE704
:1047900000F0080505F0FF0885BBD1F82090104611
:1047A0000D21FFF7CBFF814540F04081062500E059
:1047B000012510AB43F82C4D0093002307F00807A8
:1047C0003D430C2219463046FBF7C4FE062D40F04F
:1047D0003981D4F83080A76AB8F1000F0CBF4FF0D0
:1047E000010A4FF0030AE16A15F0080500F0CE80D7
:1047F000BAF1010F40F0C68000F084FA0225D8E734
:10480000079A13449F4280F03781DDF82080B8F189
:10481000000F01D00B9B9844099F17B1781E0E9F83
:104820000744B8F1000FA8D0002F00F0A18015F0C8
:104830000803029336D0472323704E236370552319
:10484000A3704323E370462323714F2363715223E4
:10485000A3710023E3714FF0000A6FF0030B07A967
:104860003846FFF7AEFE08A90390FFF7AAFE079AA5
:10487000002A76D03DDD9DF83C00FF2835D000F0C1
:104880000703042B3FF675AF01A151F823F000BFD9
:10489000EF48000873470008B7480008EF480008D1
:1048A000E7480008E379012B0CBF54F8203C04F1E1
:1048B00058030493CFE702270D9909AB07FB1212A7
:1048C0000C99FFF796FE099969B32CB104AB00224D
:1048D0002046FFF7D1FD30BB089F002F44D0039B3B
:1048E0003B441F46BBE70827E6E70027E4E7042729
:1048F000E2E70D9F01326CB3029B5BBB0BFB0272C4
:10490000049B171F069357F8041F41B106AB002202
:1049100039442046FFF7B0FD0028F4D0012181F092
:1049200001010029D8D04FF0030A079FEB0727D5D4
:10493000BAF1020F3FF421AF0D213046049DFFF77D
:10494000FDFE65622062A762C4F82C90C4F8308036
:10495000062018E70BFB02F2B958B1FA81F14909B8
:10496000DFE74FF0010AB7E7BAF1000F3FF405AFF8
:104970004FF0020ADAE700274FF0010AB846D5E700
:10498000494631E7002F23DA00F0CEF9BAF1010FE2
:1049900002D1204600F03FF9002F19DA0AAA30466A
:1049A000FFF79EFE31469DF83C00FFF766FE6FF074
:1049B000030307FB03320D9B0C90134453F825208F
:1049C0000AB10135FAE70422A562E062226363635B
:1049D00010AB43F81C4D0093002330461A4619468D
:1049E000FBF7B8FD10AB43F8207D009300230122B4
:1049F00019463046FBF7AEFD0F213046FFF79EFE0D
:104A000000F0010010AB40EA080043F8240D0093C9
:104A100000230F2219463046FBF79CFDBAF1020F26
:104A200002D12046FFF786FD0720ACE610AA42F827
:104A30002C4D009243460C224146304645F002057B
:104A4000FBF788FD3046FCF701FB814600283FF468
:104A500094AE0AAA01463046FFF742FE3146804630
:104A60009DF83C00FFF709FE0F210C903046FFF740
:104A700065FE20F00100471E0E9B9845BFF47BAFFA
:104A8000424606AB9DF83D100020FFF719FE07AB2C
:104A900002469DF83D100020FFF712FE08AB0246CB
:104AA0009DF83D100020FFF70BFE09A9FFF778FDE8
:104AB000069A0A9B804613449F42BFF4A1AEDDF8DC
:104AC0003880D9E7FFF7B3BC7FB5102300240293E9
:104AD000036815469E6900946B468DF80440039464
:104AE0001268B0479DF8043003F00603062B09BF97
:104AF00001202046009B2B6004B070BD00989042BE
:104B00000CBF06200120704710B50446024B03601D
:104B100000F04BF8204610BD8450000810B5044644
:104B2000FFF7F2FF20460821FFF7CCFF204610BD1B
:104B300038B515461C4600F03BF820B10823E36069
:104B400006232560237138BD2DE9F04105460C464A
:104B500016461F4600F02CF848B9032F07D82368E3
:104B6000324629462046BDE8F0415B691847BDE85A
:104B7000F0812DE9F041069E9846089B07469E422B
:104B80001546099C03D1079900F012F858B941461F
:104B9000384600F00DF818B1012326602571A37185
:104BA0000020BDE8F0816571FAE77047002070478A
:104BB000814208B50ED0406803782A2B0CD0496892
:104BC0000B782A2B08BF0131FBF7C2FAB0FA80F04C
:104BD000400908BD012008BD002008BD0378472B0F
:104BE00017D143784E2B14D18378552B11D1C3782C
:104BF000432B0ED10379432B0BD143792B2B08D1B7
:104C000083792B2B05D1C07901288CBF002001208E
:104C100070470020704710B5044648B100F03BF8DB
:104C20002046FFF7DBFF18B154F8140C00F05DF8D4
:104C300000F068F838B50246FFF7D0FF40B1002514
:104C400052F8184C104600F026F825B100F06CF828
:104C500004460125F6E7204600F059F80378472B73
:104C600017D143784E2B14D18378552B11D1C378AB
:104C7000432B0ED10379432B0BD143792B2B08D136
:104C800083792B2B05D1C07901288CBF002001200E
:104C900070470020704738B5054600F04BF80146D4
:104CA00002682846A5F12004FFF7D8FF30B90AB101
:104CB00000F028F80C601446204638BD55F80C3C2E
:104CC0002846002BB4BFC3F10103013345F80C3C67
:104CD0004B68A24203F1FF334B601CBF45F8102C18
:104CE0000C606C6AFBF708FCE6E708B5804700F04B
:104CF00025F80000024B1868BFF35B8F704700BFB8
:104D00001000002008B5FFF7F5FFFFF7EEFF08B52C
:104D10008047FFF7F7FF0000024B1868BFF35B8F77
:104D2000704700BF1400002008B5FFF7F5FFFFF73C
:104D3000EEFF0000004870475C10002008B5062018
:104D400000F0BEF80120FCF711FE0000014B1868CE
:104D5000704700BF1800002070B500250C4E0D4CA8
:104D6000A41BA410A54209D100F0C8F800250A4EE2
:104D70000A4CA41BA410A54205D170BD56F82530DD
:104D800098470135EEE756F8253098470135F2E7A8
:104D900040530008405300084053000844530008A3
:104DA000024B0146186800F017B800BF1800002039
:104DB00010B5431E0A44914200D110BD11F8014BB9
:104DC00003F8014FF7E703460244934200D17047CE
:104DD00003F8011BF9E7000038B50546002943D068
:104DE00051F8043C0C1F002BB8BFE41800F084F805
:104DF0001E4A1368104633B9636014602846BDE844
:104E0000384000F07AB8A3420BD921686218934267
:104E100001BF1A685B685218226063600460EDE7A6
:104E200013465A680AB1A242FAD919685818A04222
:104E30000BD120680144581882421960DED11068F5
:104E40005268014419605A60D8E702D90C232B60DC
:104E5000D4E7206821188A4201BF116852680918F6
:104E6000216062605C60C9E738BD00BF6810002047
:104E70001F2938B504460D4604D9162303604FF0A8
:104E8000FF3038BD426C12B152F821304BB9204688
:104E900000F030F82A4601462046BDE8384000F0D0
:104EA00017B8012B0AD0591C03D116230360012027
:104EB00038BD0024284642F825409847002038BDD8
:104EC000024B01461868FFF7D3BF00BF180000204F
:104ED00038B50023064C0546084611462360FCF70A
:104EE0003DFD431C02D1236803B12B6038BD00BFD8
:104EF000B4110020FCF730BD70477047F8B500BF13
:104F0000F8BC08BC9E467047F8B500BFF8BC08BCAA
:044F10009E46704702
:104F1400426174746572794D616E61676572546142
:104F2400736B0000144F0008E91000080000000033
:104F3400000000000001000000000000000000006C
:104F44004C656455705461736B000000444F000855
:104F540015110008FFFF0000000000000001000020
:104F64000000000000000000000000007C4F00086A
:104F740095140008B514000884500008844F0008F4
:104F840031314C65644E6F74696669657200000066
:104F940064656661756C745461736B00944F0008AA
:104FA40075160008000000000000000080000000EA
:104FB40000000000000000000203040506070809C1
:104FC4000A0B0C0D0E0F1010000000000000000072
:104FD400010203040607080900000000010203049B
:104FE40049444C450000000028500008F84F0008D0
:104FF4004C5000084E31305F5F63787861626976A7
:105004003132305F5F73695F636C6173735F7479AE
:1050140070655F696E666F45000000000000000067
:10502400EC4F0008294300083D430008AD4B00083D
:10503400AD4B0008494B0008C94A00080544000864
:1050440089430008514300082850000858500008BC
:10505400A85000084E31305F5F63787861626976EA
:105064003131375F5F636C6173735F747970655F4F
:10507400696E666F45000000000000004C50000897
:10508400094B00081D4B0008AD4B0008AD4B000850
:10509400494B0008C94A0008314B0008734B00080B
:1050A400FD4A000884500008B05000085374397455
:1050B4007970655F696E666F0000000084500008B7
:1050C400D050000884500008F05000084E31305F82
:1050D4005F637878616269763131355F5F666F72DC
:1050E4006365645F756E77696E6445004E31305F49
:1050F4005F637878616269763131395F5F666F72B8
:105104006569676E5F657863657074696F6E450085
:105114000D970181B0B00B8400000000039701815A
:10512400B0B008840000000029F6FF7F840D9701C9
:10513400B0B0B008FFFF010D1604000026567E0033
:10514400880104000000000001970181B0B00884C8
:105154000000000001970181B0B008840000000045
:1051640001970181B0B00B84000000000197018118
:10517400B0B00B840000000001970181B0B0088436
:105184000000000003970181B0B00B840000000010
:1051940002970181B0B009840000000001970181E9
:1051A400B0B008840000000007970181B0B00B8400
:1051B4000000000001970181B0B0088400000000E5
:1051C40013970181B0B008840000000008B1018188
:1051D400B0B000840000000008B10181B0B00084C8
:0451E40000000000C7
:1051E8007CAFFF7F0100000010B0FF7FB0A90280F4
:1051F800ACB0FF7FB0B0A880FCB0FF7F010000001A
:1052080008B1FF7FB0B0AA8040B1FF7FAE71B28015
:1052180010B2FF7F010000000CB2FF7FAB3F388067
:1052280064B2FF7F0100000070B2FF7FB0B0AA80B7
:10523800ACB2FF7F0100000064B3FF7FAB0EB28009
:10524800D0B3FF7FB0AF0A8098B6FF7F010000009F
:105258009CB6FF7FAB3F0480E0B8FF7F01000000F1
:10526800BCBAFF7F00840480D0BAFF7F0100000031
:10527800CCBAFF7FB0AD048094BDFF7FB0A9048095
:10528800B8BDFF7F44FFFF7FBCBDFF7F48FFFF7FA6
:10529800C8BDFF7F01000000D0BDFF7F70FEFF7F0B
:1052A80040BEFF7F74FEFF7F64BEFF7F78FEFF7FF6
:1052B800F0BEFF7F90FEFF7F50BFFF7F94FEFF7F11
:1052C80088BFFF7F01000000B0BFFF7F90FEFF7F17
:1052D800E6BFFF7F94FEFF7F1CC0FF7F98FEFF7F25
:1052E80034C0FF7F0100000060C0FF7F94FEFF7F95
:1052F800C0C0FF7F98FEFF7F04C1FF7F9CFEFF7F39
:1053080020C1FF7F0100000028C3FF7F98FEFF7FB8
:105318005CC3FF7F9CFEFF7F64C3FF7F010000002A
:1053280024C4FF7F0884978046C4FF7F90FEFF7FD8
:0853380006C5FF7F0100000023
:04534000350100082B
:04534400110100084B
:105348000024F4000100000010000000AAAAAAAA84
:105358003D4D0008054D00081C000020000000001D
:105368000000000000000000000000000000000035
:105378000000000000000000000000000000000025
:105388000000000000000000000000000000000015
:105398000000000000000000000000000000000005
:1053A80000000000000000000000000000000000F5
:0C53B800000000000000000000000000E9
:04000005080042DDD0
:00000001FF
