:020000040800F2
:1000000000500020F5440008652100086721000821
:10001000692100086B2100086D2100080000000024
:10002000000000000000000000000000613A00082D
:100030006F21000800000000F13A0008353B00087D
:100040003D4500083D4500083D4500083D45000888
:100050003D4500083D4500083D4500083D45000878
:100060003D4500083D4500083D4500087121000858
:100070003D4500083D4500083D4500083D45000858
:100080003D4500083D4500083D4500083D45000848
:100090003D4500083D4500083D4500083D45000838
:1000A0003D4500087D2100083D4500083D4500080C
:1000B0003D4500083D4500083D4500083D45000818
:1000C0003D4500083D4500083D4500083D45000808
:1000D0003D4500083D4500083D45000889210008D0
:1000E000952100083D4500083D450008000000003E
:1000F0000000000000000000000000000000000000
:0C01000000000000000000005FF808F1A3
:1001100010B5054C237833B9044B13B10448AFF341
:1001200000800123237010BD840000200000000027
:100130003C51000808B5034B1BB103490348AFF31A
:10014000008008BD00000000880000203C5100082D
:1001500010F8012B11F8013B012A28BF9A42F7D071
:10016000D01A704780F0004002E000BF81F00041EB
:1001700042001FBF5FEA410392EA030F7FEA226C4D
:100180007FEA236C6AD04FEA1262D2EB1363C1BFDD
:10019000D218414048404140B8BF5B42192B88BF4C
:1001A000704710F0004F40F4000020F07F4018BF6F
:1001B000404211F0004F41F4000121F07F4118BF8F
:1001C000494292EA030F3FD0A2F1010241FA03FC37
:1001D00010EB0C00C3F1200301FA03F100F000431F
:1001E00002D5494260EB4000B0F5000F13D3B0F1E7
:1001F000807F06D340084FEA310102F10102FE2A56
:1002000051D2B1F1004F40EBC25008BF20F00100C5
:1002100040EA03007047490040EB000010F4000F73
:10022000A2F10102EDD1B0FA80FCACF1080CB2EB06
:100230000C0200FA0CF0AABF00EBC2505242184365
:10024000BCBFD0401843704792F0000F81F400010A
:1002500006BF80F400000132013BB5E74FEA4103DD
:100260007FEA226C18BF7FEA236C21D092EA030F49
:1002700004D092F0000F08BF0846704790EA010FC3
:100280001CBF0020704712F07F4F04D1400028BFF0
:1002900040F00040704712F100723CBF00F50000D2
:1002A000704700F0004343F0FE4040F40000704708
:1002B0007FEA226216BF08467FEA236301464202B4
:1002C00006BF5FEA412390EA010F40F480007047C7
:1002D0004FF0000304E000BF10F0004348BF40426D
:1002E0005FEA000C08BF704743F0964301464FF0A9
:1002F00000001CE050EA010208BF70474FF0000305
:100300000AE000BF50EA010208BF704711F0004345
:1003100002D5404261EB41015FEA010C02BF844615
:100320000146002043F0B64308BFA3F18053A3F574
:100330000003BCFA8CF2083AA3EBC25310DB01FABB
:1003400002FC634400FA02FCC2F12002BCF1004F3F
:1003500020FA02F243EB020008BF20F001007047D0
:1003600002F1200201FA02FCC2F1200250EA4C0024
:1003700021FA02F243EB020008BF20EADC7070476A
:100380004FF0FF0C1CEAD0521EBF1CEAD15392EA78
:100390000C0F93EA0C0F6FD01A4480EA010C400254
:1003A00018BF5FEA41211ED04FF0006343EA5010AE
:1003B00043EA5111A0FB01310CF00040B1F5000FF0
:1003C0003EBF490041EAD3715B0040EA010062F19F
:1003D0007F02FD2A1DD8B3F1004F40EBC25008BF89
:1003E00020F00100704790F0000F0CF0004C08BFA7
:1003F00049024CEA502040EA51207F3AC2BFD2F174
:10040000FF0340EAC250704740F400004FF0000381
:10041000013A5DDC12F1190FDCBF00F000407047BB
:10042000C2F10002410021FA02F1C2F1200200FAF9
:1004300002FC5FEA310040F1000053EA4C0308BFC0
:1004400020EADC70704792F0000F00F0004C02BF11
:10045000400010F4000F013AF9D040EA0C0093F08C
:10046000000F01F0004C02BF490011F4000F013BE6
:10047000F9D041EA0C018FE70CEAD15392EA0C0F54
:1004800018BF93EA0C0F0AD030F0004C18BF31F0BF
:10049000004CD8D180EA010000F00040704790F095
:1004A000000F17BF90F0004F084691F0000F91F039
:1004B000004F14D092EA0C0F01D142020FD193EAFF
:1004C0000C0F03D14B0218BF084608D180EA010087
:1004D00000F0004040F0FE4040F40000704740F063
:1004E000FE4040F4400070474FF0FF0C1CEAD05231
:1004F0001EBF1CEAD15392EA0C0F93EA0C0F69D08D
:10050000A2EB030280EA010C49024FEA402037D0F7
:100510004FF0805343EA111143EA10130CF00040EE
:100520008B4238BF5B0042F17D024FF4000C8B42DE
:1005300024BF5B1A40EA0C00B3EB510F24BFA3EBBE
:10054000510340EA5C00B3EB910F24BFA3EB91038E
:1005500040EA9C00B3EBD10F24BFA3EBD10340EAE8
:10056000DC001B0118BF5FEA1C1CE0D1FD2A3FF62E
:1005700050AF8B4240EBC25008BF20F001007047E3
:100580000CF0004C4CEA50207F32C2BFD2F1FF0386
:1005900040EAC250704740F400004FF00003013AB7
:1005A00037E792F0000F00F0004C02BF400010F45B
:1005B000000F013AF9D040EA0C0093F0000F01F06F
:1005C000004C02BF490011F4000F013BF9D041EA91
:1005D0000C0195E70CEAD15392EA0C0F08D14202C4
:1005E0007FF47DAF93EA0C0F7FF470AF084676E797
:1005F00093EA0C0F04D14B023FF44CAF08466EE770
:1006000030F0004C18BF31F0004CCAD130F000423D
:100610007FF45CAF31F000437FF43CAF5FE700BF95
:1006200003685A004CBF43F0004323F000431844D2
:10063000704700BF61B32DE9F84F01F1FF3A9046D2
:100640000646D146002707EB090404EBD474641076
:10065000E50071190846FFF7E3FFA245834605F15F
:100660000800304409D0FFF7DBFFC34500F1FF303D
:1006700005D8404509D2671CE5E7C34505D9A7421F
:1006800002D004F1FF39DEE700210846BDE8F88F0B
:1006900008467047012807D0022807D0044B0028DD
:1006A0000CBF184600207047024870470248704748
:1006B000A50D0008A90D0008AD0D000830B5254BAB
:1006C00083B004468D1E73B301A92846AFF30080A2
:1006D00018B301992A46FFF7ADFF0146E8B1FFF7CD
:1006E0009FFF4B68A064012B11D0002B22DB081D5B
:1006F000FFF796FF0023E06423650368002B1EDBF1
:10070000FFF78EFF00232061184603B030BD05239C
:1007100000221846226103B030BD0923002218468A
:10072000226103B030BD0C4B0C491846C91AC910E0
:100730000191CFE70123081DE0642365DDE7C3F3E2
:100740000360FFF7A7FF0028206114BF00230923DF
:10075000DAE700BF00000000A8540008385600087F
:10076000036810B5DA07044606D49B0700F1480079
:1007700009D500F057FC2368590709D51A070ED58B
:10078000DB0613D510BD00F045FC23685907F5D4EE
:1007900004F1D00000F04EFC23681A07F0D404F5F1
:1007A000A87000F04FFC2368DB06EBD404F5E8707A
:1007B000BDE8104000F08ABC036803B1034418464A
:1007C000704700BF09207047704700BF70B50446EE
:1007D0000D4608E02A6C2369626121462A46012001
:1007E0009847082808D1296C2046FFF767FF06467E
:1007F0000028EFD004F0B4FB0728FBD13046296C69
:10080000FFF7E2FF281D00F0F9FB00BF2DE9F047DC
:1008100005460027ADF5727D03AC0E1D92460FCE46
:100820000FC40FCE0FC40FCE0FC496E80F00D5F83B
:100830000C80D5F8189084E80F0002AC2846216C93
:100840002760FFF73BFFBAF1000F074614BF0A26E7
:1008500009267FB1A36B46F010018DE810022A46ED
:10086000636401202B46C04778BB38460DF5727D86
:10087000BDE8F087236C4FF4F0726B6121467AA8D3
:1008800004F0B6FB2B697AAA294630469847889B24
:1008900082468DE81002314663642A462B460120C9
:1008A000C04790B94FF4F0727AA9204604F0A0FB3B
:1008B000BAF1080F06D1216C2846FFF7FFFE092682
:1008C0000746C6E7BAF1070F05D0092738460DF5E8
:1008D000727DBDE8F0873846216CFFF775FF03A8ED
:1008E00000F08CFB406C7047F0B54FF0FF3ECB6BD7
:1008F000F9B00B640E1D01AD0F4604460FCE0FC5B7
:100900000FCE0FC50FCE0FC596E80F0085E80F007C
:10091000CDF800E006E023696A462146984708289A
:10092000054608D110992046FFF7C8FE0028F2D0EE
:10093000092079B0F0BD6846FFF712FF062DF7D108
:1009400039462046FFF742FF30B4DD6BC16082615B
:1009500019461D64002230BC58E700BF70B54369DA
:10096000C6680B6426B10122FFF750FF04F0F8FAC5
:1009700003690A4604460D460146022098470728A7
:1009800007D0082803D129462046FFF71FFF04F0AF
:10099000E7FA3046296CFFF717FF281D00F02EFB01
:1009A000C2682AB110B4CC6B00220C6410BC2DE7D5
:1009B0009AE700BF704700BF836813B1014601206A
:1009C0001847704700B5042907D8DFE801F003098C
:1009D000060909000BB90F2A05D902205DF804FBAE
:1009E00001205DF804FB00EB820252681846019B6F
:1009F0001A605DF804FB00BF002310B584B003AC9F
:100A00000A4600941946FFF7DDFF039804B010BDB5
:100A100000B5042907D8DFE801F003090609090039
:100A20000BB90F2A05D902205DF804FB01205DF8FF
:100A300004FB019900EB82020968184651605DF8D9
:100A400004FB00BF002310B584B004AC44F8042DAF
:100A500000940A461946FFF7DBFF04B010BD00BF43
:100A6000F0B54FF0FF3ED36BADF50F7D1364151D50
:100A700017AC07460E460FCD0FC40FCD0FC40FCDD8
:100A80000FC495E80F0084E80F00CDF858E012E09D
:100A90000C2116A86A46FFF7D5FF314616A8B847BD
:100AA00078B9049B16AA6946082098470528044689
:100AB00008D0092805D026996846FFF7FFFD0028D1
:100AC000E6D0092416A8FFF74BFE20460DF50F7D52
:100AD000F0BD00BF2DE9F04FCC6C914622688BB081
:100AE00004340D460792089400F0030B1E46002BB9
:100AF00060D10323120207928DF825608DF824300F
:100B00002B6DBBF1020F08BFAC6B13F0010340D19A
:100B1000019300F008030393D4F80080B8F1000FAC
:100B200039D0022E43D0B4F8008067880434AB6C0F
:100B300027F0010A0F2148469A44FFF75DFF8245DE
:100B400033D828F001039A4450452CBF00200120DF
:100B50007F0007F0020708F0010847EA0807012FA5
:100B60003ED035D3022F1CD1236823F000420292DD
:100B7000BBF1000F76D128B1039900297ED0002A5D
:100B800000F0A680002B77DB029B013304EB83048B
:100B9000C2E700230193022E3EDDFFF713FE00287B
:100BA00040D009200BB0BDE8F08F0020D0E7676887
:100BB0000834BCE7022BA3DC0221130C8DF825308E
:100BC0001204DBB204EB830407928DF8241097E73C
:100BD000BBF1000F02D0002840F0BD8004349BE739
:100BE000BBF1000F25D1A8B194E80C00991C4FEA85
:100BF000D272D6D005F158010133069100F0A380DE
:100C0000201DFFF7D9FD06AB0146284603F046FD3F
:100C1000002877D108347FE707A9484600F0F0FAAA
:100C20000028BED1019B002B5CD108200BB0BDE891
:100C3000F08F0D2148462F6AFFF7DEFE8742E9D18B
:100C4000AB6A9C42E6D12046FFF7EAFC0F21024640
:100C50004846FFF7F7FE48462A460021FFF7F2FE16
:100C600007209FE70D2148462F6AFFF7C5FE874200
:100C700058D02368002B87DA043485E7029B3BB306
:100C800005F15803271DCDF810B0DDF80C80A34600
:100C9000DDF808A01C46059602E0B245B04616D025
:100CA00038460694FFF788FD06AB01460022284629
:100CB00003F0F4FC08F1010604370028EDD0029B94
:100CC0005C464345DDF810B0059ED2D100E05C469D
:100CD00048460D21FFF790FE069B2862AC626B62CE
:100CE00006205FE70F214846FFF786FE0E210246E9
:100CF0004846FFF7A7FE4846294A0F21FFF7A2FE04
:100D000007204FE707460D214846FFF775FE022FE3
:100D100028621DD12B46069A43F82C2F6B62AC62D9
:100D200006203FE7AB6A9C42A3D104220027029928
:100D3000A318A962EF622A636B632368BB421DDBC1
:100D40000123019320E748460D21FFF755FE286255
:100D5000069B6B62E3E72046FFF762FC043406461D
:100D6000AC63284603F0F8FC00283FF41AAF48466D
:100D700032460F21FFF766FE072013E708460130D1
:100D800004EB8000FFF74CFC0F2102464846FFF7BA
:100D900059FE48462A463946FFF754FE072001E728
:100DA000594E0008002395E6012393E6022391E6BD
:100DB000F0B50446C5B004290DD8DFE801F05503AD
:100DC0000C310F00012B4FEA124695B264D1721913
:100DD000102A40F29D80022045B0F0BD002BFAD1D0
:100DE000102AF8D82368D80600F1C88022AE304611
:100DF0000192012500F074F90023A06B019A05FA15
:100E000003F1114203D00168043046F82310013386
:100E1000042BF4D1A063304600F058F90020DBE742
:100E2000032BD8D1150C97B2EB19102BD3D823680C
:100E30001E0700F1B78022AE304600F025F9ED0024
:100E4000A06B5FB1043D0346711900EBC70053F876
:100E5000042B834241F8042FF9D11846A063304691
:100E600000F0F0F80020B7E7002BB4D10127A56B04
:100E700096B2201D07FA03F1314203F1010302D0BB
:100E8000296804350160102B00F10400F2D112F43E
:100E900000503BD1A5639FE7052B9CD17719202FEC
:100EA00099D80F2E66D92F46002D3AD12A46002711
:100EB000002AA06B72DD00EBC202014644A800EBE1
:100EC000C6008C3851F8045B914240F8045FF9D1B8
:100ED000084697B1102E324638BF102244A901EBC4
:100EE000C202A2F5C4727900043A00EB810150F805
:100EF000045B884242F8045FF9D1012B48D00F2EE1
:100F0000A16333D917B102A800F094F8002063E779
:100F10000F2E3FF660AF00272268D10717D4002FAD
:100F200060D02268510745D4012B4DD00F2E06D832
:100F300022A8019300F07AF8019B002FB6D002A8F6
:100F4000019300F07BF8019BC6F11002B0E722F09C
:100F50000101052B2160019320463BD022F00302C2
:100F600040F8482B00F05AF8019BD8E722A800F07F
:100F700059F8C7E7102FCED9103FCDE723F0100363
:100F8000236004F5E870019200F0AAF8019A2DE7B9
:100F90000431A16322A800F03DF8B7E7002F99D1F2
:100FA0000146AAE723F00803236004F5A87000F0C7
:100FB0006BF840E7204622F0040240F8D02B019362
:100FC00000F03CF8019BAFE722A8019300F026F85F
:100FD000019BB9E741F0020140F8481B00F026F8F8
:100FE000019B9CE7012B03D00F2E3FF65FAF9FE7DD
:100FF00022A8019300F012F8019B57E700F1340199
:1010000091E838009C46A6464CF8045D90E8FF0F36
:10101000E54600BD90EC210B704700BF80EC210B32
:10102000704700BF90EC200B704700BF80EC200B96
:10103000704700BFD0EC200B704700BFC0EC200B06
:10104000704700BFF0EC0201F0EC0211F0EC02215D
:10105000F0EC0231F0EC0241F0EC0251F0EC0261F4
:10106000F0EC0271F0EC0281F0EC0291F0EC02A1E4
:10107000F0EC02B1F0EC02C1F0EC02D1F0EC02E1D4
:10108000F0EC02F1704700BFE0EC0201E0EC02116D
:10109000E0EC0221E0EC0231E0EC0241E0EC025134
:1010A000E0EC0261E0EC0271E0EC0281E0EC029124
:1010B000E0EC02A1E0EC02B1E0EC02C1E0EC02D114
:1010C000E0EC02E1E0EC02F1704700BFB0FC01810E
:1010D000B0FC0191B0FC01A1B0FC01B1704700BFB0
:1010E000A0FC0181A0FC0191A0FC01A1A0FC01B128
:1010F000704700BFEC4600B52DE900502DE9FF1FF9
:101100004FF000032DE90C0001A9FFF7EDFBDDF81E
:1011100040E012B0704700BFEC4600B52DE900502A
:101120002DE9FF1F4FF000032DE90C0001A9FFF787
:1011300015FCDDF840E012B0704700BFEC4600B58A
:101140002DE900502DE9FF1F4FF000032DE90C00A1
:1011500001A9FFF725FCDDF840E012B0704700BFA1
:10116000EC4600B52DE900502DE9FF1F4FF00003BC
:101170002DE90C0001ABFFF7E7FBDDF840E012B012
:10118000704700BFEC4600B52DE900502DE9FF1F68
:101190004FF000032DE90C0001AAFFF761FCDDF818
:1011A00040E012B0704700BF027A1AB9437A43B9DF
:1011B000B02070470368013A02721A020260180EEA
:1011C000704703214268013B10B443721368141D39
:1011D00001721A024460026010BC180E704700BF12
:1011E000002300B585B003AA009219460C22FFF730
:1011F000E9FB039805B05DF804FB00BFF0E700BF12
:101200002DE9F04306460F464FF0000885B03846FA
:10121000FFF7CAFFB028044623D0050627D40023D1
:101220000DF10C09194685000D22CDF800903046CD
:10123000FFF7C8FBEDB2039B600605F104054CBF48
:101240005D1BED1800230D221946CDF800903046A5
:101250000395FFF7DDFB3846FFF7A6FFB0280446ED
:10126000DBD1B8F1000F00F0948000201CE000F00A
:10127000F003802B5CD0902B19D0A02B2CD0B02B5E
:101280003ED0C02B6BD000F0F803D02B0BD100F078
:101290000702013242F40022052301213046FFF704
:1012A00087FD0028B3D0092005B0BDE8F08300F029
:1012B0000D030D2BF7D0002303AD00F00F021946EC
:1012C00000953046FFF77EFB0023009519460D225E
:1012D0003046FFF79DFB9AE7C3434FF47F6203F06C
:1012E00007031A410023010702F47F6248BF42F45A
:1012F000804219463046FFF75BFD0028D3D186E7D0
:10130000B12857D0B22868D0B32800F0958000F0FB
:10131000FC03B42BC7D0012300F007021A4442F4A7
:10132000002219463046FFF743FD0028BBD16EE787
:101330003846FFF739FF24020443B4F5004FB2D01A
:1013400000232401A2B219463046FFF731FD0028E0
:10135000A9D114F4004F18BF4FF0010857E7C62871
:101360007DD0C72800F0868000F0F803C02B00F085
:101370009480C82800F09F80C92894D13846FFF790
:1013800013FF020300F00F0002F470220130024349
:1013900082E703AC43460E22414600943046FFF7F5
:1013A00011FB0094304643460F224146FFF730FBC5
:1013B000404679E73846FFF7F7FE00283FF473AF61
:1013C00010F0F0037FF46FAF024619463046FFF786
:1013D000EFFC00287FF467AF19E700230DF10C093B
:1013E0000D221946CDF800903046FFF7EBFA38464B
:1013F000FFF7DAFE02064FF002040CD5039B00F063
:101400007F00A040034438460393FFF7CDFE030658
:1014100004F10704F2D40023039900F07F02A240F4
:1014200001F501718C18CDF8009019460D22304657
:101430000394FFF7EDFAEAE63846FFF7B5FE01231D
:10144000010300F00F0001F47021C2180A43304676
:101450001946FFF7ADFC00287FF425AFD7E63846E4
:10146000FFF7A2FE010300F00F00032301F4702137
:10147000421CEBE73846FFF797FE00283FF413AF16
:1014800010F0F0037FF40FAF024604213046FFF75F
:101490008FFC00287FF407AFB9E6032300F00F02AA
:1014A000013242F4202219463046FFF781FC002821
:1014B0007FF4F9AEABE63846FFF776FE00F0F002B7
:1014C00000F00F031032013343EA0232E4E600BFBA
:1014D00030B503240D46C36C85B05A688DF80C40B6
:1014E000DC791202083301A9284601928DF80D40DB
:1014F0000293FFF785FE05B030BD00BF08B5FFF7CA
:101500007DFE806C08BD00BF08B5FFF777FEC06C9C
:10151000C37900EB8300083008BD00BF08B503F0B5
:101520001FFD00BF08B5FFF7F9FF00BF80B483B00F
:1015300000AF78607B681B6918460C37BD4680BCDD
:10154000704780B483B000AF78607B685B691846F1
:101550000C37BD4680BC704780B483B000AF786064
:101560007B685B6918460C37BD4680BC704700003D
:1015700080B485B000AFF860B9607A60104AFB684B
:101580001A607B689AB2FB689A80FB68BA689A60B6
:10159000FB684FF000021A61FB684FF000025A61CD
:1015A000FB689B88013B022202FA03F31A46FB68A0
:1015B000DA60FB6818461437BD4680BC704700BF30
:1015C0004052000880B582B000AF78603960396859
:1015D000786800F010F802467B681A617B681B6926
:1015E0001946786800F028F802467B685A6100BF07
:1015F0000837BD4680BD90B583B000AF78603960D4
:101600003868FEF765FE02467B689B6819461046FF
:10161000FEF7B6FE03461C467B68DB681846FEF7FD
:1016200057FE034619462046FEF75EFF034618465E
:101630000C37BD4690BD000080B582B000AF786029
:1016400039607B689B6819463868FEF74DFF034692
:1016500004491846FEF794FE034618460837BD466F
:1016600080BD00BF0000C84280B483B000AF786086
:101670007B681B6918460C37BD4680BC704700006C
:10168000B0B58EB000AF164B07F11C041D460FCD50
:101690000FC495E8070084E8070007F11C03002148
:1016A000184602F024F902460E4B1A600E4B3C46D7
:1016B0001D460FCD0FC495E8070084E807003B46A0
:1016C0000021184602F013F90246084B1A60012265
:1016D0000749084801F0FAFF00BF3837BD46B0BDE2
:1016E00068510008A000002090510008A4000020CC
:1016F000C00000204C11002080B582B000AF78609F
:10170000064A7B681A607B681833184600F0B6F802
:101710007B6818460837BD4680BD00BFDC51000815
:1017200080B596B000AF786000237B6507F10C03AD
:10173000184600F08DFA1D4800F0BEFE02221C493A
:101740001A4800F01BFF1A4B1A6807F10C031146E8
:10175000184600F099FA07F10C031846FFF7F1FE5E
:101760000246144B1A6007F10C031846FFF77CFF82
:101770000246114B1A6007F10C03184600F0ADFA4F
:1017800002460E4B1A6007F10C03184600F096FA59
:1017900002460B4B1A60642002F0D1F8D3E707F140
:1017A0000C031846FFF7A8FF02F054FF901000202A
:1017B000A8000020B0000020B4000020B8000020E5
:1017C000BC00002080B582B000AF7860034800F014
:1017D000D2F90A2002F0B3F8F8E700BFC4000020F5
:1017E00080B582B000AF7860204B1B786E2B03D1A0
:1017F0001F4800F034F92FE01C4B1B78662B03D1F7
:101800001B4800F044F927E0184B1B78622B0DD1E0
:10181000184B1B881946164800F07BF9154B1B889E
:1018200003F5FA739AB2134B1A8015E00F4B1B782D
:10183000632B11D10F4B1B88B3F5FA7F06DD0D4BDF
:101840001B88A3F5FA739AB20A4B1A80094B1B88BE
:101850001946074800F05DF901220449064801F0E5
:1018600035FF00BF0837BD4680BD00BFC000002067
:10187000C4000020040000204C11002080B483B07C
:1018800000AF78607B6818460C37BD4680BC704757
:1018900080B582B000AF786039607B68012B0FD1D2
:1018A0003B684FF6FF7293420AD10023202206497B
:1018B000064800F07DF9064A0649044802F0C5FED4
:1018C00000BF0837BD4680BD00080140C4000020AD
:1018D00000000020111C000880B500AF4FF6FF711A
:1018E0000120FFF7D5FF80BD80B582B000AF7860E2
:1018F000786800F026F87B6818460837BD4680BD3A
:1019000080B582B000AF7860786800F03AF87B6804
:101910002C3318460837BD4680BD80B582B000AF75
:10192000786039607B6893F8283019467B683A689C
:1019300043F82120786800F054F800BF0837BD460E
:1019400080BD80B485B000AF78607B68002283F8EA
:1019500028207B68002283F829200023FB73FB7B6F
:10196000092B09DCFA7B7B684FF0000143F8221059
:10197000FB7B0133FB73F2E700BF1437BD4680BC2D
:10198000704780B584B000AF78604FF00003FB6013
:101990000023FB72FB7A7A6892F8292093420DDAD1
:1019A000FA7A7B6853F822301946F868FEF7E0FBB4
:1019B0000346FB60FB7A0133FB72EBE77B6893F82D
:1019C00029301846FEF784FC03461946F868FEF7EE
:1019D0008BFD03461A467B68DA6200BF1037BD46AE
:1019E00080BD80B483B000AF78607B6893F8293005
:1019F0000A2B07D07B6893F829300133DAB27B6871
:101A000083F829207B6893F82830092B04D17B6860
:101A1000002283F8282007E07B6893F82830013300
:101A2000DAB27B6883F8282000BF0C37BD4680BC43
:101A3000704780B483B000AF78607B685B7E1846E7
:101A40000C37BD4680BC704780B483B000AF78606F
:101A50007B689B7E18460C37BD4680BC7047B0B58E
:101A600082B000AF78607B685C687B681D897868AD
:101A7000FFF7DFFF03461A462946204601F02EF9FC
:101A80007B6801229A7200BF0837BD46B0BDB0B571
:101A900082B000AF78607B685C687B681D8978687D
:101AA000FFF7D2FF03461A462946204601F016F9F1
:101AB0007B6800229A7200BF0837BD46B0BD80B572
:101AC00082B000AF78607B685A687B681B891946D2
:101AD000104601F008F900BF0837BD4680BD80B44C
:101AE00083B000AF78607B685A697B68DB689A4294
:101AF00004D17B681A697B685A6103E07B68DA6805
:101B00007B685A617B685B6918460C37BD4680BCB0
:101B1000704780B582B000AF786039603A68396844
:101B2000786800F004F800BF0837BD4680BD80B576
:101B300084B000AFF860B9607A60F868FFF7A7FF7B
:101B4000FB6802229A72FB68BA68DA60FB687A68FE
:101B50001A61FB687A685A6100BF1037BD4680BDC4
:101B600080B483B000AF78607B689B7A18460C37EE
:101B7000BD4680BC704780B582B000AF78607868A1
:101B8000FFF7EEFF0346022B0CBF01230023DBB25D
:101B9000002B09D07868FFF792FF7868FFF79FFF66
:101BA0000346184601F0CBFE00BF0837BD4680BD96
:101BB00080B485B000AFF860B96011461A460B4694
:101BC000FB8013467B71114AFB681A60FB687A79C7
:101BD0001A76FB681B7E002B06D0FB6800225A7623
:101BE000FB6801229A7605E0FB6801225A76FB68C1
:101BF00000229A76FB68BA685A60FB68FA881A81F4
:101C0000FB6818461437BD4680BC7047B4510008C5
:101C100080B483B000AF7860044A7B681A607B6848
:101C200018460C37BD4680BC704700BFB451000851
:101C300080B582B000AF78607868FFF7E9FF786818
:101C400002F001FD7B6818460837BD4680BD0000E4
:101C500080B582B000AF78607B680C2208491846D6
:101C6000FFF786FC074A7B681A607B6818331846C2
:101C7000FFF73AFE7B6818460837BD4680BD00BFB7
:101C800000006040DC51000890B583B000AF786080
:101C900039607B6839681846FFF794FC7B6803F16C
:101CA00018047B681846FFF7DFFC034619462046F8
:101CB000FFF733FE00BF0C37BD4690BD80B582B044
:101CC00000AF78607B6818331846FFF719FE0346AB
:101CD0001B6818460837BD4680BD80B584B000AF8C
:101CE00078607B681B681B68786898470346FB60D0
:101CF0007B68F9681846FFF79FFC034618461037C3
:101D0000BD4680BD19481A4B30B503604FF480734F
:101D100083604FF4602300240125C361022385B052
:101D2000019402940394057304754460036100F008
:101D3000D5FC08B100F0ACF9072301A90B480194C8
:101D40000295039300F0FCFA08B100F0A1F9012319
:101D5000019302230293062301A90448039300F090
:101D6000EFFA08B100F094F905B030BD90100020F2
:101D70000024014030B5054687B01022002102A89A
:101D800003F041F92A681C4B9A4233D103F56C43A6
:101D90009A691A4842F400729A619A6902A902F497
:101DA00000720092009A9A69154C42F004029A61FE
:101DB0009B6903F004030193019B032302930393A4
:101DC00000F0AAFE8022E2604FF4807222614FF49C
:101DD00000620C4B62612360202200232046636076
:101DE000A360A261E36100F04DFD08B100F050F97D
:101DF0002C62656207B030BD00240140000801403C
:101E0000C0100020080002400A4B07B55A6905219E
:101E100042F001025A615B69002203F00103019361
:101E20000B20019B00F0ECFC0B2000F01DFD03B02B
:101E30005DF804FB0010024080B485B000AFF8608C
:101E4000B9607A60FB68064A1A60BB68054A1A6086
:101E50007B6880221A6000BF1437BD4680BC704783
:101E6000E400002038010020B0B588B000AF0B4B73
:101E70003C1D1D460FCD0FC495E8070084E8070000
:101E80003B1D0021184601F032FD0246044B1A604A
:101E9000FFF7F6FB00BF2037BD46B0BD0C5200086F
:101EA000E000002080B582B000AF7860012001F032
:101EB00046FDFBE7102270B588B00DEB0200002153
:101EC00003F0A1F8294B2A4D9A69284642F01002E6
:101ED0009A619A69202102F010020092009A9A6990
:101EE000002442F020029A619A69022602F0200240
:101EF0000192019A9A6942F004029A619A6902F089
:101F000004020292029A9A6942F008029A619B695D
:101F1000002203F008030393039B00F0DFFE4FF45D
:101F200000530493134B04A913480593069400F03F
:101F3000F3FD0C2304A9284604930596079600F0A8
:101F4000EBFD20230493012304A92846059306945E
:101F5000079600F0E1FD22460521282000F050FC04
:101F6000282000F081FC08B070BD00BF00100240C6
:101F700000080140000011100010014080B500AFC2
:101F800000F07EF900F00DF8FFF794FFFFF73CFF3B
:101F9000FFF7B8FE00F014F9FFF766FF01F0A2FCAE
:101FA000FEE780B594B000AF07F128032822002196
:101FB000184603F028F807F1140300221A605A604B
:101FC0009A60DA601A613B1D00221A605A609A60BA
:101FD000DA600223BB620123BB631023FB6302238D
:101FE0007B640023BB640023FB6407F128031846CD
:101FF00000F090FE0346002B14BF01230023DBB248
:10200000002B01D000F044F80F237B610223BB6159
:102010000023FB614FF480633B6200237B6207F186
:1020200014030021184601F04FF80346002B14BF9B
:1020300001230023DBB2002B01D000F029F802239A
:102040007B600023FB603B1D184601F019F9034635
:10205000002B14BF01230023DBB2002B01D000F0C2
:1020600017F800BF5037BD4680BD000080B582B074
:1020700000AF78607B681B68044A934201D100F08E
:1020800011F900BF0837BD4680BD00BF002C0140DC
:1020900080B400AF00BFBD4680BC7047114B07B590
:1020A0009A690F2142F001029A619A696FF001006A
:1020B00002F001020092009ADA6942F08052DA617D
:1020C000DB69002203F080530193019B00F098FB31
:1020D000054A536823F0E06343F00073536003B094
:1020E0005DF804FB001002400000014010B50146FD
:1020F00088B00022192000F083FB192000F0B4FB07
:10210000144B01A99A6903A842F400629A619B6981
:10211000114C03F400630293029B01F093F801F069
:1021200081F80E4B236040F2E733E3600C4BB0FBC9
:10213000F3F000230138606020462361A36001F0C2
:1021400021FA20B9204601F015F908B010BD012090
:10215000FBE700BF0010024004110020002C0140EA
:1021600040420F007047FEE7FEE7FEE7FEE77047DC
:10217000014800F03DBC00BFC0100020014801F044
:1021800027B900BF04110020014801F003BB00BFC4
:102190004C1100204FF4005000F0B0BD01207047FA
:1021A00008B502F0F3FE162303604FF0FF3008BDC0
:1021B00008B502F0EBFE16230360FEE7704700004F
:1021C00008B54FF4E13E0A480A4B0C2280E808406B
:1021D000002342618360C36003618361C36101F0D6
:1021E00047FA18B1BDE80840FFF752BF08BD00BF6D
:1021F0004C1100200048004010B5044686B0102263
:10220000002102A802F0FFFE22681B4B9A4230D147
:1022100003F5E433DA6902A942F48022DA61DA696B
:10222000164802F480220092009A9A69002442F033
:1022300008029A619B6903F008030193019B4FF424
:1022400080630293022303930323059300F064FC4D
:102250004FF4006302A9094802930394049400F028
:102260005BFC27202246052100F0CAFA272000F057
:10227000FBFA06B010BD00BF00480040000C014052
:10228000074A08B51368032043F01003136000F0F9
:10229000A5FA0020FFF72AFFFFF700FF002008BD86
:1022A00000200240034A044B11681B780B44136062
:1022B000704700BF8C1100200C000020014B1868F3
:1022C000704700BF8C1100207047436A10B59A6AAE
:1022D00012F0500F1BD19A6A42F400729A621A6887
:1022E000926802F46022B2F5602F0CD11A7B52B9C9
:1022F0009A6A22F480729A629A6AD2045EBF9A6ADB
:1023000042F001029A621846FFF7DEFF10BD1B6A19
:10231000BDE810401B6B1847704708B5406AFFF7CF
:10232000FBFF08BD7047406A08B5836A43F040036D
:102330008362C36A43F00403C362FFF7F3FF08BD7F
:10234000002373B5019390F82430012B74D001233E
:102350004D6880F82430062D02684FEA85030C682A
:1023600025D82B441F25566B053B9D4026EA0505C5
:1023700004FA03F32B435363092C4FEA44038D689B
:102380002FD907262344D1681E3B9E4021EA06012F
:1023900005FA03F30B43D360A4F11003012B2BD9EF
:1023A0000023002280F82420184602B070BD0C2DB6
:1023B0000BD82B441F25166B233B9D4026EA0505B1
:1023C00004FA03F32B431363D6E72B441F25D66A85
:1023D000413B9D4026EA050504FA03F32B43D362F3
:1023E000CAE70726116923449E4021EA060105FA3F
:1023F00003F30B431361CFE7104B9A4216D1936856
:102400001B02CDD49368102C43F400039360C7D112
:102410000B4B0C4A1B68B3FBF2F20A2353430193A4
:10242000019B002BBCD0019B013BF8E7836A43F082
:10243000200383620123B4E70223B5E700240140AF
:102440000800002040420F00002373B50193036889
:1024500004469A68D20702D5002002B070BD9A687F
:1024600042F001029A60124B124A1B68B3FBF2F36E
:102470000193019BC3B9FFF721FF064623689D68BE
:1024800015F00105E8D1FFF719FF801B0228F5D9E7
:10249000A36A84F8245043F01003A362E36A012086
:1024A00043F00103E362D8E7019B013BE0E700BF93
:1024B0000800002040420F0090F8243010B5012B96
:1024C000044654D0012380F82430FFF7BDFF0028D4
:1024D00049D1A36A274A23F4407323F0010343F44C
:1024E0008073A3622368934204D123494A6812F49B
:1024F000702F2ED1A26A22F48012A2625A6852056D
:1025000041BFA26A22F4405242F48052A262A26AFF
:1025100012F480521CBFE26A22F00602E26200223C
:1025200084F824206FF002021A609A6802F4602294
:10253000B2F5602F13D10F4A934205D1A2F5806204
:10254000526812F4702F0AD19A6842F4A0029A607D
:1025500010BDA26A42F48012A2624A68CFE79A686C
:1025600042F48012F3E7002384F8243010BD0220E7
:1025700010BD00BF00280140002401402DE9D841D2
:102580009046404B026804469A420F4602D03E49AC
:102590008A4203D15B6813F4702F6ED194F8243013
:1025A000012B6CD00123204684F82430FFF74CFF28
:1025B000064600285DD1A06A216820F47060324B85
:1025C00020F0010040F480709942A06204D12D4AAD
:1025D000536813F4702F3ED1A36A23F48013A362CF
:1025E0004B685A0505D5A36A23F4405343F480533E
:1025F000A362A36A206A13F4805318BFE36A3A46C1
:1026000018BF23F00603E362002384F824301F4B35
:102610004C3183621E4BC3621E4B03636FF0020397
:1026200041F84C3C51F8443C43F4807341F8443C3D
:10263000434600F057F923689A6802F46022B2F525
:10264000602F9A680CBF42F4A00242F480129A6094
:102650003046BDE8D881A36A43F48013A36253686F
:102660005B0541BFA06A20F4405040F48050A06256
:10267000BFE7002384F82430EAE70126E8E70226D2
:10268000E6E700BF0024014000280140CB220008FB
:102690001B2300082723000838B5036804469A68FE
:1026A000D20701D4002038BD9A6822F001029A6056
:1026B000FFF704FE054623689B68DB07F2D5FFF7AA
:1026C000FDFD401B0228F6D9A36A012043F0100348
:1026D000A362E36A43F00103E36238BD70B50446C8
:1026E000002871D0836A23B9C36280F82430FFF7D1
:1026F00041FB2046FFF7D0FFA36A13F0100FA36A37
:1027000064D1002862D1E16923F48853626823F020
:10271000020343F002030A43A168A362237BB1F5DD
:10272000807F42EA430238D0012914BF06464FF4A5
:102730008076257D012D07D1002B30D1A369013B87
:1027400046EA433545F400662368B1F5807F5D684D
:1027500025F4694545EA06055D609E681D4D05EA5C
:10276000060545EA02059D6001D0012920D12169B5
:1027700001390905DD6A25F470052943D962996894
:10278000154B0B409A4215D10023E362A36A23F054
:10279000030343F00103A36270BD0E46C9E7A36AB9
:1027A00043F02003A362E36A43F00103E362CBE753
:1027B0000021DFE7A36A23F0120343F01003A362B2
:1027C000E36A43F00103E362012070BD43F01003AC
:1027D000A362F9E7FDF7E1FFFE0E1FFF074A0002C3
:1027E000D36800F4E06023F4E0631B041B0C43F0A7
:1027F000BF6343F400330343D360704700ED00E050
:10280000174B30B5DC68C4F30224C4F10703251D5F
:10281000042B28BF0423062D4FF0010598BF002488
:1028200005FA03F303F1FF3388BF033C1940A140CD
:1028300005FA04F4013C2240002842EA01024FEA72
:102840000212A9BF00F16040064BD2B200F5614010
:10285000BBBF00F00F00D2B280F800231A5430BD85
:1028600000ED00E014ED00E0002808DB0123420940
:1028700000F01F0003FA00F0014B43F822007047FC
:1028800000E100E010B530B314220168134B8468F6
:102890000B44B3FBF2F39B000364114B0A68C36360
:1028A000436822F47F522343C46822F0300223435A
:1028B000046923434469234384692343C46923434C
:1028C00013430B600122002380F82120836380F8EA
:1028D0002030184610BD012010BD00BFF8FFFDBF1D
:1028E00000000240F0B590F82040012C35D00124C2
:1028F00090F8215080F82040A5424FF000064FF09C
:10290000020428D180F82140046886632668076C99
:1029100026F001062660C66BBD40756063604368A3
:102920000568102BC36A0BBFA260A160E160E26082
:102930004BB1236843F00E0323602B68002043F063
:1029400001032B60F0BD236823F004032360236898
:1029500043F00A03F0E780F820600220F0BD000099
:1029600090F8213010B5022B03D00423836301209B
:1029700010BD03681A6822F00E021A601A6822F06D
:1029800001021A60184A93421FD0143293421ED09B
:10299000143293421DD0143293421DD0143293420C
:1029A0001DD0143293420CBF4FF480134FF080734C
:1029B0000E4A00245360012380F82130436B80F8D5
:1029C00020407BB19847204610BD0123F0E710233B
:1029D000EEE74FF48073EBE74FF48053E8E74FF4F2
:1029E0008033E5E7184610BD0800024000000240B1
:1029F00070B40425C66B026C3468036895402542A8
:102A0000196832D04D0730D51A6896065EBF1A682D
:102A100022F004021A603E4A934219D014329342C3
:102A200018D01432934217D01432934217D0143274
:102A3000934217D0143293420CBF4FF480034FF0EF
:102A40008063344A5360C36A002B5ED070BC184761
:102A50000423F6E74023F4E74FF48063F1E74FF4F3
:102A60008043EEE74FF48023EBE7022595402542B3
:102A700035D08D0733D51A68940606D41A6822F02B
:102A80000A021A60012280F82120214A934219D0BB
:102A90001432934218D01432934217D01432934216
:102AA00017D01432934217D0143293420CBF4FF414
:102AB00000134FF00073174A5360002380F8203052
:102AC000836AC1E70223F6E72023F4E74FF400739B
:102AD000F1E74FF40053EEE74FF40033EBE708253E
:102AE0009540254211D009070FD5196821F00E0134
:102AF0001960012303FA02F27260836380F82130C7
:102B0000002380F82030036B9EE770BC704700BF45
:102B100008000240000002402DE9F74F002426463D
:102B2000664BDFF8A8E1DFF8A8C10A6832FA06F5BB
:102B300002D103B0BDE8F08F4FF0010808FA06F8A3
:102B400002EA080290457FD14D68122D00F0AA805C
:102B500000F28380022D00F0A28077D8002D00F0D3
:102B60008980012D00F099804FF00F09FF2A93BF53
:102B7000824606F18045083DD0F800B092BFB5000E
:102B8000D0F804B0AD0009FA05F82BEA080804FAF9
:102B900005F588BF00F1040A48EA0505CAF80050A7
:102BA000D1F804A01AF0805F4ED0454D444FAD6976
:102BB00026F0030845F00105BD61BD6908F18048B4
:102BC00005F00105019508F5803806F0030B019D1D
:102BD0004FEA8B0BD8F8085009FA0BF925EA0909D6
:102BE000384DA84263D005F58065A84261D005F54F
:102BF0008065A8425FD005F58065A8420CBF03251B
:102C0000042505FA0BF545EA0905C8F808501D68C2
:102C10001AF4803F14BF154395431D605D681AF494
:102C2000003F14BF154395435D609D681AF4801FF3
:102C300014BF154395439D60DD681AF4001F14BF4F
:102C40002A4325EA0202DA6001366EE7032D22D01C
:102C5000112D89D1CC68043486E71B4FBD4209D0C1
:102C600012D8DFF870904D4504D009F580394D45F4
:102C70007FF47AAF8C68C4B1012C0CBFC0F810800F
:102C8000C0F8148008246FE77545F3D06545F1D08E
:102C9000DFF84490EBE7002466E7CC6864E7CC6893
:102CA000083461E7CC680C345EE704245CE7002557
:102CB000A7E70125A5E70225A3E700BF000401401F
:102CC00000100240000801400000211000003110F7
:102CD0000000321000001110000022100AB1016142
:102CE00070470904FBE7C36803EA010221EA030114
:102CF00041EA0241016170477047000008B5044B8A
:102D00005969014202D05861FFF7F6FF08BD00BFC4
:102D1000000401402DE9F341054608B901203CE0DB
:102D20000368DB0710D42B689F075DD42B68190755
:102D300000F194802B685A0700F1BE80E8690028F2
:102D400040F02C81002028E08F4C636803F00C03D6
:102D5000042B07D0636803F00C03082B09D16368C8
:102D6000DE0306D523689C03DDD56B68002BDAD122
:102D7000D4E76B68B3F5803F12D1236843F4803306
:102D80002360FFF79BFA064623689803CBD4FFF72E
:102D900095FA801B6428F7D9032002B0BDE8F081C2
:102DA0009BB9236823F480332360236823F48023B2
:102DB0002360FFF783FA064623689903B3D5FFF72C
:102DC0007DFA801B6428F7D9E6E7B3F5A02F2368C6
:102DD00003D143F480232360CFE723F480332360BF
:102DE000236823F48023CBE7674C636813F00C0F50
:102DF00007D0636803F00C03082B10D16368DA0373
:102E00000DD423689B0702D52B69012B86D123683B
:102E10006A6923F0F80343EAC203236086E72A695C
:102E20005A4B6AB101221A60FFF748FA0646236836
:102E30009F07ECD4FFF742FA801B0228F7D9ABE7D3
:102E40001A60FFF73BFA0646236898077FF56EAFD6
:102E5000FFF734FA801B0228F6D99DE7AA694A4C8D
:102E60004B4BDAB101221A60FFF728FA0646636A73
:102E70009B070DD54FF4FA52464B1B68B3FBF2F398
:102E8000019300BF019B5A1E0192002BF9D151E71B
:102E9000FFF714FA801B0228E9D97DE71A60FFF7D3
:102EA0000DFA0646636A9F077FF544AFFFF706FAFF
:102EB000801B0228F6D96FE7334CE369D80024D48D
:102EC0000127E36943F08053E361E36903F0805332
:102ED0000093009B304E3368D90518D5EB68012B61
:102EE00026D1236A43F001032362FFF7E7F941F299
:102EF00088368046236A9B073FD5002F3FF41EAFDC
:102F0000E36923F08053E36118E70027E2E73368C1
:102F100043F480733360FFF7D1F980463368DA05F4
:102F2000DCD4FFF7CBF9A0EB08006428F6D933E72F
:102F3000ABB9236A41F2883823F001032362236A84
:102F400023F004032362FFF7B9F90646236A9807C2
:102F5000D3D5FFF7B3F9801B4045F7D91CE7052B04
:102F6000236A03D143F004032362BAE723F0010389
:102F70002362236A23F00403B6E7FFF79FF9A0EB6F
:102F80000800B042B6D907E70010024000004242F4
:102F90008004424208000020007000402A4B5A681A
:102FA0001C4602F00C02082A3DD00023274E0228BE
:102FB00033602BD1FFF782F90746236899011FD4AC
:102FC0002B6AB3F5803F05D16268A96822F400320C
:102FD0000A436260696A62680B4322F47412134305
:102FE000636001233360FFF769F9054623689A019E
:102FF0003FF5A8AEFFF762F9401B0228F6D9CBE6F1
:10300000FFF75CF9C01B0228D7D9C5E6FFF756F9D0
:10301000054623689B017FF595AEFFF74FF9401BEE
:103020000228F6D9B8E601283FF4B7AE58682B6AF3
:1030300000F480329A427FF471AE6B6A00F4701033
:10304000C01A18BF0120A8E60010024060004242EA
:1030500030B5194B87B002AC03F110052246186851
:103060005968083303C2AB421446F7D101238DF8E7
:103070000430022311498DF805304B6803F00C022F
:10308000082A17D1C3F3834206A80244DB0312F8CF
:10309000102C0CD54B680A48C3F34043504306AA92
:1030A000134413F8143CB0FBF3F007B030BD0548EF
:1030B0005043FAE70248F8E728520008001002409F
:1030C00000127A0000093D002DE9F0410D4604464A
:1030D00010B90120BDE8F081454A136803F00703E9
:1030E0008B4229D321688E0731D4CA0744D4404A81
:1030F000136803F007039D4267D322683D4D12F029
:10310000040F6ED1130706D56B68226923F4605350
:1031100043EAC2036B60FFF79BFF6B68364AC3F359
:103120000313D35CD840354B1860354B1868FEF755
:10313000DDFF0020BDE8F081136823F007030B4397
:103140001360136803F007039942C2D1CAE7294B01
:1031500011F0040F1EBF5A6842F4E0625A6008077B
:1031600042BF5A6842F460525A605A68A06822F01E
:10317000F00202435A60B8E762681E4E012A3368C3
:103180001BD113F4003FA4D0736841F2883823F0B8
:10319000030313437360FFF791F80746736862688F
:1031A00003F00C03B3EB820FA1D0FFF787F8C01B2D
:1031B0004045F3D90320BDE8F081022A02D113F083
:1031C000007FE0E713F0020FDDE7136823F0070349
:1031D0002B431360136803F007039D427FF479AF1C
:1031E0008BE76B68E16823F4E0630B436B6089E76E
:1031F00000200240001002405F520008080000203A
:1032000010000020044B054A5B68C3F30223D35C23
:10321000034A1068D8407047001002406F520008FF
:1032200008000020044B054A5B68C3F3C223D35C4B
:10323000034A1068D8407047001002406F520008DF
:10324000080000200F2303600B4B5A6802F00302B2
:1032500042605A6802F0F00282605A6802F4E0624A
:10326000C2605B68DB0803F4E0630361034B1B6827
:1032700003F007030B60704700100240002002407B
:1032800003682DE9F341D907054620D5354CE3699C
:10329000DA0032D40127E36943F08053E361E36944
:1032A00003F080530193019B2F4E3368DB0526D535
:1032B000236A13F4407336D1236A6A6823F4407397
:1032C000134323621FB1E36923F08053E36128684D
:1032D000830706D5234AA968536823F440430B4368
:1032E000536010F010001BD01E4AE968536800209C
:1032F00023F480030B43536012E00027D4E73368C4
:1033000043F480733360FEF7D9FF80463368D805F5
:10331000CED4FEF7D3FFA0EB08006428F6D9032033
:1033200002B0BDE8F0816A6802F440729342C3D0F3
:1033300001200E4A236A1060002023F440711060BF
:103340002162D907B8D5FEF7B9FF41F288380646A1
:10335000236A9A07B0D4FEF7B1FF801B4045F7D926
:10336000DDE700BF00100240007000404004424210
:103370007047000090F83D30012B20D1022380F8E7
:103380003D300368DA6842F00102DA600D4A934288
:103390000AD0B3F1804F07D0A2F59432934203D004
:1033A00002F58062934204D19A6802F00702062A6D
:1033B00003D01A6842F001021A6000207047012011
:1033C000704700BF002C014070477047704770473E
:1033D000036810B51A69044691070ED5DA6892079A
:1033E0000BD56FF002021A6101229B6902779B07DD
:1033F00077D0FFF7EAFF0023237723681A69500785
:1034000010D5DA6851070DD56FF004021A61022257
:103410009B69227713F4407F204668D0FFF7D5FFE1
:103420000023237723681A6912070FD5DA6810077B
:103430000CD56FF008021A610422DB692277990724
:1034400020465AD0FFF7C1FF0023237723681A696B
:10345000D20610D5DA68D0060DD56FF010021A61C9
:103460000822DB69227713F4407F20464BD0FFF718
:10347000ACFF0023237723681A69D10708D5DA68DF
:10348000D20705D56FF0010220461A61FEF7EEFD66
:1034900023681A69100608D5DA68110605D56FF099
:1034A000800220461A6100F09AF823681A695206D1
:1034B00008D5DA68500605D56FF0400220461A613B
:1034C000FFF785FF23681A69910622D5DA6892060C
:1034D0001FD56FF020022046BDE810401A6100F0B1
:1034E0007DB8FFF771FF2046FFF770FF83E7FFF716
:1034F0006BFF2046FFF76AFF92E7FFF765FF204664
:10350000FFF764FFA0E7FFF75FFF2046FFF75EFFCE
:10351000AFE710BD1A4A036890420AD0B0F1804F5D
:1035200007D0A2F59432904203D002F58062904217
:1035300015D14A6823F070031343114A90420AD010
:10354000B0F1804F07D0A2F59432904203D002F53B
:103550008062904203D1CA6823F4407313434A69DE
:1035600023F08003134303608B68C3620B6883629C
:10357000034B984204BF0B69036301234361704707
:10358000002C014010B5044630B390F83D3003F0F4
:10359000FF021BB980F83C20FFF7EAFE02232068F7
:1035A00084F83D30211DFFF7B5FF0123002084F88A
:1035B000463084F83E3084F83F3084F8403084F858
:1035C000413084F8423084F8433084F8443084F841
:1035D000453084F83D3010BD012010BD7047704764
:1035E0000368DA6822F49072DA605A6922F0010204
:1035F0005A61202380F83A307047000038B50446FD
:103600000368C1681A6922F440520A431A61826849
:103610000069D9680243606921F4B05121F00C01BE
:1036200002430A43DA605A69A16922F440720A43EC
:103630005A610E4A934215D1FFF7F4FD19235843FE
:10364000636864229B00B0FBF3F0B0FBF2F102FB75
:1036500011031B013233B3FBF2F3256803EB0113B3
:10366000AB6038BDFFF7CEFDE8E700BF0038014092
:1036700010B5044640B390F8393003F0FF021BB98F
:1036800080F83820FEF7B8FD2423226884F839300A
:10369000D368204623F40053D360FFF7AFFF2368BD
:1036A00000201A6922F490421A615A6922F02A0213
:1036B0005A61DA6842F40052DA602023E06384F849
:1036C000393084F83A3010BD012010BD90F83A30FE
:1036D000202B20D1E9B1E2B190F83830012B1AD07B
:1036E000C285828500232222C36380F83A200268C3
:1036F0008162D16880F8383041F48071D1605169BD
:10370000184641F001015161D16841F02001D160BA
:1037100070470120704702207047704790F83A3098
:1037200010B5222B32D18168836AB1F5805F0268BF
:1037300020D1016909BB5268C2F3080223F8022BA9
:10374000C48D8362013CA4B2C4858CB90368DA6875
:1037500022F02002DA60DA6822F48072DA605A69B4
:1037600022F001025A61202380F83A30FEF738F83F
:10377000002010BD31B9016921B952681A70836AFD
:103780000133DDE7526802F07F02F7E7022010BD47
:1037900070470000036870B51A6804461607D968B8
:1037A0005D6907D196065CD58D065AD5BDE8704097
:1037B000FFF7B4BF15F0010502D111F4907F50D08E
:1037C000D00705D5CB0542BFE36B43F00103E363AC
:1037D000560704D51DB1E36B43F00203E363900782
:1037E00004D51DB1E36B43F00403E363130706D56F
:1037F0008E0600D41DB1E36B43F00803E363E36B73
:10380000002B64D0950604D5880602D52046FFF724
:1038100085FF236820465D69E26B110702D415F02D
:1038200040051AD0FFF7DCFE23685A69520610D50E
:103830005A69606B22F040025A6150B1244B4363D5
:10384000FFF78EF8002842D0606BBDE87040436BF4
:1038500018472046FFF79CFF70BDFFF799FFE5630F
:1038600070BD160625D50D0623D594F83920212ADA
:103870002DD1A268B2F5805F226A15D1216999B96C
:1038800032F8021BC1F3080159602262E28C013A4E
:1038900092B2E284DAB9DA6822F08002DA60DA6899
:1038A00042F04002DA6070BD511C216212785A6009
:1038B000ECE750060BD54A0609D5DA68204622F017
:1038C0004002DA60202384F83930FFF726FF70BD0C
:1038D000D538000808B50023406AC385C384FFF7C4
:1038E00057FF08BD08B500F05FFC002008BD70B5AB
:1038F000054646690B4686B0406829682A69B5F9CD
:10390000084076B1AD6965B1842C0CBF0024033446
:1039100002958DE8500000F0E3FB0590059806B095
:1039200070BD842C0CBF0024033405AD92B28DE829
:10393000300000F00CFC0128F0D00020EFE708B5C3
:10394000002808BF012000F077FD002008BD00F12D
:10395000080343604FF0FF32C360036100238260BD
:103960000360704700230361704743689A684B60A7
:103970008A609A6851609960036808610133036046
:1039800070470A6830B5531C0AD103695A684A6007
:1039900091608B605960036808610133036030BD3A
:1039A00000F108035C682568AA42EFD32346F9E7D3
:1039B0004168826803698A608268516059688842F8
:1039C00008BF5A60002202611A68013A1A6018683A
:1039D00070470000002382B001930D4B1B68013338
:1039E00008D04FF0500383F31188BFF36F8FBFF3FC
:1039F0004F8FFEE74FF0500383F31188BFF36F8FB3
:103A0000BFF34F8F019B002BFCD002B0704700BF6B
:103A10001400002006480068006880F3088862B639
:103A200061B6BFF34F8FBFF36F8F00DF00BF0000A1
:103A300008ED00E04FF0807340F8043C054B21F0A6
:103A4000010140F8081C40F80C3C40F8202C40389C
:103A5000704700BFD53900080000000000000000DA
:103A6000074B19680868B0E8F00F80F30988BFF3C6
:103A70006F8F4FF0000080F311884EF00D0E7047ED
:103A8000580F00204FF0500383F31188BFF36F8F5E
:103A9000BFF34F8F0A4A13680133012B13600DD116
:103AA000084B1B6813F0FF0F08D04FF0500383F34F
:103AB0001188BFF36F8FBFF34F8FFEE7704700BFD2
:103AC0001400002004ED00E0084A136843B94FF0E9
:103AD000500383F31188BFF36F8FBFF34F8FFEE75F
:103AE000013B13600BB983F3118870471400002069
:103AF000EFF30980BFF36F8F0D4B1A6820E9F00FC9
:103B000010602DE908404FF0500080F3118800F05C
:103B1000B7FC4FF0000080F31188BDE80840196839
:103B20000868B0E8F00F80F30988BFF36F8F704723
:103B3000580F002008B54FF0500383F31188BFF3EE
:103B40006F8FBFF34F8F00F06DFB18B14FF08052B5
:103B5000024B1A60002383F3118808BD04ED00E0D6
:103B60000023084A084913600B604FF47A71074B31
:103B70001B68B3FBF1F30649013B0B60072313609D
:103B8000704700BF10E000E018E000E008000020EF
:103B900014E000E013B5274B00211A78D2B201924D
:103BA000FF221A701B78244ADBB28DF803309DF88F
:103BB000033003F0500313700722204B1A609DF866
:103BC0000300541E00060DD401B11A601A68032ABE
:103BD00011D04FF0500383F31188BFF36F8FBFF301
:103BE0004F8FFEE79DF8032001215200D2B28DF8DD
:103BF00003202246E3E70024120202F4E0621A6086
:103C0000019B0C4ADBB213700D4B1A6842F4700230
:103C10001A601A6842F070421A60FFF7A1FF094B60
:103C20001C60FFF7F7FE00F02BFCFFF7D3FE2046E9
:103C300002B010BD00E400E0380300203C03002087
:103C400020ED00E01400002010B50F4B1A688242EE
:103C500018D35C681919884201BF416818460919D0
:103C60005960446801198A4207D1084909688A42A3
:103C70001FBF51681268091941609842026018BF5D
:103C8000186010BD1346E1E7500F002040030020EC
:103C90002DE9F041044600F0BDFA3E493E4D0B6867
:103CA0000BBB3E4A56071DBFD01D20F0070002F592
:103CB00040634FF440631CBF02461B1A00201344AC
:103CC000374E083B23F0070370603260586018607D
:103CD0000B60981A1360334B50601860324B1860B9
:103CE0004FF000432B602F68274216D1002C40D0A4
:103CF00004F1080358071CBF23F00703083363B11E
:103D0000294A16689046B34207D8254A156868685C
:103D1000834204D809688D4207D1002429E02C6829
:103D2000002CF7D02A462546F1E72968146811606F
:103D3000C21A102A0FD9E818410708D04FF05003D3
:103D400083F31188BFF36F8FBFF34F8FFEE742609D
:103D50006B60FFF779FF6B681249F61A1F43002367
:103D60000868C8F80060864238BF0E6008346F608B
:103D70002B6000F0E9FA630708D04FF0500383F39B
:103D80001188BFF36F8FBFF34F8FFEE72046BDE86A
:103D9000F08100BF40030020440F002044030020B6
:103DA000500F00204C0F0020480F002010B5044693
:103DB00070B3184A50F8043C1268134208D14FF00F
:103DC000500383F31188BFF36F8FBFF34F8FFEE76C
:103DD00050F8081C41B14FF0500383F31188BFF332
:103DE0006F8FBFF34F8FFEE723EA020340F8043CD6
:103DF00000F010FA084A54F8043C1168A4F10800D5
:103E00000B441360FFF720FFBDE8104000F09CBAA0
:103E100010BD00BF440F0020480F00202DE9F041E5
:103E20000646FFF72FFE2D4B2D4C1A682D4F013201
:103E30001A602568002D45D126601B68012B1CD116
:103E400078191435FFF783FD8C2DF9D1DFF8C08088
:103E5000254D4046FFF77BFD2846FFF778FD2348B8
:103E6000FFF775FD2248FFF772FD2248FFF76FFD4F
:103E7000214BC3F80080214B1D60214A2149136862
:103E80000868013313600123F26A9340034314204E
:103E90000B6000FB0270311DFFF767FDFFF714FE9A
:103EA000194B1B6863B12368DA6AF36A9A4207D236
:103EB0004FF08052154B1A60BFF34F8FBFF36F8FD7
:103EC000BDE8F081104B1B68002BD6D12368DA6A5D
:103ED000F36A9A4298BF2660CFE700BFF00F002038
:103EE000580F0020640F00201C1000203810002004
:103EF00064100020501000205C0F0020600F002094
:103F000000100020041000204C10002004ED00E000
:103F100008100020064A13681968064B19B94FF0BB
:103F2000FF321A6070471268D268D2685268F8E7A8
:103F30005C0F0020301000202DE9F04781460A9CDC
:103F400002F18042266B013A06EB8206DDF82480FE
:103F50009A4626F007064B1E04F134020F315878BA
:103F600002F8010B13F8010F08B18B42F7D1089D3D
:103F70000027062D28BF0625201DE562656484F80C
:103F80004370A764FFF7EEFCC5F1070504F11800C4
:103F9000FFF7E8FCE7642461A561646284F850706F
:103FA000524649463046FFF745FD2060B8F1000F04
:103FB00001D0C8F80040BDE8F08710B590F8513046
:103FC00004463BB9006BFFF7F1FE2046BDE8104008
:103FD000FFF7ECBE012BF9D0022B08D04FF05003B5
:103FE00083F31188BFF36F8FBFF34F8FFEE710BDD0
:103FF00080B5DFF85C80124F124C134D236863B913
:10400000124B1B68012BF8D94FF08053C8F80030D1
:10401000BFF34F8FBFF36F8FEEE7FFF733FDFB6802
:10402000DE68301DFFF7C4FC2B68013B2B60236862
:10403000013B2360FFF748FD3046FFF7BEFFDDE799
:1040400064100020F40F0020F00F0020640F002007
:1040500004ED00E0F8B51B4B1B4E1D6804463068AC
:104060000F460430FFF7A4FC334640B90120316805
:10407000164EC96A3268884022EA00023260621C29
:1040800007D137B1196812480431BDE8F840FFF78D
:104090006CBC2C441A68A542546007D90D4A1068BC
:1040A0001968BDE8F8400431FFF76BBC0A4A106894
:1040B00019680431FFF765FC084B1A68944238BF51
:1040C0001C60F8BD78100020580F0020041000205C
:1040D00050100020600F00205C0F002030100020E6
:1040E00070B586B00B9D0C9C45B94FF0500383F31F
:1040F0001188BFF36F8FBFF34F8FFEE744B94FF0C6
:10410000500383F31188BFF36F8FBFF34F8FFEE728
:1041100054260496049E542E08D04FF0500383F387
:104120001188BFF36F8FBFF34F8FFEE72563022522
:1041300084F8515005AD01950A9D02940095FFF752
:10414000FBFE2046FFF76AFE059806B070BD2DE91C
:10415000F043074685B09000884616469946FFF71B
:1041600097FD0546E8B15420FFF792FD0446A8B13B
:10417000002380F851300D9B056301930C9B029046
:10418000009332464B4641463846FFF7D5FE20465F
:10419000FFF744FE012005B0BDE8F0832846FFF795
:1041A00005FE4FF0FF30F6E710B5002488B007AAEF
:1041B00006A905A805940694FDF73EFE059B00940C
:1041C0000293069B079A01930D4923460D48FFF77A
:1041D00087FF90B14FF0500383F31188BFF36F8FC7
:1041E000BFF34F8F4FF0FF32074B1A600122074B8E
:1041F0001A60074B1C60FFF7CDFC08B010BD00BF74
:1042000077520008F13F0008301000204C100020C9
:1042100078100020024A136801331360704700BF12
:10422000FC0F00202DE9F84F3C4B1B68002B53D1AD
:104230003B4B1C6801341C60BCB93A4B1A681268CD
:1042400042B14FF0500383F31188BFF36F8FBFF378
:104250004F8FFEE7344A1968106818601160334ABE
:10426000136801331360FFF755FE314D4FF0000B1B
:104270002B68304F9C423ED3DFF8A880DFF8C49013
:10428000D8F80020126872BB4FF0FF322A6032E08B
:1042900006F1040A5046FFF78BFBB16A19B106F12B
:1042A0001800FFF785FB01224FF0140EF06AD9F8D1
:1042B000003002FA00F119431F4BC9F800100EFB41
:1042C00000305146FFF751FB3868F16AC26A9142EB
:1042D00028BF4FF0010BD3E7184A4FF0000B1368CB
:1042E0000133136011E0D8F80020D268D6687168F5
:1042F0008C42CDD229603A680F4BD16A14224A43CE
:104300009A58022A28BF4FF0010B0D4A1268002A62
:1043100018BF4FF0010B5846BDE8F88FFC0F002086
:10432000781000205C0F0020600F00203410002067
:1043300030100020580F0020640F0020F80F0020DC
:104340007C100020041000202DE9F843314C236834
:1043500043B94FF0500383F31188BFF36F8FBFF35E
:104360004F8FFEE7FFF78EFB2368013B2360246835
:104370002CB10024FFF7A8FB2046BDE8F883264BAC
:104380001B68002BF5D0DFF8A890244FDFF8A4803D
:10439000D9F80030E3B90CB1FFF7BCFD204D2C6813
:1043A00044B101271F4EFFF73DFF00B13760013CCC
:1043B000F9D12C601B4B1B68002BDAD04FF08052D8
:1043C000194B1A60BFF34F8FBFF36F8F0124D1E7F2
:1043D000D9F80C300125DC68261D04F11800FFF720
:1043E000E7FA3046FFF7E4FA1420E26A396805FA82
:1043F00002F30B4300FB028031463B60FFF7B5FA46
:104400000A4BE26A1B68DB6A9A4224BF054B1D60B7
:10441000BEE700BFFC0F0020F00F002004100020BA
:10442000F80F00207C10002004ED00E0580F002061
:1044300038100020640F002008B540B94FF08052BA
:104440000D4B1A60BFF34F8FBFF36F8F08BD0B4B3F
:10445000196841B14FF0500383F31188BFF36F8F98
:10446000BFF34F8FFEE7FFF7D5FEFFF7F3FDFFF732
:104470006BFF0028E2D008BD04ED00E0FC0F002037
:10448000174B10B51A68174B12B101221A6010BDF4
:104490001A60154B1B68B3FA83F31422DBB2C3F125
:1044A0001F035A4311498C58881844B94FF05003E0
:1044B00083F31188BFF36F8FBFF34F8FFEE744681C
:1044C000083264680A44944208BF6268446008BFC6
:1044D0004260142202FB03135B68DA68044BD5E7E1
:1044E000FC0F00207C10002004100020640F00202E
:1044F000580F0020002103E00B4B5B584350043160
:104500000A480B4B42189A42F6D30A4A02E00023AB
:1045100042F8043B084B9A42F9D3FDF74FFE00F0F6
:104520003BFDFDF72BFD70474456000800000020BE
:10453000840000208400002094110020FEE7000089
:1045400010B50446024B036000F0F0FB204610BD9E
:10455000B852000810B50446FFF7F2FF20460C21C0
:1045600000F0C2FB204610BD2DE9F041069E8046BA
:1045700096420F4614461D4603D1194600F02AFC08
:1045800058B9D8F808002246036806961E6A3946CC
:104590002B46B446BDE8F04160470620BDE8F081F7
:1045A0002DE9F14F0E4619468346174699460A9C57
:1045B000DDF82CA0DDF830800D9D00F00BFC90B1F3
:1045C000002E2C602F7109DB3444A0450CBF06245B
:1045D0000124AC71002001B0BDE8F08F0236F9D1A2
:1045E0000123AB71F6E7444504D15146584600F02B
:1045F000F1FB88B9DBF808003A4603680D95CDF861
:104600003080CDF82CA00A94DC6931464B46A44694
:1046100001B0BDE8F04F60476F71DBE72DE9F04175
:1046200004460D4616461F4600F094FB48B9A068A4
:104630003246036829469C693B46A446BDE8F041E2
:104640006047BDE8F08100F0CBBC0B460146184640
:1046500000F08EBC1EB400F09CF81EBCFCF75CFDA4
:104660000378472B17D143784E2B14D18378552BE1
:1046700011D1C378432B0ED10379432B0BD143794E
:104680002B2B08D183792B2B05D1C07901288CBF26
:104690000020012070470020704700002DE9F34101
:1046A0001E4603780D46472B0246C17947D1437811
:1046B0004E2B44D18378552B41D1C378432B3ED127
:1046C0000379462B3BD143794F2B38D18379522B39
:1046D00035D1002933D1012308460024019433BB8E
:1046E00038BB01290ABF52F8203CA2F12003783BD5
:1046F00001290CBF52F8202C58321C680192236803
:1047000020469B689847B0B10227019B1B68019324
:104710002B6801AAD3F81080214601232846C04700
:1047200058B1019B3360384602B0BDE8F081084CB7
:10473000E5E7084CE3E70127EAE70746F3E7104619
:10474000FFF78EFF80F00100C0B20023C5E700BF75
:10475000505300085853000810B5044600F0FCFB05
:1047600002462046A4F12001FFF77AFF60B154F819
:10477000043C0133012B44F8043C03D1936844F812
:10478000083C9160012010BD9368002BF9D000F027
:10479000CBFB10B500F0E0FB826801460AB900F0DF
:1047A000C3FB02F120042046FFF75AFF40B1D36952
:1047B000013BD36113B9906988609361204610BDB5
:1047C0008860FBE7002370B5A0EBC006C0EBC00219
:1047D00010F8015B941905F07F02A24013432A06EA
:1047E000F4D40B6070BD00231A4630B510F8014BAD
:1047F00004F07F0595402B43250602F10702F5D40E
:104800001F2A06D8640642BF4FF0FF3404FA02F2B2
:1048100013430B6030BD5028F7B505460E461446CD
:104820001F4607D1D01C20F0030050F8043B3B602A
:1048300003B0F0BD00F00F030C2B2ED8DFE803F01F
:1048400025071D25292D2D2D2D182125290001A9EC
:104850002046FFF7B7FF019B002BE8D005F0700260
:10486000102A08BF26462A06334448BF1B68DEE7E5
:1048700001A92046FFF7B7FFEDE7204630F8023BDD
:10488000EAE7204630F9023BE6E7204650F8043BD1
:10489000E2E7204650F8083BDEE700F061FB08B590
:1048A0000346FF2B084607D003F07003202B0DD0E2
:1048B00004D80BB1102B07D1002008BD402B0DD020
:1048C000502BF9D0302B05D000F04AFBBDE8084052
:1048D000FCF724BEBDE80840FCF724BEBDE8084054
:1048E000FCF70CBE70B50C460146204615461E4628
:1048F000FFF7D5FF33462A4601462046BDE8704003
:10490000FFF789BF73B50E461446054618B3FCF78A
:10491000F5FD20603178721CFF291DD0231D28462B
:10492000FFF7E0FF02461378501CFF2B237515D0CC
:10493000102301A92375FFF745FF019B0344E360A2
:10494000037801A963750130FFF73CFF019B034425
:10495000236102B070BDDCE76060E4E70023EEE7AE
:104960001FB503AB009300230A461946FCF72AF84B
:10497000039805B05DF804FB00232DE9F04F91B0DA
:10498000049300F00303012B07460C46164611D092
:1049900003D3022B03D000F0E3FA02071AD5314605
:1049A0002046FCF795FD18B1092011B0BDE8F08F45
:1049B0000820FAE700F0080505F0FF0885BBD1F8EC
:1049C000209010460D21FFF7CBFF814540F040813C
:1049D000062500E0012510AB43F82C4D0093002381
:1049E00007F008073D430C2219463046FCF710F843
:1049F000062D40F03981D4F83080A76AB8F1000F55
:104A00000CBF4FF0010A4FF0030AE16A15F00805E8
:104A100000F0CE80BAF1010F40F0C68000F084FAB9
:104A20000225D8E7079A13449F4280F03781DDF8CA
:104A30002080B8F1000F01D00B9B9844099F17B15B
:104A4000781E0E9F0744B8F1000FA8D0002F00F089
:104A5000A18015F00803029336D0472323704E231C
:104A600063705523A3704323E370462323714F23C0
:104A700063715223A3710023E3714FF0000A6FF0BA
:104A8000030B07A93846FFF7AEFE08A90390FFF70E
:104A9000AAFE079A002A76D03DDD9DF83C00FF284B
:104AA00035D000F00703042B3FF675AF01A151F894
:104AB00023F000BF134B000897490008DB4A0008A9
:104AC000134B00080B4B0008E379012B0CBF54F883
:104AD000203C04F158030493CFE702270D9909AB5A
:104AE00007FB12120C99FFF796FE099969B32CB1D6
:104AF00004AB00222046FFF7D1FD30BB089F002FFA
:104B000044D0039B3B441F46BBE70827E6E700274A
:104B1000E4E70427E2E70D9F01326CB3029B5BBB25
:104B20000BFB0272049B171F069357F8041F41B139
:104B300006AB002239442046FFF7B0FD0028F4D030
:104B4000012181F001010029D8D04FF0030A079F0D
:104B5000EB0727D5BAF1020F3FF421AF0D21304604
:104B6000049DFFF7FDFE65622062A762C4F82C90E9
:104B7000C4F83080062018E70BFB02F2B958B1FAEE
:104B800081F14909DFE74FF0010AB7E7BAF1000FF9
:104B90003FF405AF4FF0020ADAE700274FF0010AB1
:104BA000B846D5E7494631E7002F23DA00F0CEF9C1
:104BB000BAF1010F02D1204600F03FF9002F19DAB7
:104BC0000AAA3046FFF79EFE31469DF83C00FFF7EB
:104BD00066FE6FF0030307FB03320D9B0C9013443A
:104BE00053F825200AB10135FAE70422A562E062F4
:104BF0002263636310AB43F81C4D009300233046DF
:104C00001A461946FBF704FF10AB43F8207D0093CA
:104C10000023012219463046FBF7FAFE0F213046E9
:104C2000FFF79EFE00F0010010AB40EA080043F8D9
:104C3000240D009300230F2219463046FBF7E8FEAF
:104C4000BAF1020F02D12046FFF786FD0720ACE63D
:104C500010AA42F82C4D009243460C2241463046A1
:104C600045F00205FBF7D4FE3046FCF74DFC8146CB
:104C700000283FF494AE0AAA01463046FFF742FEF0
:104C8000314680469DF83C00FFF709FE0F210C904D
:104C90003046FFF765FE20F00100471E0E9B984549
:104CA000BFF47BAF424606AB9DF83D100020FFF7F6
:104CB00019FE07AB02469DF83D100020FFF712FEDB
:104CC00008AB02469DF83D100020FFF70BFE09A936
:104CD000FFF778FD069A0A9B804613449F42BFF473
:104CE000A1AEDDF83880D9E7FFF7ADBC7FB5102362
:104CF00000240293036815469E6900946B468DF864
:104D0000044003941268B0479DF8043003F0060392
:104D1000062B09BF01202046009B2B6004B070BD0C
:104D2000009890420CBF06200120704710B5044641
:104D3000024B036000F04BF8204610BD14530008EE
:104D400010B50446FFF7F2FF20460821FFF7CCFF1D
:104D5000204610BD38B515461C4600F03BF820B182
:104D60000823E36006232560237138BD2DE9F04157
:104D700005460C4616461F4600F02CF848B9032F8E
:104D800007D82368324629462046BDE8F0415B69D2
:104D90001847BDE8F0812DE9F041069E9846089B32
:104DA00007469E421546099C03D1079900F012F868
:104DB00058B94146384600F00DF818B10123266075
:104DC0002571A3710020BDE8F0816571FAE7704795
:104DD00000207047814208B50ED0406803782A2B26
:104DE0000CD049680B782A2B08BF0131FBF7B0F9CA
:104DF000B0FA80F0400908BD012008BD002008BDC0
:104E00000378472B17D143784E2B14D18378552B39
:104E100011D1C378432B0ED10379432B0BD14379A6
:104E20002B2B08D183792B2B05D1C07901288CBF7E
:104E30000020012070470020704710B5044648B19B
:104E400000F03BF82046FFF7DBFF18B154F8140CD4
:104E500000F05DF800F068F838B50246FFF7D0FFC3
:104E600040B1002552F8184C104600F026F825B144
:104E700000F06CF804460125F6E7204600F059F8EA
:104E80000378472B17D143784E2B14D18378552BB9
:104E900011D1C378432B0ED10379432B0BD1437926
:104EA0002B2B08D183792B2B05D1C07901288CBFFE
:104EB0000020012070470020704738B5054600F0FB
:104EC0004BF8014602682846A5F12004FFF7D8FFF9
:104ED00030B90AB100F028F80C601446204638BDFD
:104EE00055F80C3C2846002BB4BFC3F10103013335
:104EF00045F80C3C4B68A24203F1FF334B601CBFEA
:104F000045F8102C0C606C6AFBF754FDE6E708B519
:104F1000804700F025F80000024B1868BFF35B8F54
:104F2000704700BF1800002008B5FFF7F5FFFFF736
:104F3000EEFF08B58047FFF7F7FF0000024B186847
:104F4000BFF35B8F704700BF1C00002008B5FFF760
:104F5000F5FFFFF7EEFF00000048704780100020CB
:104F600008B5062000F0CCF80120FDF721F900007B
:104F700010B5054C13462CB10A4601460220AFF38A
:104F8000008010BD204610BD00000000014B1868D5
:104F9000704700BF2000002070B500250C4E0D4C5E
:104FA000A41BA410A54209D100F0C8F800250A4EA0
:104FB0000A4CA41BA410A54205D170BD56F825309B
:104FC00098470135EEE756F8253098470135F2E766
:104FD0003856000838560008385600084056000871
:104FE000024B0146186800F017B800BF20000020EF
:104FF00010B5431E0A44914200D110BD11F8014B77
:1050000003F8014FF7E703460244934200D170478B
:1050100003F8011BF9E7000038B50546002943D025
:1050200051F8043C0C1F002BB8BFE41800F084F8C2
:105030001E4A1368104633B9636014602846BDE801
:10504000384000F07AB8A3420BD921686218934225
:1050500001BF1A685B685218226063600460EDE764
:1050600013465A680AB1A242FAD919685818A042E0
:105070000BD120680144581882421960DED11068B3
:105080005268014419605A60D8E702D90C232B609A
:10509000D4E7206821188A4201BF116852680918B4
:1050A000216062605C60C9E738BD00BF8C100020E1
:1050B0001F2938B504460D4604D9162303604FF066
:1050C000FF3038BD426C12B152F821304BB9204646
:1050D00000F030F82A4601462046BDE8384000F08E
:1050E00017B8012B0AD0591C03D1162303600120E5
:1050F00038BD0024284642F825409847002038BD96
:10510000024B01461868FFF7D3BF00BF2000002004
:1051100038B50023064C0546084611462360FDF7C6
:105120003FF8431C02D1236803B12B6038BD00BF98
:1051300090110020FDF732B870477047F8B500BFF6
:10514000F8BC08BC9E467047F8B500BFF8BC08BC68
:045150009E467047C0
:10515400426174746572794D616E61676572546100
:10516400736B000054510008211700080000000070
:10517400000000000001000000000000000000002A
:105184004C656455705461736B00000084510008D1
:10519400C5170008FFFF0000000000000001000028
:1051A400000000000000000000000000BC510008E6
:1051B400111C0008311C000814530008C4510008D5
:1051C40031314C65644E6F74696669657200000024
:1051D40000000000E8510008BD1C00084315000849
:1051E400DB1C0008B8520008F45100084C520008B7
:1051F400384C69706F43656C6C00000064656661CF
:10520400756C745461736B0000520008A51E00088D
:10521400000000000000000080000000000000000A
:105224000000000002030405060708090A0B0C0D20
:105234000E0F1010000000004C5200082D1500083D
:105244004315000859150008145300085452000867
:10525400394144435F546F6F6C73000000000000D9
:105264000000000102030406070809000000000111
:1052740002030449444C4500B8520008885200080F
:10528400DC5200084E31305F5F6378786162697682
:105294003132305F5F73695F636C6173735F74791C
:1052A40070655F696E666F450000000000000000D5
:1052B4007C5200084145000855450008D14D0008BE
:1052C400D14D00086D4D0008ED4C00081D46000846
:1052D400A145000869450008B8520008E8520008D2
:1052E400385300084E31305F5F63787861626976C5
:1052F4003131375F5F636C6173735F747970655FBD
:10530400696E666F4500000000000000DC52000872
:105314002D4D0008414D0008D14D0008D14D000825
:105324006D4D0008ED4C0008554D0008974D0008E0
:10533400214D000814530008405300085374397475
:105344007970655F696E666F000000001453000891
:105354006053000814530008805300084E31305F36
:105364005F637878616269763131355F5F666F7249
:105374006365645F756E77696E6445004E31305FB6
:105384005F637878616269763131395F5F666F7225
:105394006569676E5F657863657074696F6E4500F3
:1053A4000D970181B0B00B8400000000C9F5FF7FA8
:1053B40084159701B0B0B008FFFF010D120400007E
:1053C40018647E0088010400000000000197018138
:1053D400B0B008840000000001970181B0B00884D7
:1053E4000000000001970181B0B00B8400000000B0
:1053F40001970181B0B00B84000000000197018186
:10540400B0B008840000000001970181B0B00884A6
:105414000000000003970181B0B008840000000080
:1054240001970181B0B00884000000000197018158
:10543400B0B008840000000002970181B0B0098474
:105444000000000001970181B0B008840000000052
:1054540003970181B0B00884000000000797018120
:10546400B0B00B840000000001970181B0B0088443
:105474000000000013970181B0B008840000000010
:1054840001970181B0B008840000000008B10181D7
:10549400B0B000840000000008B10181B0B0008405
:0454A4000000000004
:1054A80078B1FF7F010000000CB2FF7FB0A9028035
:1054B800A8B2FF7FB0B0A880F8B2FF7F010000005B
:1054C80004B3FF7FB0B0AA803CB3FF7FAE71B28057
:1054D8000CB4FF7F0100000008B4FF7FAB3F3880A9
:1054E80060B4FF7F010000006CB4FF7FB0B0AA80F9
:1054F800A8B4FF7F0100000060B5FF7FAB0EB2804B
:10550800CCB5FF7FB0AF0A8094B8FF7F01000000E0
:1055180098B8FF7FAB3F0480DCBAFF7F0100000032
:10552800B8BCFF7F00840480CCBCFF7F0100000072
:10553800C8BCFF7FB0AD048090BFFF7FB0A90480D6
:10554800B4BFFF7F44FFFF7FB8BFFF7F48FFFF7FE7
:10555800C4BFFF7F0100000020C1FF7F40FEFF7F26
:1055680090C1FF7F01000000B0C1FF7F3CFEFF7FBC
:105578004CC2FF7F54FEFF7F60C2FF7F58FEFF7F53
:10558800F4C2FF7F01000000CEC4FF7F54FEFF7FFE
:10559800F6C4FF7F58FEFF7F1EC5FF7F5CFEFF7FBE
:1055A80036C5FF7F0100000062C5FF7F58FEFF7F00
:1055B80076C5FF7F5CFEFF7FA0C5FF7F010000006E
:1055C800AEC5FF7F58FEFF7FE0C5FF7F01000000EA
:1055D80078C6FF7F54FEFF7FA8C6FF7F58FEFF7F77
:1055E800D4C6FF7F5CFEFF7FEAC6FF7F60FEFF7FB9
:1055F8000CC7FF7F0100000068C8FF7F5CFEFF7FCB
:105608009CC8FF7F60FEFF7FA4C8FF7F01000000E9
:1056180064C9FF7F0884978082C9FF7F54FEFF7F9B
:1056280044CAFF7F58FEFF7F60CAFF7F0100000069
:0856380035010008D918000833
:04564000110100084C
:1056440000000000F40100000024F4000100000048
:1056540010000000AAAAAAAA614F0008294F000856
:1056640024000020000000000000000000000000F2
:105674000000000000000000000000000000000026
:105684000000000000000000000000000000000016
:105694000000000000000000000000000000000006
:1056A40000000000000000000000000000000000F6
:1056B40000000000000000000000000000000000E6
:0456C40000000000E2
:04000005080044F5B6
:00000001FF
