:020000040800F2
:100000000050002035220008010500080305000803
:1000100005050008070500080905000800000000A4
:10002000000000000000000000000000A117000810
:100030000B050008000000003118000875180008C2
:100040007D2200087D2200087D2200087D22000814
:100050007D2200087D2200087D2200087D22000804
:100060007D2200087D2200087D2200080D05000881
:100070007D2200087D2200087D2200087D220008E4
:100080007D2200087D2200087D2200087D220008D4
:100090007D2200087D2200087D2200087D220008C4
:1000A0007D220008190500087D2200087D22000835
:1000B0007D2200087D2200087D2200087D220008A4
:1000C0007D2200087D2200087D2200087D22000894
:1000D0007D2200087D2200087D2200087D22000884
:1000E000250500087D2200087D2200080000000090
:1000F0000000000000000000000000000000000000
:0C01000000000000000000005FF808F1A3
:1001100010B5054C237833B9044B13B10448AFF341
:1001200000800123237010BD10000020000000009B
:10013000D822000808B5034B1BB103490348AFF3AD
:10014000008008BD0000000014000020D822000834
:100150001848194B30B503604FF4807383604FF437
:10016000602300240125C361022385B00194029419
:100170000394057304754460036100F0FBFA08B151
:1001800000F058F9052301A90A4801940295039348
:1001900000F04AFA08B100F04DF90123019302235F
:1001A00001A90448029300F03FFA08B100F042F9B7
:1001B00005B030BDC80F00200024014030B5054611
:1001C00087B01022002102A802F07EF82A681C4B9A
:1001D0009A4233D103F56C439A691A4842F400728B
:1001E0009A619A6902A902F400720092009A9A69CF
:1001F000154C42F004029A619B6903F004030193D9
:10020000019B03230293039300F04CFC8022E260E5
:100210004FF4807222614FF480620C4B6261236064
:100220002022002320466360A360A261E36100F006
:1002300075FB08B100F0FEF82C62656207B030BDB6
:100240000024014000080140F80F0020080002408F
:100250000A4B07B55A69052142F001025A615B69F0
:10026000002203F0010301930B20019B00F014FB1B
:100270000B2000F045FB03B05DF804FB00100240CA
:1002800008B5012001F0FDF9FBE70000034B036016
:10029000034B0B6080231360704700BF2C020020CB
:1002A0002C00002030B5084D89B001AC0FCD0FC433
:1002B00095E8070084E80700002101A801F0B9F9DA
:1002C000024B186009B030BDF02200083C1000203D
:1002D000102270B588B00DEB0200002101F0F4FF90
:1002E000294B2A4D9A69284642F010029A619A6970
:1002F000202102F010020092009A9A69002442F034
:1003000020029A619A69022602F020020192019A63
:100310009A6942F004029A619A6902F00402029218
:10032000029A9A6942F008029A619B69002203F0DE
:1003300008030393039B00F097FC4FF400530493CE
:10034000134B04A913480593069400F0ABFB0C2350
:1003500004A9284604930596079600F0A3FB2023E2
:100360000493012304A9284605930694079600F0F8
:1003700099FB22460521282000F08EFA282000F063
:10038000BFFA08B070BD00BF001002400008014075
:100390000000111000100140282230B595B00DEB7F
:1003A0000200002101F090FF142210240DEB020046
:1003B000002101F089FF2246002101A801F084FFFD
:1003C000022501230AA80E930F940A95119500F0B7
:1003D0005DFC0F23002405934FF48063214605A89C
:1003E000089306950794099400F02AFE01A8019548
:1003F000039400F001FF15B030BD08B500F0F0F82F
:10040000FFF7CAFFFFF764FFFFF722FFFFF7A0FE29
:1004100000F08EF8FFF746FF01F006F9FEE7000056
:100420000268034B9A4201D100F0ECB8704700BF5C
:10043000002C014070470000114B07B59A690F214D
:1004400042F001029A619A696FF0010002F0010224
:100450000092009ADA6942F08052DA61DB69002288
:1004600003F080530193019B00F016FA054A53688C
:1004700023F0E06343F00073536003B05DF804FBC6
:10048000001002400000014010B5014688B0002273
:10049000192000F001FA192000F032FA144B01A9DA
:1004A0009A6903A842F400629A619B69114C03F4B3
:1004B00000630293029B00F081FE00F06FFE0E4B82
:1004C000236040F2E733E3600C4BB0FBF3F0002312
:1004D0000138606020462361A36001F00FF820B965
:1004E000204600F003FF08B010BD0120FBE700BF6D
:1004F0000010024040100020002C014040420F003C
:100500007047FEE7FEE7FEE7FEE77047014800F0B0
:1005100035BA00BFF80F0020014800F015BF00BF3A
:10052000401000204FF4005000F0A4BB70470000C2
:1005300008B54FF4E13E0A480A4B0C2280E8084017
:10054000002342618360C36003618361C36101F082
:100550003DF818B1BDE80840FFF76CBF08BD00BF0B
:10056000881000200048004010B5044686B01022D4
:10057000002102A801F0A8FE2268174B9A4228D158
:1005800003F5E433DA6902A942F48022DA61DA6918
:10059000124802F480220092009A9A6942F00802FE
:1005A0009A619B6903F008030193019B4FF48063F8
:1005B0000293022303930323059300F073FA4FF48D
:1005C00000630293002302A904480393049300F0FC
:1005D00069FA06B010BD00BF00480040000C0140A1
:1005E000074A08B51368032043F01003136000F0B6
:1005F00041F90020FFF748FFFFF71EFF002008BD6C
:1006000000200240034A044B11681B780B4413601E
:10061000704700BFC810002004000020014B18687C
:10062000704700BFC8100020002373B5019390F8F5
:100630002430012B74D001234D6880F82430062D1E
:1006400002684FEA85030C6825D82B441F25566B9A
:10065000053B9D4026EA050504FA03F32B4353634B
:10066000092C4FEA44038D682FD907262344D1680B
:100670001E3B9E4021EA060105FA03F30B43D360BB
:10068000A4F11003012B2BD90023002280F8242091
:10069000184602B070BD0C2D0BD82B441F25166BCD
:1006A000233B9D4026EA050504FA03F32B4313631D
:1006B000D6E72B441F25D66A413B9D4026EA050517
:1006C00004FA03F32B43D362CAE7072611692344D4
:1006D0009E4021EA060105FA03F30B431361CFE7BD
:1006E000104B9A4216D193681B02CDD49368102CFC
:1006F00043F400039360C7D10B4B0C4A1B68B3FB58
:10070000F2F20A2353430193019B002BBCD0019BBF
:10071000013BF8E7836A43F0200383620123B4E7D7
:100720000223B5E7002401400000002040420F00F2
:1007300038B5036804469A68D20701D4002038BD52
:100740009A6822F001029A60FFF768FF0546236865
:100750009B68DB07F2D5FFF761FF401B0228F6D943
:10076000A36A012043F01003A362E36A43F001038C
:10077000E36238BD70B50446002871D0836A23B99E
:10078000C36280F82430FFF719FD2046FFF7D0FF41
:10079000A36A13F0100FA36A64D1002862D1E16943
:1007A00023F48853626823F0020343F002030A43F0
:1007B000A168A362237BB1F5807F42EA430238D06F
:1007C000012914BF06464FF48076257D012D07D1FF
:1007D000002B30D1A369013B46EA433545F400665E
:1007E0002368B1F5807F5D6825F4694545EA060513
:1007F0005D609E681D4D05EA060545EA02059D609F
:1008000001D0012920D1216901390905DD6A25F4CA
:1008100070052943D9629968154B0B409A4215D14E
:100820000023E362A36A23F0030343F00103A362FE
:1008300070BD0E46C9E7A36A43F02003A362E36AD2
:1008400043F00103E362CBE70021DFE7A36A23F073
:10085000120343F01003A362E36A43F00103E3626F
:10086000012070BD43F01003A362F9E7FDF7E1FF3B
:10087000FE0E1FFF074A0002D36800F4E06023F475
:10088000E0631B041B0C43F0BF6343F400330343DA
:10089000D360704700ED00E0174B30B5DC68C4F35F
:1008A0000224C4F10703251D042B28BF0423062DB1
:1008B0004FF0010598BF002405FA03F303F1FF335D
:1008C00088BF033C1940A14005FA04F4013C2240D2
:1008D000002842EA01024FEA0212A9BF00F160407B
:1008E000064BD2B200F56140BBBF00F00F00D2B2A0
:1008F00080F800231A5430BD00ED00E014ED00E054
:10090000002808DB0123420900F01F0003FA00F071
:10091000014B43F82200704700E100E010B530B30E
:1009200014220168134B84680B44B3FBF2F39B0061
:100930000364114B0A68C363436822F47F52234364
:10094000C46822F0300223430469234344692343EB
:1009500084692343C469234313430B6001220023AA
:1009600080F82120836380F82030184610BD0120D4
:1009700010BD00BFF8FFFDBF0000024070B40425A9
:10098000C66B026C3468036895402542196832D002
:100990004D0730D51A6896065EBF1A6822F0040229
:1009A0001A603E4A934219D01432934218D014323E
:1009B000934217D01432934217D01432934217D077
:1009C000143293420CBF4FF480034FF08063344ADB
:1009D0005360C36A002B5ED070BC18470423F6E74F
:1009E0004023F4E74FF48063F1E74FF48043EEE7F0
:1009F0004FF48023EBE702259540254235D08D0743
:100A000033D51A68940606D41A6822F00A021A60CE
:100A1000012280F82120214A934219D014329342B6
:100A200018D01432934217D01432934217D0143294
:100A3000934217D0143293420CBF4FF400134FF07F
:100A40000073174A5360002380F82030836AC1E79F
:100A50000223F6E72023F4E74FF40073F1E74FF4A5
:100A60000053EEE74FF40033EBE7082595402542AD
:100A700011D009070FD5196821F00E011960012363
:100A800003FA02F27260836380F82130002380F859
:100A90002030036B9EE770BC704700BF0800024027
:100AA000000002402DE9F74F00242646664BDFF890
:100AB000A8E1DFF8A8C10A6832FA06F502D103B04E
:100AC000BDE8F08F4FF0010808FA06F802EA0802C4
:100AD00090457FD14D68122D00F0AA8000F28380EE
:100AE000022D00F0A28077D8002D00F08980012D22
:100AF00000F099804FF00F09FF2A93BF824606F15C
:100B00008045083DD0F800B092BFB500D0F804B0E1
:100B1000AD0009FA05F82BEA080804FA05F588BFC4
:100B200000F1040A48EA0505CAF80050D1F804A00B
:100B30001AF0805F4ED0454D444FAD6926F0030852
:100B400045F00105BD61BD6908F1804805F001056A
:100B5000019508F5803806F0030B019D4FEA8B0BD9
:100B6000D8F8085009FA0BF925EA0909384DA842C6
:100B700063D005F58065A84261D005F58065A8427F
:100B80005FD005F58065A8420CBF0325042505FA52
:100B90000BF545EA0905C8F808501D681AF4803FAE
:100BA00014BF154395431D605D681AF4003F14BFE0
:100BB000154395435D609D681AF4801F14BF15436B
:100BC00095439D60DD681AF4001F14BF2A4325EA8F
:100BD0000202DA6001366EE7032D22D0112D89D191
:100BE000CC68043486E71B4FBD4209D012D8DFF829
:100BF00070904D4504D009F580394D457FF47AAFAA
:100C00008C68C4B1012C0CBFC0F81080C0F81480EF
:100C100008246FE77545F3D06545F1D0DFF84490BF
:100C2000EBE7002466E7CC6864E7CC68083461E74A
:100C3000CC680C345EE704245CE70025A7E70125B7
:100C4000A5E70225A3E700BF000401400010024011
:100C50000008014000002110000031100000321097
:100C600000001110000022100AB101617047090450
:100C7000FBE7704708B5044B5969014202D058613F
:100C8000FFF7F7FF08BD00BF000401402DE9F34165
:100C9000054608B901203CE00368DB0710D42B6847
:100CA0009F075DD42B68190700F194802B685A07C1
:100CB00000F1BE80E869002840F02C81002028E087
:100CC0008F4C636803F00C03042B07D0636803F0B8
:100CD0000C03082B09D16368DE0306D523689C0347
:100CE000DDD56B68002BDAD1D4E76B68B3F5803FB4
:100CF00012D1236843F480332360FFF78FFC06464C
:100D000023689803CBD4FFF789FC801B6428F7D9AC
:100D1000032002B0BDE8F0819BB9236823F480333F
:100D20002360236823F480232360FFF777FC0646C3
:100D300023689903B3D5FFF771FC801B6428F7D9AA
:100D4000E6E7B3F5A02F236803D143F480232360A3
:100D5000CFE723F480332360236823F48023CBE799
:100D6000674C636813F00C0F07D0636803F00C0343
:100D7000082B10D16368DA030DD423689B0702D5D2
:100D80002B69012B86D123686A6923F0F80343EAB3
:100D9000C203236086E72A695A4B6AB101221A60AE
:100DA000FFF73CFC064623689F07ECD4FFF736FCB0
:100DB000801B0228F7D9ABE71A60FFF72FFC064625
:100DC000236898077FF56EAFFFF728FC801B022889
:100DD000F6D99DE7AA694A4C4B4BDAB101221A6059
:100DE000FFF71CFC0646636A9B070DD54FF4FA52C9
:100DF000464B1B68B3FBF2F3019300BF019B5A1EE5
:100E00000192002BF9D151E7FFF708FC801B022863
:100E1000E9D97DE71A60FFF701FC0646636A9F0780
:100E20007FF544AFFFF7FAFB801B0228F6D96FE786
:100E3000334CE369D80024D40127E36943F080539D
:100E4000E361E36903F080530093009B304E336805
:100E5000D90518D5EB68012B26D1236A43F001038D
:100E60002362FFF7DBFB41F288368046236A9B074B
:100E70003FD5002F3FF41EAFE36923F08053E361B9
:100E800018E70027E2E7336843F480733360FFF725
:100E9000C5FB80463368DA05DCD4FFF7BFFBA0EB67
:100EA00008006428F6D933E7ABB9236A41F28838E1
:100EB00023F001032362236A23F004032362FFF774
:100EC000ADFB0646236A9807D3D5FFF7A7FB801B27
:100ED0004045F7D91CE7052B236A03D143F00403EF
:100EE0002362BAE723F001032362236A23F0040399
:100EF000B6E7FFF793FBA0EB0800B042B6D907E7CF
:100F000000100240000042428004424200000020E3
:100F1000007000402A4B5A681C4602F00C02082A56
:100F20003DD00023274E022833602BD1FFF776FBFC
:100F30000746236899011FD42B6AB3F5803F05D17A
:100F40006268A96822F400320A436260696A6268D2
:100F50000B4322F474121343636001233360FFF7E1
:100F60005DFB054623689A013FF5A8AEFFF756FBE7
:100F7000401B0228F6D9CBE6FFF750FBC01B022826
:100F8000D7D9C5E6FFF74AFB054623689B017FF5E5
:100F900095AEFFF743FB401B0228F6D9B8E60128BF
:100FA0003FF4B7AE58682B6A00F480329A427FF45F
:100FB00071AE6B6A00F47010C01A18BF0120A8E669
:100FC000001002406000424230B5194B87B002ACBD
:100FD00003F11005224618685968083303C2AB4272
:100FE0001446F7D101238DF80430022311498DF8FE
:100FF00005304B6803F00C02082A17D1C3F3834273
:1010000006A80244DB0312F8102C0CD54B680A48E2
:10101000C3F34043504306AA134413F8143CB0FBF7
:10102000F3F007B030BD05485043FAE70248F8E74F
:101030000C2300080010024000127A0000093D0055
:101040002DE9F0410D46044610B90120BDE8F081BC
:10105000454A136803F007038B4229D321688E07A2
:1010600031D4CA0744D4404A136803F007039D42B1
:1010700067D322683D4D12F0040F6ED1130706D5D9
:101080006B68226923F4605343EAC2036B60FFF785
:101090009BFF6B68364AC3F30313D35CD840354BD0
:1010A0001860354B1868FFF7EFF90020BDE8F081B4
:1010B000136823F007030B431360136803F007035F
:1010C0009942C2D1CAE7294B11F0040F1EBF5A68DA
:1010D00042F4E0625A60080742BF5A6842F4605224
:1010E0005A605A68A06822F0F00202435A60B8E7DA
:1010F00062681E4E012A33681BD113F4003FA4D04E
:10110000736841F2883823F0030313437360FFF7D9
:1011100085FA07467368626803F00C03B3EB820F2D
:10112000A1D0FFF77BFAC01B4045F3D90320BDE8EF
:10113000F081022A02D113F0007FE0E713F0020FE2
:10114000DDE7136823F007032B431360136803F0F4
:1011500007039D427FF479AF8BE76B68E16823F466
:10116000E0630B436B6089E70020024000100240FF
:10117000282300080000002008000020044B054A36
:101180005B68C3F30223D35C034A1068D8407047FE
:10119000001002403823000800000020044B054ADC
:1011A0005B68C3F3C223D35C034A1068D84070471E
:1011B0000010024038230008000000200F230360C5
:1011C0000B4B5A6802F0030242605A6802F0F002C8
:1011D00082605A6802F4E062C2605B68DB0803F474
:1011E000E0630361034B1B6803F007030B60704768
:1011F000001002400020024003682DE9F341D907A6
:10120000054620D5354CE369DA0032D40127E3697D
:1012100043F08053E361E36903F080530193019B42
:101220002F4E3368DB0526D5236A13F4407336D17D
:10123000236A6A6823F44073134323621FB1E3698E
:1012400023F08053E3612868830706D5234AA96801
:10125000536823F440430B43536010F010001BD03D
:101260001E4AE9685368002023F480030B4353604F
:1012700012E00027D4E7336843F480733360FFF74C
:10128000CDF980463368D805CED4FFF7C7F9A0EB77
:1012900008006428F6D9032002B0BDE8F0816A682E
:1012A00002F440729342C3D001200E4A236A1060B8
:1012B000002023F4407110602162D907B8D5FFF7F0
:1012C000ADF941F288380646236A9A07B0D4FFF791
:1012D000A5F9801B4045F7D9DDE700BF00100240AB
:1012E00000700040400442427047000090F83D30DA
:1012F000012B20D1022380F83D300368DA6842F0E8
:101300000102DA600D4A93420AD0B3F1804F07D050
:10131000A2F59432934203D002F58062934204D145
:101320009A6802F00702062A03D01A6842F0010206
:101330001A60002070470120704700BF002C014058
:101340007047704770477047036810B51A690446C4
:1013500091070ED5DA6892070BD56FF002021A6179
:1013600001229B6902779B0777D0FFF7EAFF0023F2
:10137000237723681A69500710D5DA6851070DD50D
:101380006FF004021A6102229B69227713F4407FF6
:10139000204668D0FFF7D5FF0023237723681A691A
:1013A00012070FD5DA6810070CD56FF008021A6122
:1013B0000422DB692277990720465AD0FFF7C1FF44
:1013C0000023237723681A69D20610D5DA68D0067D
:1013D0000DD56FF010021A610822DB69227713F431
:1013E000407F20464BD0FFF7ACFF002323772368D4
:1013F0001A69D10708D5DA68D20705D56FF001025E
:1014000020461A61FFF70CF823681A69100608D500
:10141000DA68110605D56FF0800220461A6100F0E7
:101420009AF823681A69520608D5DA68500605D575
:101430006FF0400220461A61FFF785FF23681A69A2
:10144000910622D5DA6892061FD56FF02002204659
:10145000BDE810401A6100F07DB8FFF771FF20462B
:10146000FFF770FF83E7FFF76BFF2046FFF76AFF88
:1014700092E7FFF765FF2046FFF764FFA0E7FFF75D
:101480005FFF2046FFF75EFFAFE710BD1A4A036813
:1014900090420AD0B0F1804F07D0A2F5943290422A
:1014A00003D002F58062904215D14A6823F07003A0
:1014B0001343114A90420AD0B0F1804F07D0A2F5F1
:1014C0009432904203D002F58062904203D1CA6800
:1014D00023F4407313434A6923F0800313430360EA
:1014E0008B68C3620B688362034B984204BF0B692D
:1014F0000363012343617047002C014010B504468B
:1015000030B390F83D3003F0FF021BB980F83C2067
:10151000FFF7EAFE0223206884F83D30211DFFF723
:10152000B5FF0123002084F8463084F83E3084F86B
:101530003F3084F8403084F8413084F8423084F8F9
:10154000433084F8443084F8453084F83D3010BD91
:10155000012010BD7047704738B504460368C16864
:101560001A6922F440520A431A6182680069D968F4
:101570000243606921F4B05121F00C0102430A4397
:10158000DA605A69A16922F440720A435A610E4A2C
:10159000934215D1FFF702FE192358436368642272
:1015A0009B00B0FBF3F0B0FBF2F102FB11031B0157
:1015B0003233B3FBF2F3256803EB0113AB6038BDA4
:1015C000FFF7DCFDE8E700BF0038014010B5044636
:1015D00040B390F8393003F0FF021BB980F838208F
:1015E000FEF7C2FF2423226884F83930D3682046EE
:1015F00023F40053D360FFF7AFFF236800201A697C
:1016000022F490421A615A6922F02A025A61DA6879
:1016100042F40052DA602023E06384F8393084F821
:101620003A3010BD012010BD08B500F05DFC00206F
:1016300008BD70B5054646690B4686B04068296806
:101640002A69B5F9084076B1AD6965B1842C0CBF43
:101650000024033402958DE8500000F0E1FB059072
:10166000059806B070BD842C0CBF0024033405AD72
:1016700092B28DE8300000F00AFC0128F0D0002082
:10168000EFE708B5002808BF012000F075FD002035
:1016900008BD00F1080343604FF0FF32C3600361EF
:1016A0000023826003607047002303617047436832
:1016B0009A684B608A609A68516099600368086113
:1016C0000133036070470A6830B5531C0AD10369BF
:1016D0005A684A6091608B60596003680861013301
:1016E000036030BD00F108035C682568AA42EFD3AF
:1016F0002346F9E74168826803698A60826851601D
:101700005968884208BF5A60002202611A68013A8B
:101710001A60186870470000002382B001930D4BD7
:101720001B68013308D04FF0500383F31188BFF3D7
:101730006F8FBFF34F8FFEE74FF0500383F3118895
:10174000BFF36F8FBFF34F8F019B002BFCD002B014
:10175000704700BF0C00002006480068006880F356
:10176000088862B661B6BFF34F8FBFF36F8F00DF9B
:1017700000BF000008ED00E04FF0807340F8043C2B
:10178000054B21F0010140F8081C40F80C3C40F8E2
:10179000202C4038704700BF1917000800000000D7
:1017A000074B19680868B0E8F00F80F30988BFF3A9
:1017B0006F8F4FF0000080F311884EF00D0E7047D0
:1017C000A00E00204FF0500383F31188BFF36F8FFA
:1017D000BFF34F8F0A4A13680133012B13600DD1F9
:1017E000084B1B6813F0FF0F08D04FF0500383F332
:1017F0001188BFF36F8FBFF34F8FFEE7704700BFB5
:101800000C00002004ED00E0084A136843B94FF0D3
:10181000500383F31188BFF36F8FBFF34F8FFEE741
:10182000013B13600BB983F3118870470C00002053
:10183000EFF30980BFF36F8F0D4B1A6820E9F00FAB
:1018400010602DE908404FF0500080F3118800F03F
:10185000B7FC4FF0000080F31188BDE8084019681C
:101860000868B0E8F00F80F30988BFF36F8F704706
:10187000A00E002008B54FF0500383F31188BFF38A
:101880006F8FBFF34F8F00F06DFB18B14FF0805298
:10189000024B1A60002383F3118808BD04ED00E0B9
:1018A0000023084A084913600B604FF47A71074B14
:1018B0001B68B3FBF1F30649013B0B600723136080
:1018C000704700BF10E000E018E000E000000020DA
:1018D00014E000E013B5274B00211A78D2B2019230
:1018E000FF221A701B78244ADBB28DF803309DF872
:1018F000033003F0500313700722204B1A609DF849
:101900000300541E00060DD401B11A601A68032AA0
:1019100011D04FF0500383F31188BFF36F8FBFF3E3
:101920004F8FFEE79DF8032001215200D2B28DF8BF
:1019300003202246E3E70024120202F4E0621A6068
:10194000019B0C4ADBB213700D4B1A6842F4700213
:101950001A601A6842F070421A60FFF7A1FF094B43
:101960001C60FFF7F9FE00F02BFCFFF7D5FE2046C8
:1019700002B010BD00E400E08002002084020020DC
:1019800020ED00E00C00002010B50F4B1A688242D9
:1019900018D35C681919884201BF416818460919B3
:1019A0005960446801198A4207D1084909688A4286
:1019B0001FBF51681268091941609842026018BF40
:1019C000186010BD1346E1E7980E00208802002041
:1019D0002DE9F041044600F0BDFA3E493E4D0B684A
:1019E0000BBB3E4A56071DBFD01D20F0070002F575
:1019F00040634FF440631CBF02461B1A002013448F
:101A0000374E083B23F0070370603260586018605F
:101A10000B60981A1360334B50601860324B18609B
:101A20004FF000432B602F68274216D1002C40D086
:101A300004F1080358071CBF23F00703083363B100
:101A4000294A16689046B34207D8254A156868683F
:101A5000834204D809688D4207D1002429E02C680C
:101A6000002CF7D02A462546F1E729681468116052
:101A7000C21A102A0FD9E818410708D04FF05003B6
:101A800083F31188BFF36F8FBFF34F8FFEE7426080
:101A90006B60FFF779FF6B681249F61A1F4300234A
:101AA0000868C8F80060864238BF0E6008346F606E
:101AB0002B6000F0E9FA630708D04FF0500383F37E
:101AC0001188BFF36F8FBFF34F8FFEE72046BDE84D
:101AD000F08100BF880200208C0E00208C020020C4
:101AE000980E0020940E0020900E002010B50446A1
:101AF00070B3184A50F8043C1268134208D14FF0F2
:101B0000500383F31188BFF36F8FBFF34F8FFEE74E
:101B100050F8081C41B14FF0500383F31188BFF314
:101B20006F8FBFF34F8FFEE723EA020340F8043CB8
:101B300000F010FA084A54F8043C1168A4F10800B7
:101B40000B441360FFF720FFBDE8104000F09CBA83
:101B500010BD00BF8C0E0020900E00202DE9F0413A
:101B60000646FFF72FFE2D4B2D4C1A682D4F0132E4
:101B70001A602568002D45D126601B68012B1CD1F9
:101B800078191435FFF785FD8C2DF9D1DFF8C08069
:101B9000254D4046FFF77DFD2846FFF77AFD234897
:101BA000FFF777FD2248FFF774FD2248FFF771FD2C
:101BB000214BC3F80080214B1D60214A2149136845
:101BC0000868013313600123F26A93400343142031
:101BD0000B6000FB0270311DFFF769FDFFF714FE7B
:101BE000194B1B6863B12368DA6AF36A9A4207D219
:101BF0004FF08052154B1A60BFF34F8FBFF36F8FBA
:101C0000BDE8F081104B1B68002BD6D12368DA6A3F
:101C1000F36A9A4298BF2660CFE700BF380F0020D2
:101C2000A00E0020AC0E0020640F0020800F0020CA
:101C3000AC0F0020980F0020A40E0020A80E00205A
:101C4000480F00204C0F0020940F002004ED00E00E
:101C5000500F0020064A13681968064B19B94FF057
:101C6000FF321A6070471268D268D2685268F8E78B
:101C7000A40E0020780F00202DE9F04781460A9C31
:101C800002F18042266B013A06EB8206DDF82480E1
:101C90009A4626F007064B1E04F134020F3158789D
:101CA00002F8010B13F8010F08B18B42F7D1089D20
:101CB0000027062D28BF0625201DE562656484F8EF
:101CC0004370A764FFF7F0FCC5F1070504F11800A5
:101CD000FFF7EAFCE7642461A561646284F8507050
:101CE000524649463046FFF747FD2060B8F1000FE5
:101CF00001D0C8F80040BDE8F08710B590F8513029
:101D000004463BB9006BFFF7F1FE2046BDE81040EA
:101D1000FFF7ECBE012BF9D0022B08D04FF0500397
:101D200083F31188BFF36F8FBFF34F8FFEE710BDB2
:101D300080B5DFF85C80124F124C134D236863B9F5
:101D4000124B1B68012BF8D94FF08053C8F80030B4
:101D5000BFF34F8FBFF36F8FEEE7FFF733FDFB68E5
:101D6000DE68301DFFF7C6FC2B68013B2B60236843
:101D7000013B2360FFF748FD3046FFF7BEFFDDE77C
:101D8000AC0F00203C0F0020380F0020AC0E0020CC
:101D900004ED00E0F8B51B4B1B4E1D68044630688F
:101DA0000F460430FFF7A6FC334640B901203168E6
:101DB000164EC96A3268884022EA00023260621C0C
:101DC00007D137B1196812480431BDE8F840FFF770
:101DD0006EBC2C441A68A542546007D90D4A10689D
:101DE0001968BDE8F8400431FFF76DBC0A4A106875
:101DF00019680431FFF767FC084B1A68944238BF32
:101E00001C60F8BDC00F0020A00E00204C0F002069
:101E1000980F0020A80E0020A40E0020780F0020AC
:101E200070B586B00B9D0C9C45B94FF0500383F301
:101E30001188BFF36F8FBFF34F8FFEE744B94FF0A8
:101E4000500383F31188BFF36F8FBFF34F8FFEE70B
:101E500054260496049E542E08D04FF0500383F36A
:101E60001188BFF36F8FBFF34F8FFEE72563022505
:101E700084F8515005AD01950A9D02940095FFF735
:101E8000FBFE2046FFF76AFE059806B070BD2DE9FF
:101E9000F043074685B09000884616469946FFF7FE
:101EA00097FD0546E8B15420FFF792FD0446A8B11E
:101EB000002380F851300D9B056301930C9B029029
:101EC000009332464B4641463846FFF7D5FE204642
:101ED000FFF744FE012005B0BDE8F0832846FFF778
:101EE00005FE4FF0FF30F6E710B5002488B007AAD2
:101EF00006A905A805940694FEF7C8F9059B009469
:101F00000293069B079A01930D4923460D48FFF75C
:101F100087FF90B14FF0500383F31188BFF36F8FA9
:101F2000BFF34F8F4FF0FF32074B1A600122074B70
:101F30001A60074B1C60FFF7CDFC08B010BD00BF56
:101F400040230008311D0008780F0020940F002066
:101F5000C00F0020024A136801331360704700BFAE
:101F6000440F00202DE9F84F3C4B1B68002B53D148
:101F70003B4B1C6801341C60BCB93A4B1A681268B0
:101F800042B14FF0500383F31188BFF36F8FBFF35B
:101F90004F8FFEE7344A1968106818601160334AA1
:101FA000136801331360FFF755FE314D4FF0000BFE
:101FB0002B68304F9C423ED3DFF8A880DFF8C490F6
:101FC000D8F80020126872BB4FF0FF322A6032E06E
:101FD00006F1040A5046FFF78DFBB16A19B106F10C
:101FE0001800FFF787FB01224FF0140EF06AD9F8B2
:101FF000003002FA00F119431F4BC9F800100EFB24
:1020000000305146FFF753FB3868F16AC26A9142CB
:1020100028BF4FF0010BD3E7184A4FF0000B1368AD
:102020000133136011E0D8F80020D268D6687168D7
:102030008C42CDD229603A680F4BD16A14224A43B0
:102040009A58022A28BF4FF0010B0D4A1268002A45
:1020500018BF4FF0010B5846BDE8F88F440F002021
:10206000C00F0020A40E0020A80E00207C0F00202E
:10207000780F0020A00E0020AC0E0020400F0020A2
:10208000C40F00204C0F00202DE9F843314C236889
:1020900043B94FF0500383F31188BFF36F8FBFF341
:1020A0004F8FFEE7FFF78EFB2368013B2360246818
:1020B0002CB10024FFF7A8FB2046BDE8F883264B8F
:1020C0001B68002BF5D0DFF8A890244FDFF8A48020
:1020D000D9F80030E3B90CB1FFF7BCFD204D2C68F6
:1020E00044B101271F4EFFF73DFF00B13760013CAF
:1020F000F9D12C601B4B1B68002BDAD04FF08052BB
:10210000194B1A60BFF34F8FBFF36F8F0124D1E7D4
:10211000D9F80C300125DC68261D04F11800FFF702
:10212000E9FA3046FFF7E6FA1420E26A396805FA60
:1021300002F30B4300FB028031463B60FFF7B7FA26
:102140000A4BE26A1B68DB6A9A4224BF054B1D609A
:10215000BEE700BF440F0020380F00204C0F0020C6
:10216000400F0020C40F002004ED00E0A00E00206E
:10217000800F0020AC0E002008B540B94FF080520F
:102180000D4B1A60BFF34F8FBFF36F8F08BD0B4B22
:10219000196841B14FF0500383F31188BFF36F8F7B
:1021A000BFF34F8FFEE7FFF7D5FEFFF7F3FDFFF715
:1021B0006BFF0028E2D008BD04ED00E0440F0020D2
:1021C000174B10B51A68174B12B101221A6010BDD7
:1021D0001A60154B1B68B3FA83F31422DBB2C3F108
:1021E0001F035A4311498C58881844B94FF05003C3
:1021F00083F31188BFF36F8FBFF34F8FFEE74468FF
:10220000083264680A44944208BF6268446008BFA8
:102210004260142202FB03135B68DA68044BD5E7C3
:10222000440F0020C40F00204C0F0020AC0E0020F3
:10223000A00E0020002103E00B4B5B5843500431FB
:102240000A480B4B42189A42F6D30A4A02E000238E
:1022500042F8043B084B9A42F9D3FEF767F900F0C5
:102260000FF8FEF7CAF8704750230008000000205E
:102270001000002010000020CC100020FEE700001D
:1022800070B500250C4E0D4CA41BA410A54209D11D
:1022900000F022F800250A4E0A4CA41BA410A54207
:1022A00005D170BD56F8253098470135EEE756F850
:1022B000253098470135F2E74823000848230008F5
:1022C000482300084C23000803460244934200D1EF
:1022D000704703F8011BF9E7F8B500BFF8BC08BC6C
:1022E0009E467047F8B500BFF8BC08BC9E467047D4
:1022F0001C2300088102000800000000000000000C
:10230000800000000000000000000000020304053F
:10231000060708090A0B0C0D0E0F101064656661A4
:10232000756C745461736B000000000000000000C5
:10233000010203040607080900000000010203046B
:0823400049444C450000000077
:042348003501000853
:04234C001101000873
:102350000024F4000100000010000000AAAAAAAAAC
:040000050800223598
:00000001FF
